:02000004080AE8
:1000000000000A0850990A080000060006000501D1
:0800100004021F0C00000000B7
:04001800EC8F0A0857
:1000200009480A4908B5884205D0094A824202D0E7
:10003000121A06F0C1FC0748074A0021121A06F0FE
:10004000C9FC064808BD00BF00000020EC960A0865
:100050003C02002040020020041000200410002078
:1000600070B505F067F80025054E064CA41BA408E2
:10007000A54200D170BD56F8043B98470135F7E71B
:10008000BC960A08E0960A0801F060B908B502F0CB
:1000900039FCBDE8084005F005B804F08DB804F05F
:1000A0008BB804F091B80078B0FA80F0400970473E
:1000B00001230370704700007FB50D460C46584E73
:1000C000284606F0EAFC631B984260D92378742B1B
:1000D00038D16378652B1AD1A3786D2B17D1E378CB
:1000E000702B14D12379222B11D1A3798DF80830EC
:1000F000E3798DF80930237A8DF80A30637A8DF828
:100100000B30A37A8DF80C30E37A8DF80D3014F8AB
:10011000013C5B2B14D123787B2B11D16378222BEC
:100120000ED1A378692B0BD1E378642B08D1A37986
:100130008DF80430E3798DF80530237A8DF8063098
:100140000134BDE7682B0DD0692BE0D16378632BB8
:10015000DDD1A3786F2BDAD1E3786E2B04BF637AFD
:100160003370D4E76378752BD1D1A3786D2BCED1C2
:10017000E378692BCBD1A37A8DF80030E37A8DF840
:100180000130237B302BC2D18DF80230BFE79DF8C0
:100190000030303B092B06D8684606F009FB05F015
:1001A000B7FD204B18609DF80430303B092B06D872
:1001B00001A806F0FDFA05F0ABFD1B4B18609DF899
:1001C0000830303B092B1ED802A806F0F1FA05F0E2
:1001D000E7FD05F0ABFA0EA3D3E9002305F046F9DD
:1001E00005F0DEFD05F0A2FA0BA3D3E9002305F02C
:1001F000F5FA0E4B002205F03BF905F0D1FD06F0B3
:10020000F3F80B4B186004B070BD00BFAFF3008073
:100210006666666666127140CDCCCCCCCCCCFC3F19
:1002200064020020780200206002002000004040AC
:100230005002002010B50446006808B103F0C4FF66
:10024000204610BD000000002DE9F04F054689B0A2
:100250007D4F05928CB2059B9C4200F3E480230AFB
:1002600026D155F824104FF47A7091FBF7F291FBE8
:10027000F0F692FBF0F300FB132296FBF0F300FB89
:10028000161100FB1363C8B2210751BF2146E11DBF
:1002900004F00706A1EB4601D2B2DBB252BF0090D8
:1002A000009089B2694803F0F7FC0134A4B2D2E7A8
:1002B000B4F5BF7F7CD8A4F58078D8F1000303F0B3
:1002C000070308F0070958BFC3F1000955F82430A7
:1002D0004FF47A7293FBF7F393FBF2F002FB1030CA
:1002E00005F012FA54A3D3E90023C9F1170905F068
:1002F00075FA4FEA0919E2071FFA89F94FEA8406ED
:100300004CD4B8F1000F01DAA4F1F9084FEAE80A79
:10031000CAF10F0ACA441FFA8AFA4FF47A7B05F031
:1003200055F8AB59CDE9020193FBFBF393FBFBF0CE
:100330000BFB103005F0E8F941A3D3E9002305F0E9
:100340004DFA05F043F8AB59804693FBFBF00BFBED
:100350001030894605F0D8F937A3D3E9002305F01A
:100360003DFA05F033F802460B4640464946CDE9D2
:10037000062305F0F5FC5FFA80F8DDE9020105F0DF
:10038000EFFCDDE90623C6B21946104605F0E8FC8D
:10039000C0B2434632465146009083E7B8F1000FA1
:1003A00001DAA4F1F90809EBE8081FFA88FAB4E7C2
:1003B000A4F5C0781FFA88F37F2B3FF676AFD8F10B
:1003C000000303F0070308F0070958BFC3F1000951
:1003D00055F824304FF47A7293FBF7F393FBF2F065
:1003E00002FB103005F090F913A3D3E90023C9F103
:1003F0001F0905F0F3F94FEA0919E3071FFA89F914
:100400004FEA840607D4B8F1000FBCBF6FF4BC728A
:1004100004EB02087AE7B8F1000FBCBF6FF4BC73BD
:1004200004EB0308BFE7094809B0BDE8F04F02F04C
:1004300087BB00BFAFF30080CDCCCCCCCCCCE43FAD
:100440009A9999999999E93F40420F009C0A002096
:1004500070B58AB06C460646074D0FCD0FC40FCD60
:100460000FC495E8030084E803000AAB03EB86069B
:1004700056F8280C0AB070BDB0900A0870B58AB062
:100480006C460646074D0FCD0FC40FCD0FC495E83F
:10049000030084E803000AAB03EB860656F8280C39
:1004A0000AB070BDD8900A082DE9F0419DF82440AB
:1004B0001D4F1E4E4FEA820C14BB00244FF47A7875
:1004C0006644A4469DF81CE09DF820503C6008FB63
:1004D0000E559DF818E0DFF8588008FB0E55A34232
:1004E0001ADD10F0010F03D0D44258BF46F8245053
:1004F000400840EAC1704FF0010C49080134EEE7B2
:100500000024A64606EB0C059C42D6DAD44258BF1E
:1005100045F824E00134F7E723EAE373BCF1000F68
:1005200000D03B60BDE8F0817C0200209C020020EE
:1005300040420F002DE9F0411E469DF82030194F32
:10054000194D4FEA810CDBB94FF47A7800239DF8FE
:1005500018E09DF81C403B6008FB0E44DFF84CE0BF
:1005600065440EFB06441E469A4215DDC60703D5B8
:10057000CB4258BF45F82340012640080133F3E73A
:100580000024A64605EB0C039442DDDACC4258BFAA
:1005900043F824E00134F7E722EAE27206B13A6058
:1005A000BDE8F0817C0200209C02002040420F0048
:1005B0002DE9F0411E469DF82030194F194D4FEAA4
:1005C000810CDBB94FF47A7800239DF818E09DF890
:1005D0001C403B6008FB0E44DFF84CE065440EFB1A
:1005E00006441E469A4215DDC60703D5CB4258BFC6
:1005F00045F82340012640080133F3E70024A646CE
:1006000005EB0C039442DDDACC4258BF43F824E0FA
:100610000134F7E722EAE27206B13A60BDE8F08100
:100620007C0200209C02002040420F0000000000DD
:100630002DE9F0471546704A86B012781E46642AA6
:1006400004460F469DF838909DF83C80A0F548730D
:10065000A0F2223A6DD1012B03D940F2D123984266
:100660002AD1284605F050F855A3D3E9002305F018
:10067000DFF904F0ABFECDE90401304605F044F8A3
:1006800051A3D3E9002305F0A9F804F09FFE00234D
:10069000CDF80C80029305F063FBC0B20190DDE958
:1006A000040105F05DFBC0B20090402348A1D1E9F0
:1006B00000013A46FFF7F8FEBAF1010F10D9A4F194
:1006C000C803B3F5027F2DD843A1D1E9000140232F
:1006D0003A46CDE90298CDE90056FFF7E5FE25E060
:1006E000002330460293CDF80C8005F00DF83CA3B2
:1006F000D3E9002305F072F805F032FBC0B24023C5
:10070000CDE9005038A1D1E900013A46FFF7CCFE0F
:1007100037A1D1E900014023CDE90298CDE9005687
:10072000FFF7C2FEA4F2DB24282CCDD906B0BDE829
:10073000F087012B03D940F2D123984219D103232A
:10074000B9FBF3F330460293CDF80C8004F0DCFFE4
:100750004FF03332294B05F041F805F001FBC0B2F0
:10076000CDE9005040233A4643F67F612448FFF725
:100770009BFEBAF1010FA2D80323B9FBF3F3304675
:100780000293CDF80C8004F0BFFF4FF033321B4BC7
:1007900005F024F805F0E4FAC0B240230021CDE9C9
:1007A00000503A461748FFF77FFE402341F23801D8
:1007B000CDE90298CDE900561348B1E7AFF30080C8
:1007C000CDCCCCCCCCCCFC3FCDCCCCCCCCCCF43F29
:1007D00008001C5D1C00080002070707070702004D
:1007E000666666666666FE3F08000C05040000004B
:1007F0000000103838383810640200203333F33FDB
:10080000000041632206040010383838F8B51F464E
:100810009DF81C300D46164683B1FFF719FE0022E5
:100820002946DFF85CC0174C05F12003AB4208D025
:10083000002DA8BF44F825200135F7E7FFF71EFE7D
:10084000EDE74FF47A7200239DF81840CCF80030A1
:1008500002FB07440C4A02FB06420A4CA94209D09B
:10086000C30703D50029A8BF44F82120012340086D
:100870000131F3E713B12023CCF80030F8BD00BFFD
:100880007C0200209C02002040420F002DE9FF4125
:10089000044630385FFA80FEBEF1090F0D46164659
:1008A0001F469DF828809DF82CC013D8BCF1000F7E
:1008B00007D00121CDE90081A91CFFF7A7FF032480
:1008C00004E0CDE9008CFFF7A1FF0424204604B02A
:1008D000BDE8F081203C5C2C00F23283DFE814F0AC
:1008E0005D006600700030033003300330037B008E
:1008F00083008F0030039800A000A800B100B90069
:10090000300330033003300330033003300330034F
:1009100030033003C100C900D100D900E100E90073
:100920003003F100FB0003010B0113011B01230144
:100930002B0133013B0143014B01530168017A0153
:1009400082018A0192019A01A201B401BC01C40191
:10095000D601DE01F001F80130030102300330035B
:100960007B000A0212025E0266026E0276027E02BC
:1009700086028E0296029E022A03A602B802C002D6
:10098000C802D002D802E002E802F002F802000336
:1009900012031A03220330032A0300230124CDE9A2
:1009A00001340093082229467F2006E001241346E3
:1009B0002F200822CDE901840097FFF7F9FD85E794
:1009C00001234FF00310CDE901831346182200974D
:1009D000FFF7B0FD73E70124134603200822CDE999
:1009E00001840097E9E7012344F23E10CDE9018339
:1009F000134610220097FFF79DFD022466E70123AE
:100A000043F64160CDE90183009713461022F2E7D7
:100A10000123C048CDE90183009713461822D7E788
:100A20000124134660200822CDE901840097C4E721
:100A3000012340F60800CDE90183009713461022F8
:100A4000D9E70124134640200822CDE9018400970C
:100A5000B3E70123B048CDE901830097134618227C
:100A6000B6E70124134622200822CDE9018400972D
:100A7000A3E70124134662200822CDE901840097F0
:100A80009BE70123A548CDE901830097134618226F
:100A90009EE70123A248CDE901830097134618225F
:100AA00096E701239F48CDE901830097134618225A
:100AB0008EE701239C48CDE9018300971346182255
:100AC00086E70123CDE9018313462022974800974A
:100AD000FFF730FDF9E601239548CDE90183009742
:100AE00013462022F4E701239248CDE901830097C1
:100AF00013462022ECE701238F48CDE901830097BC
:100B000013462022E4E701238C48CDE901830097B6
:100B100013462022DCE701238948CDE901830097B1
:100B200013462022D4E701238648CDE901830097AC
:100B300013462022CCE701238348CDE901830097A7
:100B400013462022C4E701238048CDE901830097A2
:100B5000134618223CE701237D48CDE90183009725
:100B600013462022B4E701237A48CDE90183009798
:100B700013462022ACE701237748CDE90183009793
:100B800013462022A4E7012413467F2008222031A7
:100B9000CDE901840097FFF70BFD3346202229465B
:100BA000CDE901846D480097FFF7C4FC05248DE66C
:100BB000012413467F2008222031CDE901840097CB
:100BC000FFF7F6FC334620222946CDE9018464482C
:100BD0000097E9E701236348CDE9018300971346B5
:100BE000202275E701236048CDE901830097134671
:100BF00020226DE701235D48CDE90183009713466C
:100C0000202265E701235A48CDE901830097134666
:100C100020225DE701235748CDE901830097134661
:100C2000202255E701241346204608222031CDE931
:100C300001840097FFF7BCFC334620222946CDE90A
:100C400001844D480097AFE701234C48CDE901836B
:100C50000097134620223BE701234948CDE9018351
:100C600000971346202233E7012413463F20082231
:100C70002031CDE901840097FFF79AFC334620220A
:100C80002946CDE901843F4800978DE701233E487E
:100C9000CDE9018300971346182299E601241346F3
:100CA000204608222031CDE901840097FFF780FC1F
:100CB000334620222946CDE901843448009773E762
:100CC00001233348CDE90183009713462022FFE634
:100CD000012344F27F10CDE90183009713461022CF
:100CE00089E6012347F64170CDE901830097134659
:100CF000102280E601232748CDE90183009713469F
:100D0000182265E601232448CDE9018300971346A4
:100D100018225DE6081C080060180600081422006E
:100D2000141414002214080003590F007E09097ED0
:100D30007F4949363E4141227F41413E7F494941F9
:100D40007F0909017F4149787F08087F417F410081
:100D500021413F017F0808777F4040407F017E01AD
:100D60007F013E403E41413E7F0909063E41211F31
:100D70007F4949314649493101017F013F40403FA8
:100D80001F60601F3F403F40007F730001027C02F4
:100D9000C1310D03304870007F483000012369489D
:100DA000CDE9018300971346182211E60123664816
:100DB000CDE9018300971346182209E60123634811
:100DC000CDE9018300971346182201E6012360480C
:100DD000CDE90183009713461822F9E501235D4808
:100DE000CDE90183009713461822F1E501235A4803
:100DF000CDE90183009713461822E9E50124134643
:100E000074200822CDE901840097D6E501235348D8
:100E1000CDE90183009713461822D9E501235048F4
:100E2000CDE90183009713461822D1E5012413462A
:100E3000702008222031CDE901840097FFF7B8FB2C
:100E4000334620222946CDE9018446480097ABE687
:100E500001234548CDE90183009713462022B7E5D9
:100E600001234248CDE90183009713461822AFE5DC
:100E700001233F48CDE90183009713461822A7E5D7
:100E800001233C48CDE901830097134618229FE5D2
:100E900001233948CDE9018300971346182297E5CD
:100EA00001233648CDE901830097134618228FE5C8
:100EB00001233348CDE9018300971346182287E5C3
:100EC00001233048CDE901830097134618227FE5BE
:100ED00001232D48CDE9018300971346182277E5B9
:100EE00001241346382008222031CDE901840097DF
:100EF000FFF75EFB334620222946CDE901842348D3
:100F0000009751E601232248CDE90183009713465B
:100F100018225DE501231F48CDE9018300971346A0
:100F2000182255E501231C48CDE90183009713469B
:100F300018224DE501241346CDE90184009731E5DF
:100F40000024C3E43048480030487F00385458003B
:100F50007E090A0048547C007F08700020403A0057
:100F60007F10680070087008780870003048300002
:100F70007C14080008147C00780810005C5474008D
:100F8000087E08003840780038403800384070400B
:100F9000483048004C503C0064544C002DE9F74F59
:100FA00006460C461746984600259DF830A09DF849
:100FB00034B0304605F071FDA8420DD92146705D70
:100FC00043463A46CDE900ABFFF760FC04F108095F
:100FD00009EBC0040135ECE703B0BDE8F08F000079
:100FE0002DE9F04F85B01E460C461546074603F026
:100FF0005EFE029003F064FEDFF8F4A08146DAF8AA
:101000000030834202D10E9B002B59D004F066F9C8
:10101000062002F0A3FE8046002851D103F050FEC6
:101020004FF47A7173086A0801FB02323149630890
:1010300001FB0323304A07F1390142F8213007F15F
:101040003D0142F8213009F10903122BCAF80000D2
:1010500007F1480107F1700B35D82B462246404670
:10106000CDE90068FFF7D2FB2B4622465946484699
:10107000CDE900684FF00A09FFF7C8FB029B4FF06B
:10108000000A93FBF9F85FFA88F105FB01F304FB12
:1010900001F27143C9B201200091DBB2D2B2A7F1D3
:1010A0001801CDF804A0FFF7B1FB02982B462246A9
:1010B00009FB1800CDE9006A07F11001FFF7A6FB54
:1010C00005B0BDE8F08F4FF00A0A99FBFAF02B4605
:1010D0002246CDE900680390FFF798FB03982B4662
:1010E000224659460AFB1090CDE90068C2E700BFCE
:1010F0008C02002040420F009C0200202DE9F74F97
:101100000A26054690FBF6F006FB10554FF47A765A
:101110009DF83090DFF864C006FB03969DF834B06C
:101120000C46174698460CFB0266DFF854A0BBF14C
:10113000000F14D04FF0010BCDE9009BFFF766FBC9
:1011400004F1200143463A462846CDE9009BFFF7CB
:101150005DFB40344AF8246003B0BDE8F08FCDE970
:10116000009BFFF753FB04F1280143463A4628460B
:10117000CDE9009BFFF74AFB5034EBE740420F00FC
:101180009C0200202DE9F74F642807460C461546BF
:101190001E469DF8308025D14FF47A7303FB0683F9
:1011A0001A4A02FB05331A4A02EB8102002101317F
:1011B000072942F8043BFAD1002733462A4638462D
:1011C00004F11001CDE90087FFF720FB33462A46E2
:1011D0003846CDE9008704F13801FFF717FB03B06B
:1011E000BDE8F08F4FF00A0A4FF0000B90FBFAF9C0
:1011F000CDE9008B4846FFF709FB33462A460AFB38
:101200001970CDE9008B04F12801E6E740420F0098
:101210009C02002030B5A0F59675152D9DF80C4068
:1012200013D84FF47A7000FB0344264B01F10E00F3
:1012300003FB0242244B43F8202001F11C0043F839
:1012400020202E3143F821203BE0A0F1C805222DBB
:1012500015D84FF47A7000FB03441A4B01F11B00C0
:1012600003FB0242184B43F8202001F1140043F81D
:10127000202001F11D0043F820201631E2E7A0F5FF
:10128000FA75202D19D84FF47A7000FB03440D4BEA
:1012900001F10B0003FB02420B4B43F8202001F14C
:1012A000160043F8202001F11C0043F8202001F132
:1012B000250043F820202B31C4E7A0F516701D2827
:1012C000E1D930BD40420F009C0200207FB51B4D8C
:1012D00006462C6802F032FD04F5922404F5787479
:1012E00084420FD2164B174A1B7817498DF80030ED
:1012F00002A83C2303F00AF9039C64B902F01EFD26
:10130000286006E002F01AFD2B688342EAD8002E1E
:10131000E8D104B070BD6368013B6360002BEDD180
:10132000236820469B689847A368013BA360002B75
:10133000E4D123682046DB689847DFE78802002075
:101340005402002000900A081C900A082DE9F3417D
:1013500000246D4B032120461C6003F06BFF03212A
:10136000012003F067FF0321022003F063FF012146
:10137000072003F05FFF012003F09CFB224621467B
:10138000204603F0A7FB01230221604A6048136056
:10139000604A614E1360614A614D1360614A116099
:1013A000614A137001F096FB594801F0C9FB3246BF
:1013B00040F2012321462C60013B03D0012442F876
:1013C000041BF9E714B14FF400732B600E2003F0F7
:1013D0006EFF122390FBF3F3544A3821136001226D
:1013E000DBB2CDE9003252481A46FFF7D7FD382369
:1013F000504C494F23602168C7290ADC3846CA1D72
:10140000FEF722FF4B2002F00FFF23680833236012
:10141000F1E7002002F0BAFC4FF000080446464F06
:10142000002002F0B3FC001B61F10001874278EB61
:10143000010305D302F038FE10B902F02DFEEFE7EC
:1014400002F032FE002340F2011219462B60013AED
:1014500003D0012346F8041BF9E713B14FF480735E
:101460002B6003F03BFF1021012002F07FFC03F012
:1014700035FF0121022002F079FC03F02FFF00214B
:10148000032002F073FC03F029FF0021042002F086
:101490006DFC03F023FF0121052002F067FC03F03F
:1014A0001DFF0021062002F061FC002302221F49DB
:1014B000224802F0E9FD002321491A46CDE9003314
:1014C000204802F001FE03F009FF012002F046FC73
:1014D000C0F10C0004F06EFD03F09EFB03F0F0FB86
:1014E000194B0138186003F0E2FB3C22174B01381E
:1014F0001860174B32201A6002F096FE012002B0ED
:10150000BDE8F041FFF7E2BE88020020980200200B
:101510009C0A0020B40A00209C02002068020020DF
:10152000840200206C020020B00A002090020020FB
:1015300002900A087C0200209F86010008900A0899
:10154000B9000A080E900A088C02002074020020DC
:101550005C02002038B56425002490FBF5F5A54217
:101560004FF0000003DD03F08FFE08B1012038BD0D
:10157000012003F089FE0028F8D1022003F084FE48
:101580000028F3D1642002F04FFE0134E7E70000A9
:101590002DE9F04F9946A0F1C80387B0222B0C46E5
:1015A00093469DF840509DF8448000F283800023CC
:1015B000894E01F11D0701F11408304601F11B0AA3
:1015C0003A464146163446F82A3046F8283046F85E
:1015D000273046F82430FEF737FE5846BBF1000F9F
:1015E000B8BF0BF103008010FFF7B4FF00285ED1F5
:1015F000484604F089F84FF03332784B04F018FA7B
:1016000004F0AEFB5FFA80F9754800FB09F3284649
:10161000009304F079F86EA3D3E9002304F0DEF818
:1016200004F09EFB4FF47A73009AC0B203FB0020D3
:101630005146524646F82A006748FEF705FE0BEB76
:10164000DB724FEA62094846FFF784FF78BB4FF42C
:101650007A73009A6D00EDB203FB05255E484246A1
:10166000414646F82850FEF7EFFD4846FFF772FF67
:10167000E8B959483A46394646F82750FEF7E4FD9E
:101680004846FFF767FF90B953482246214646F87F
:101690002450FEF7D9FD5846FFF75CFF38B946F8ED
:1016A0002A0046F8280046F8270046F8240007B02C
:1016B000BDE8F08FA0F59673152B00F2938001F131
:1016C0000E0300930023444E01F10E0246F822302F
:1016D00001F12E0701F11C0246F8223046F82730AE
:1016E0004FF47A7303FB058501F10B093046019233
:1016F00001F11D0A01F12B083A46494646F82950E6
:1017000046F82A5046F82850FEF79EFD5846FFF747
:1017100021FF0028CBD146F8290004F10C0346F83C
:101720002A003A4646F828004946304604F11E0A87
:1017300004F12C0846F82350029346F82A5046F844
:101740002850FEF781FD5846FFF704FF0028AED170
:10175000029B3A4646F82300494646F82A0046F8D6
:10176000280004F10D0A304604F11B082D3446F818
:101770002A5046F8285046F82450FEF765FD584692
:10178000FFF7E8FE002892D1009B46F82A0046F8B1
:10179000280046F8240046F82350019B30463A467C
:1017A000494646F8235046F82750FEF74DFD584667
:1017B000FFF7D0FE00287FF47AAF009B46F82300A5
:1017C000019B46F8230046F8270070E7AFF300803E
:1017D00033333333333303409C0200203333F33F3E
:1017E00040420F00A0F5FA73202B00F2CB800023BB
:1017F000DF4E01F1160201F10B0A46F82A30009281
:1018000046F8223001F11C0246F82230019201F123
:10181000250246F82230029201F12B0246F82230CE
:101820000323B5FBF3F54FF47A7303FB058501F150
:101830000C0901F1130346F82950304646F82350AD
:10184000039201F11D0301F12E0201F1260801F1BD
:101850002C07514646F82350059346F82850049229
:1018600046F82750FEF7F0FC5846FFF773FE0028B5
:101870007FF41DAF04F1130346F8290046F8230056
:10188000059B514646F8230004F10D0346F8280055
:10189000049A46F8270004F11E0946F82350304602
:1018A00004F1140304F1230804F12D0746F8235032
:1018B000059346F8295046F8285046F82750FEF779
:1018C000C3FC5846FFF746FE00287FF4F0AE04F153
:1018D0000D0346F82300059B049A46F82300514661
:1018E00046F8290046F8280004F10E0946F82700BA
:1018F00004F11508304604F11B07243446F829503A
:1019000046F8285046F8275046F8245046F822500A
:10191000FEF79AFC5846FFF71DFE00287FF4C7AE7D
:10192000009B049A46F8290046F8280046F827004C
:1019300046F8240046F8220046F82A5046F823507C
:10194000019B304646F82350029B514646F82350EF
:10195000039B46F82350FEF777FC5846FFF7FAFD45
:1019600000287FF4A4AE46F82A00009B46F8230026
:10197000019B46F82300029B46F82300039B46F890
:10198000230094E6A0F516701D2800F2E3800023E2
:10199000774E01F1160201F10B0746F8273000924D
:1019A00046F8223001F11C0246F82230019201F182
:1019B000250246F82230029201F12B0246F822302D
:1019C000284601F10C030392049303F09DFE0022CC
:1019D000684B03F003FF04F0C3F95FFA80FA404656
:1019E00003F092FE60A3D3E9002303F0F7FE04F0B6
:1019F000B7F94FF47A7505FB0AFAC5B2484603F009
:101A000083FE00225B4B03F0E9FE04F0A9F9AA442F
:101A1000C5B2594804F10C0300FB05A504F12E02E0
:101A200046F82350304604F11303394604F11D0AE9
:101A300004F1260904F12C0846F82350059346F8D2
:101A40002A50049246F8295046F82850FEF7FCFB2D
:101A50005846FFF77FFD00287FF429AE04F10C0300
:101A600046F82300059B394646F8230004F10D0390
:101A700046F82A00049A46F8290004F1140A46F8A8
:101A8000280004F11E0946F82350304604F12D03C6
:101A900004F1230846F82A50059346F8295046F8E1
:101AA000285046F82350FEF7CFFB5846FFF752FD6B
:101AB00000287FF4FCAD04F10D0346F82300059BDC
:101AC000049A46F82A00394646F8290004F10E0A1D
:101AD00046F8280004F1150946F8230004F11B0814
:101AE0003046243446F82A5046F8295046F8285003
:101AF00046F8245046F82250FEF7A6FB5846FFF75A
:101B000029FD00287FF4D3AD009B049A46F82A00F3
:101B100046F8290046F8280046F8240046F8220036
:101B200046F8275046F82350019B304646F823508C
:101B3000029B394646F82350039B46F82350FEF794
:101B400083FB5846FFF706FD00287FF4B0AD46F84A
:101B500027000AE702EB420007B0BDE8F04FFFF7AD
:101B6000F9BC00BFAFF30080CDCCCCCCCCCCFC3FDB
:101B70009C0200200000F83F40420F000E202DE99B
:101B8000F04103F094FB164B1A68904225DAFA22D2
:101B9000012500241A60134E134BDFF85080144FB8
:101BA0001D603560C8F800403C6003F097FB0520DD
:101BB00002F0D4F8022807D1C8F8005034600120A0
:101BC0000C4B1860BDE8F08103F088FB052002F0A3
:101BD000C5F80328F3D13D60F0E70020F2E700BF2D
:101BE0005C02002094020020980200207002002075
:101BF00058020020680200202DE9F04F8BB0CDE99B
:101C000003329DF85030044602938D4B8B461B687F
:101C1000012B40F0118100258A4EDFF82CA21927F4
:101C2000336800226B4393FBF7F3CDE90022DBB26C
:101C30002146DAF8000004F15809FFF75FFA4A4636
:101C400021468248FEF700FB01350A2002F0ECFA3B
:101C50001A2DE4D140F6C410FFF77CFCFFF78EFF8D
:101C6000039B804607FB03F600283ED0AA46049B50
:101C700007FB03F8029B5F431921B7FBF1F2B6FBA8
:101C8000F1F5B8FBF1F17248724B00681B68014432
:101C9000012013446B4AEDB21268DBB22A44009073
:101CA000D2B25846C9B2FFF79BF90022CDE9002213
:101CB00065482B4621460068FFF720FA4A465946F8
:101CC0006248FEF7C1FA0A2002F0AEFA049BBAF1AC
:101CD000010AA8EB0308039BA6EB0306029BA7EBF4
:101CE0000307C9D10BB0BDE8F08FB6FBF7F3CDE920
:101CF0000088DBB200222146DAF80000FFF7FEF987
:101D00004A4621465148FEF79FFA0A2002F08CFA13
:101D1000039B013DA6EB0306E7D103F0DFFA0420A5
:101D200002F01CF801287CD10223454A13601A27CF
:101D300000264FF0320ADFF82091DFF810811925D4
:101D40000299049B714306FB03F2B1FBF5F10023FA
:101D5000B2FBFAF2C9B201930091D9F80000214612
:101D6000D2B2FFF7CBF904F158031A462146404698
:101D70000593FEF769FA0A2002F056FA013F06F1D0
:101D80000106DCD140F6C410FFF7E4FBFFF7F6FED6
:101D9000049B05FB03F8029B05FB03F600285DD0BE
:101DA0004FF01A09039BDFF89CA005FB03F71921EC
:101DB000B7FBF1F0B6FBF1F5B8FBF1F1DAF8002072
:101DC000244B024422481B680068EDB20144012004
:101DD0002B440090DBB25846D2B2C9B2FFF700F9EB
:101DE00032220023B8FBF2F2CDE900531A48214613
:101DF0000068D2B2FFF782F95946059A1348FEF7F8
:101E000023FA0A2002F010FA049BB9F10109A8EBA9
:101E10000308039BA7EB0307029BA6EB0306C6D1AF
:101E200060E70323064A1360054B1B68032B3FD072
:101E3000042B7FF457AFDEE0022BF5D177E700BF2C
:101E4000B40A002070020020500200209C020020F2
:101E50009402002058020020800200201A274FF030
:101E600032094546DFF828A1DFF828811921B6FBA1
:101E7000F1F10023B5FBF9F2C9B201930091DAF850
:101E800000002146D2B2FFF739F921464046059AB3
:101E9000FEF7DAF90A2002F0C7F9049B013FA5EB2F
:101EA0000305029BA6EB0306E0D103233A4A136025
:101EB0001A2600251927DFF8E4A0DFF8D890029A47
:101EC000039B6A436B43B2FBF7F2B3FBF7F3D2B267
:101ED0000092DBB200222146DAF8000004F1580833
:101EE000FFF750F9424621464846FEF7ADF90A2071
:101EF00002F09AF9013E05F10105E0D140F6C41067
:101F0000FFF728FBFFF73AFE039B07FB03F6029B54
:101F100007FB03F5002849D0049B5F431A23059370
:101F20001921B6FBF1F9B5FBF1FAB7FBF1F11C4849
:101F30001C4B00681C4A014401201B6812685FFAB0
:101F400089F95FFA8AFA53444A440090DBB2584652
:101F5000D2B2C9B2FFF744F81048CDF800A04B4602
:101F6000002221460068FFF70DF94246594609480C
:101F7000FEF76AF90A2002F057F9049BFF1A039B47
:101F8000F61A029BED1A059B013B0593C8D1A9E601
:101F9000800200209C020020B40A00207802002069
:101FA0009402002058020020700200201A274FF0EF
:101FB0001909DFF884A2B5FBF9F2B6FBF9F3D2B246
:101FC0009E480092DBB2002221460068FFF7DAF853
:101FD000424621465046FEF737F90A2002F024F91E
:101FE000039B013FA6EB0306029BA5EB0305E2D191
:101FF0000423934A1360152600271425DFF8448232
:10200000DFF83492002101910299039B7943049AED
:102010007B437A43B1FBF5F1B3FBF5F3B2FBF5F289
:10202000C9B20091D8F800002146DBB2D2B2FEF767
:10203000FFFA04F158031A46214648460893FEF772
:1020400003F90A2002F0F0F8013E07F10107D9D1A7
:10205000029BFA220193039B21460093D8F80000CB
:10206000049BFFF795FADDE902320BF19807584619
:1020700004990096FEF7B4FF3A4659466E48FEF7BB
:10208000E3F8029BFA220193039B21460093D8F8C0
:102090000000049BFFF77CFADDE902325846049900
:1020A0000096FEF79DFF3A4659466348FEF7CCF886
:1020B000029BFA220193039B21460093D8F800006B
:1020C000049BFFF765FADDE9023258460499009651
:1020D000FEF786FF3A4659465748FEF7B5F8FFF730
:1020E0004DFD049B05FB03F7039B05FB03F6029BD9
:1020F0005D43002864D01523A946CDE90667DFF8C3
:102100004881524E524F09934FF0190A079B396884
:10211000B3FBFAF3DBB20593069B0598B3FBFAF524
:10212000B9FBFAFA014401203368D8F80020EDB277
:102130005FFA8AFA53442A440090DBB25846D2B27E
:10214000C9B2FEF74DFF3A680599D8F800300A4445
:102150000021019131683B485144C9B200912B44A0
:1021600021460068DBB2D2B2FEF762FA3A680599FE
:10217000D8F800300A44316832488A445FFA8AF15C
:1021800000912B44DBB2A0210068D2B2FFF742F8E5
:10219000089A59462848FEF757F80A2002F044F8F2
:1021A000079B049A9B1A0793039A069B9B1A069314
:1021B000029BA9EB0309099B013B0993A4D191E57B
:1021C0004FF015094FF0140ADFF878B0B5FBFAF8B4
:1021D0000021B7FBFAF2B6FBFAF35FFA88F8CDE913
:1021E0000081D2B2DBB22146DBF80000CDE9052345
:1021F000FEF71EFADDE90523CDF80080A021DBF80B
:102200000000FFF707F82146089A0B48FEF71CF874
:102210000A2002F009F8049BB9F10109A7EB0307B2
:10222000039BA6EB0306029BA5EB0305CED101227F
:10223000034B1A6056E500BF9C0200207802002084
:10224000B40A002060020020700200205802002022
:102250009402002038B5044600200D4603F014F81F
:1022600098B9012003F010F878B9022003F00CF8B7
:1022700001280AD12368AB4227DB2060022003F04B
:1022800003F8012823D0012038BD002002F0FCFF14
:10229000012825D102F0F8FF10BB022002F0F4FF64
:1022A000F0B92368012BC8BF03F1FF35256000207A
:1022B00002F0EAFF0128E6D1022002F0E5FF002843
:1022C000E1D1052001F0B0FFF1E7581CD5E700206F
:1022D00002F0DAFF0028D6D1052001F0A5FFCDE7F6
:1022E0000020D1E7F0B44FF47A779DF81040124DFA
:1022F00007FB0344114B9DF8146003FB02440346A3
:1023000000220F4F2860994204DB47F82340012246
:102310000133F8E74C1C231AA042C8BF0023034432
:1023200002B12B602EB1F0BC0A4601460448FDF70D
:102330008BBFF0BC704700BF7C02002040420F0002
:102340009C0200202DE9F04F002598460123044609
:102350000E46174687B000F1FF092A464946049306
:10236000019300952B46FFF7BDFF32462146A74853
:102370003B46CDE90085FEF711FE4A462146A448BA
:10238000FDF762FF012002F07FFF012803D1052045
:1023900001F04AFFF6E700234FF0010A1A464946CA
:1023A0002046CDE9003AFFF79DFFDFF868B2049BB5
:1023B000013B042B0DD8DFE803F0030F171F2700A4
:1023C00000233246CDE9008321463B469248FEF782
:1023D000E5FD0123039339E000233246CDE9008374
:1023E00021463B468D48F2E700233246CDE9008383
:1023F00021463B468A48EAE700233246CDE900837E
:1024000021463B468748E2E70023324621465846AC
:10241000CDE900833B46FEF7C1FD012002F034FF09
:102420000128D6D1012002F02FFF012803D1052079
:1024300001F0FAFEF6E7002549462B462A462046DB
:10244000CDF804A00095FFF74DFF0395012002F0A1
:102450001BFF012840F025810590012002F014FFA8
:10246000012803D1052001F0DFFEF6E700234946ED
:102470001A462046CDF804A00093FFF733FF049BD3
:10248000013B042B00F23A81DFE813F005005F0006
:102490007F009F002801059B013B032B11D8DFE83B
:1024A00003F002424CDB00253B46324621465E48A3
:1024B000CDE90085FEF772FD012002F0E5FE01285E
:1024C00001D00125D7E02A464946CDE900502B46E8
:1024D0002046FFF707FF4A4621464D48FDF7B4FE68
:1024E000012002F0D1FE012803D1052001F09CFE5D
:1024F000F6E7012002F0C8FE18B9052001F094FEAD
:10250000F7E7002349461A462046CDF804A0009379
:10251000FFF7E8FE012002F0B7FE0128D1D1052027
:1025200001F082FEF6E700233246CDE90083214622
:102530003B463E48FEF732FDC3E700233246CDE975
:10254000008321463B463A48F4E7059B013B032BB9
:10255000B7D8DFE803F0020A128100233246CDE942
:10256000008321463B463348E4E700233246CDE969
:10257000008321463B463048DCE700233246CDE964
:10258000008321463B462D48D4E7059B013B032BA6
:1025900097D8DFE803F0020A126100233246CDE942
:1025A000008321463B462648C4E700233246CDE956
:1025B000008321463B462348BCE700233246CDE951
:1025C000008321463B462048B4E7059B013B032B93
:1025D0003FF677AFDFE803F0020A124000233246ED
:1025E000CDE9008321463B461848A3E70023324645
:1025F000CDE9008321463B4615489BE70023324640
:10260000CDE9008321463B46124893E724900A080F
:102610009C02002048900A082D900A0832900A086F
:102620003A900A0842900A084D900A0855900A0804
:1026300058900A0861900A086A900A0873900A087C
:102640007C900A0885900A088E900A0898900A08DB
:10265000A0900A08A9900A0800233246214658464D
:10266000CDE900833B46FEF799FC012002F00CFE09
:10267000451E18BF0125042105A8FFF7EBFD40B159
:10268000002349461A462046CDF804A00093FFF7E0
:1026900029FE4A4621461A48FDF7D6FD002D7FF453
:1026A000EEAE052104A8FFF7D5FD40B10023494651
:1026B0001A462046CDF804A00093FFF713FE4A46C1
:1026C00021460F48FDF7C0FD322001F0ADFD039B10
:1026D000002B7FF46CAE07B0BDE8F08F00233246CC
:1026E00021465846CDE900833B46FEF757FC0120C2
:1026F00002F0CAFD451E18BF0125CAE70125C8E73B
:102700009C020020000000002DE9F74F724BD3F827
:102710000090B9F1010F35D14FF002080E20C3F837
:10272000008002F0C4FDDFF8B4A16D4CDAF800308F
:102730006C4D98426C4F6D4E31DAFA23CAF8003076
:10274000236843450AD1002340F2FF111A46184678
:10275000CDE90033FFF7C6FDC4F8009000244FF028
:1027600001083C60C5F80080346002F0B7FD052028
:1027700001F0F4FA022808D1C7F800802C60012289
:102780005B4B1A6003B0BDE8F08F02F0A7FD052097
:1027900001F0E4FA0328F2D1C6F80080EEE72368DE
:1027A000012B0AD1002340F2FF111A461846CDE949
:1027B0000033FFF797FDC4F800800E2002F077FD8C
:1027C000122490FBF4F04B4B18604B4B0E201B78FF
:1027D000002B50D002F06BFD83460E2002F067FD07
:1027E00080460E2002F063FD90FBF4F028600E207E
:1027F00002F05DFD0546404603F0DCFB3F4903F077
:10280000E1FC02F093FF2CA3D3E9002302F030FE99
:10281000804695FBF4F0894602F076FF02460B46AF
:102820004046494602F0DAFF03F072FA38600E20A3
:1028300002F03DFD0546584603F0BCFB304903F06D
:10284000C1FC02F073FF1EA3D3E9002302F010FEC7
:10285000804695FBF4F0894602F056FF02460B468F
:102860004046494602F0BAFF03F052FA3C2330607A
:10287000CAF8003086E702F01AFD90FBF4F02860F9
:102880000E2002F014FD90FBF4F002F03DFF0EA3C9
:10289000D3E9002302F0A2FF03F03AFA38600E20D9
:1028A00002F005FD90FBF4F002F02EFF08A3D3E93F
:1028B0000023D7E7AFF30080CDCCCCCCCCCCE43F29
:1028C000333333333333D33FCDCCCCCCCCCCEC3FD0
:1028D0009A9999999999E93F980200205C02002001
:1028E0006C02002094020020700200205802002098
:1028F0006802002090020020B00A002000401C4620
:1029000000A0A9452DE9F341FFF7FEFE394B1F68F2
:10291000012F3ED1384E394D394C337800202A787A
:1029200021780097FEF75CFB40F2FF12002135484A
:10293000FDF78AFC0020FEF7C9FC334B0E201F6018
:1029400002F0B5FC314B1B68984228DB02F0C6FC54
:10295000022001F003FA012807D133780021009307
:10296000A0202B782278FFF747F9002002F08CFC9A
:1029700078B9012002F088FC01280AD1022002F077
:1029800083FC30B94FF4807033782A782178FFF7D0
:10299000D9FC642002B0BDE8F04101F045BC3378B9
:1029A000DFF86C802278D8F800000093A0212B7803
:1029B0000197FDF73DFE33782278D8F800000093A8
:1029C000A0212B78FEF726FC33781248009301975C
:1029D0002B78227840F201110068FEF78FFBFF226E
:1029E000A0210848FDF730FC4FF47A7001F01CFC80
:1029F000CFE700BF680200205802002070020020CC
:102A0000940200209C020020980200205C0200201A
:102A10006002002050020020F8B501250026114C6C
:102A2000114B124F1D700D2202234FF400712046EE
:102A300000F075F83A460E49204602F0BBFC0D4CFA
:102A40000D4B2846A360C4E9006601F0D9FA3A4666
:102A500020460A4902F0AEFC31462846BDE8F8405F
:102A600001F0DEBA9C0A002054020020400200203F
:102A7000812A0A08440200200000FFFF35020A08EC
:102A800010B50446C06808B101F09EFB23781BB165
:102A90000021E07902F0CEFB204610BD38B5044697
:102AA000C0680D4608B101F08FFBA379062B0CBF5F
:102AB00004200320684380B2A08001F07DFBE06029
:102AC00028B10021A28803F085FF658038BDA08071
:102AD0006080FBE710B504460121C07902F0AAFB33
:102AE0000021E07902F0B7FB0123237010BD38B557
:102AF000037805460C461BB10021C07902F09AFB11
:102B00002B78EC7153B1A4B22046012102F092FB64
:102B10002046BDE83840002102F09DBB38BD70B5AD
:102B20000025044616468371C0E9035505700572F9
:102B3000FFF7B4FF20463146FFF7D9FF204670BDAE
:102B4000C368002B00F04184F0B583790446023B52
:102B5000DBB2042B8CBF3225284A87B098BF52F8CD
:102B6000235001F0E3F82369C01AA842F9D372B6E2
:102B7000A388A579ADF80A30BDF80A30022DE168C6
:102B80009BB200F06E82072D00F06B82062D00F0E4
:102B90001D84052D00F0A183082D00F09E83002DDB
:102BA00040F04F85002B00F092834FF40006144A4A
:102BB0000496BDF80A300331033B9BB2ADF80A30EE
:102BC00011F8033CDBB28DF8073011F8023CDBB2A0
:102BD0008DF8063011F8013CDBB28DF808309DF815
:102BE00007009DF806301B0243EA00439DF80800E9
:102BF000034303938DF805501BE100BF00910A08C1
:102C0000B80A0020004600BF00BF00BF00BF00BFE1
:102C100000BF00BF00BF00BF00BF00BF00BF00BFBC
:102C200000BF00BF00BF00BF00BF00BF00BF00BFAC
:102C300000BF00BF00BF00BF00BF00BF00BF00BF9C
:102C400000BF00BF00BF00BF00BF00BF00BF00BF8C
:102C500000BF00BF00BF00BF00BF00BF00BF00BF7C
:102C600000BF00BF00BF00BF00BF00BF00BF00BF6C
:102C700000BF00BF00BF00BF00BF00BF00BF00BF5C
:102C800000BF00BF00BF00BF00BF00BF00BF00BF4C
:102C900000BF00BF00BF00BF00BF00BF00BF00BF3C
:102CA00000BF00BF00BF00BF00BF00BF00BF00BF2C
:102CB00000BF00BF00BF00BF00BF00BF00BF00BF1C
:102CC00000BF00BF00BF00BF00BF00BF00BF00BF0C
:102CD00000BF00BF00BF00BF00BF00BF00BF00BFFC
:102CE00000BF00BF00BF00BF00BF00BF00BF00BFEC
:102CF00000BF00BF00BF00BF00BF00BF00BF00BFDC
:102D000000BF00BF00BF00BF00BF00BFE379106875
:102D1000C3EBC30300EB830750F82330B888588314
:102D2000004600BF00BF00BF00BF00BF00BF00BF24
:102D300000BF00BF00BF00BF00BF00BF00BF00BF9B
:102D400000BF00BF00BF00BF00BF00BF00BF00BF8B
:102D500000BF00BF00BF00BF00BF00BF00BF00BF7B
:102D600000BF00BF00BF00BF00BF00BF00BF00BF6B
:102D700000BF00BF00BF00BF00BF00BF00BF00BF5B
:102D800000BF00BF00BF00BF00BF00BF00BF00BF4B
:102D900000BF00BF00BF00BF00BF00BF00BF00BF3B
:102DA00000BF00BF00BF00BF00BF00BF00BF00BF2B
:102DB00000BF00BF00BF00BF00BF00BF00BF00BF1B
:102DC00000BF00BF00BF00BF00BF00BF00BF00BF0B
:102DD00000BF00BF00BF00BF00BF00BF00BF00BFFB
:102DE00000BF00BF00BF00BF00BF00BF00BF00BFEB
:102DF00000BF00BF00BF00BF00BF00BF00BF00BFDB
:102E000000BF00BF00BF00BF00BF00BF00BF00BFCA
:102E100000BF00BF00BF00BF00BF049B5B0804935E
:102E20009DF805300133DBB2172B8DF8053000F229
:102E30002387E3791068C3EBC30300EB830750F8E3
:102E40002330B88818830398049B18427FF4DAAEC5
:102E5000004600BF00BF00BF00BF00BF00BF00BFF3
:102E600000BF00BF00BF00BF00BF00BF00BF00BF6A
:102E700000BF00BF00BF00BF00BF00BF00BF00BF5A
:102E800000BF00BF00BF00BF00BF00BF00BF00BF4A
:102E900000BF00BF00BF00BF00BF00BF00BF00BF3A
:102EA00000BFE3791068C3EBC30300EB830750F85E
:102EB0002330B8885883004600BF00BF00BF00BF62
:102EC00000BF00BF00BF00BF00BF00BF00BF00BF0A
:102ED00000BF00BF00BF00BF00BF00BF00BF00BFFA
:102EE00000BF00BF00BF00BF00BF00BF00BF00BFEA
:102EF00000BF00BF00BF00BF00BF00BF00BF00BFDA
:102F000000BF00BF00BF00BF00BF00BF00BF00BFC9
:102F100000BF00BF00BF00BF00BF00BF00BF00BFB9
:102F200000BF00BF00BF00BF00BF00BF00BF00BFA9
:102F300000BF00BF00BF00BF00BF00BF00BF00BF99
:102F400000BF00BF00BF00BF00BF00BF00BF00BF89
:102F500000BF00BF00BF00BF00BF00BF00BF00BF79
:102F600000BF00BF00BF00BF00BF00BF00BF00BF69
:102F700000BF00BF00BF00BF00BF00BF00BF00BF59
:102F800000BF00BF00BF00BF00BF00BF00BF00BF49
:102F900000BF00BF00BF00BF00BF00BF00BF00BF39
:102FA00000BF00BF00BF00BF00BF00BF00BF00BF29
:102FB00000BF00BF00BF00BF00BF00BF00BF00BF19
:102FC00000BF00BF00BF00BF00BF00BF00BF00BF09
:102FD00000BF00BF00BF00BF00BF00BF00BF00BFF9
:102FE00000BF00BF00BF00BF00BF00BF00BF00BFE9
:102FF00000BF00BF00BF00BF00BF00BF00BF00BFD9
:1030000000BF00BF00BF00BF00BF00BF00BF00BFC8
:1030100000BF00BF00BF00BF00BF00BF00BF00BFB8
:1030200000BF00BF00BF00BF00BF00BF00BF00BFA8
:1030300000BF00BF00BF00BF00BF00BF00BF00BF98
:1030400000BF00BF00BF00BF00BF00BF00BF00BF88
:1030500000BF00BF00BF00BF00BF00BF00BF00BF78
:10306000DBE6002B00F033814FF400054FF0000C3D
:10307000124A08460495BDF80A300331033B9BB25F
:10308000ADF80A3011F8033CDBB28DF8063011F8C8
:10309000023CDBB28DF807308378DBB28DF8083064
:1030A0009DF806609DF807309DF808001B0243EA72
:1030B0000643034303938DF805C07FE0B80A002060
:1030C000004600BF00BF00BF00BF00BF00BF00BF81
:1030D00000BF00BF00BF00BF00BF00BF00BF00BFF8
:1030E00000BF00BF00BF00BF00BF00BF00BF00BFE8
:1030F00000BF00BF00BF00BF00BF00BF00BF00BFD8
:1031000000BF00BF00BF00BF00BF00BF00BF00BFC7
:1031100000BF00BF00BF00BF00BF00BF00BF00BFB7
:1031200000BF00BF00BF00BF00BF00BF00BF00BFA7
:1031300000BF00BF00BF00BF00BF00BF00BF00BF97
:1031400000BF00BF00BF00BF00BF00BF00BF00BF87
:1031500000BF00BF00BF00BF00BFE3791068C3EB32
:10316000C30300EB830650F82330B0885883004631
:1031700000BF00BF00BF00BF00BF00BF00BF00BF57
:1031800000BF00BF00BF00BF00BF00BF00BF00BF47
:1031900000BF00BF00BF00BF00BF00BF00BF00BF37
:1031A00000BF00BF049B5B0804939DF8053001330A
:1031B000DBB2172B8DF8053000F28380E3791068BD
:1031C000C3EBC30300EB830650F82330B0881883A9
:1031D0000398049B18427FF473AF004600BF00BF02
:1031E00000BF00BF00BF00BF00BF00BF00BF00BFE7
:1031F00000BF00BF00BF00BF00BF00BF00BF00BFD7
:1032000000BFE3791068C3EBC30300EB830650F8FB
:103210002330B0885883004600BF00BF00BF00BF06
:1032200000BF00BF00BF00BF00BF00BF00BF00BFA6
:1032300000BF00BF00BF00BF00BF00BF00BF00BF96
:1032400000BF00BF00BF00BF00BF00BF00BF00BF86
:1032500000BF00BF00BF00BF00BF00BF00BF00BF76
:1032600000BF00BF00BF00BF00BF00BF00BF00BF66
:1032700000BF00BF00BF00BF00BF00BF00BF00BF56
:1032800000BF00BF00BF00BF00BF00BF00BF00BF46
:1032900000BF00BF00BF00BF00BF00BF00BF00BF36
:1032A00000BF00BF00BF00BF00BF00BF00BF00BF26
:1032B00000BF00BF00BF00BF00BF00BF00BF00BF16
:1032C00070E7BDF80A309BB2002B7FF4D2AE62B635
:1032D00000F02CFD206107B0F0BD002BF7D04FF4BB
:1032E00000054FF0000C544B1868544B0495BDF882
:1032F0000A200331033A92B2ADF80A2011F8032CE8
:10330000D2B28DF8062011F8022CD2B28DF8072027
:1033100011F8012CD2B28DF808209DF806609DF8B6
:103320000720120242EA06429DF8086032430392E7
:103330008DF805C0E2795F68C2EBC20200EB82063D
:10334000B68850F8222005971683039E049A1642E9
:1033500025D05A68059E921B4F2AFAD9E279C2EB12
:10336000C20200EB8206B68850F8222056835A68C3
:1033700005925A68059E921B072AFAD9049A5208A8
:1033800004929DF805200132D2B2172A8DF805204B
:10339000D0D9BDF80A2092B2002AA7D197E75A687F
:1033A000059E921B182AFAD9E279C2EBC20200EB01
:1033B0008206B68850F8222056835A6805925A68C9
:1033C000059E921B452AFAD9D8E77047002B3FF497
:1033D0007EAF4FF000450026174A0495BDF80A302D
:1033E0000431043B9BB2ADF80A3011F8043CDBB267
:1033F0008DF8073011F8033CDBB28DF8063011F878
:10340000023CDBB28DF8083011F8013CDBB28DF8DC
:1034100009309DF807009DF806301B0443EA00635D
:103420009DF808009DF809703B4343EA002303938D
:103430008DF805607FE000BFB80A0020001000E0B2
:10344000004600BF00BF00BF00BF00BF00BF00BFFD
:1034500000BF00BF00BF00BF00BF00BF00BF00BF74
:1034600000BF00BF00BF00BF00BF00BF00BF00BF64
:1034700000BF00BF00BF00BF00BF00BF00BF00BF54
:1034800000BF00BF00BF00BF00BF00BF00BF00BF44
:1034900000BF00BF00BF00BF00BF00BF00BF00BF34
:1034A00000BF00BF00BF00BF00BF00BF00BFE37987
:1034B0001068C3EBC30300EB830750F82330B888D0
:1034C0005883004600BF00BF00BF00BF00BF00BF61
:1034D00000BF00BF00BF00BF00BF00BF00BF00BFF4
:1034E00000BF00BF00BF00BF00BF00BF00BF00BFE4
:1034F00000BF00BF00BF00BF00BF00BF00BF00BFD4
:1035000000BF00BF00BF00BF00BF00BF00BF00BFC3
:1035100000BF00BF00BF00BF00BF00BF00BF00BFB3
:10352000049B5B0804939DF805300133DBB21F2B2D
:103530008DF805307ED8E3791068C3EBC30300EB48
:10354000830750F82330B88818830398049B1842E7
:103550007FF476AF004600BF00BF00BF00BF00BFD2
:1035600000BF00BF00BF00BF00BF00BF00BF00BF63
:1035700000BF00BF00BF00BF00BF00BFE3791068FD
:10358000C3EBC30300EB830750F82330B88858839C
:10359000004600BF00BF00BF00BF00BF00BF00BFAC
:1035A00000BF00BF00BF00BF00BF00BF00BF00BF23
:1035B00000BF00BF00BF00BF00BF00BF00BF00BF13
:1035C00000BF00BF00BF00BF00BF00BF00BF00BF03
:1035D00000BF00BF00BF00BF00BF00BF00BF00BFF3
:1035E00000BF00BF00BF00BF00BF00BF00BF00BFE3
:1035F00000BF00BF00BF00BF00BF00BF00BF00BFD3
:1036000000BF00BF00BF00BF00BF00BF00BF00BFC2
:1036100000BF00BF00BF00BF00BF00BF00BF00BFB2
:1036200000BF00BF00BF00BF00BF00BF00BF00BFA2
:1036300000BF75E7BDF80A309BB2002B7FF4CDAE1A
:1036400045E6032D00F02881002B3FF440AE4FF4F7
:1036500000050026164A0495BDF80A30E079033BC0
:103660009BB2ADF80A300B781768DBB28DF80730E3
:103670004B78C0EBC000DBB28DF808308B7803319B
:10368000DBB28DF806309DF807C09DF808301B02AC
:1036900043EA0C439DF806C043EA0C0307EB800C99
:1036A000039357F820308DF80560BCF804007AE0E9
:1036B000B80A0020049B5B080493004600BF00BFCB
:1036C00000BF00BF00BF00BF00BF00BF00BF00BF02
:1036D00000BF00BF00BF00BF00BF00BF00BF00BFF2
:1036E00000BF00BF00BF00BF00BF00BF00BF00BFE2
:1036F00000BF00BF00BF00BF00BF00BF00BF00BFD2
:1037000000BF00BF00BF00BF00BF00BF00BF00BFC1
:1037100000BF00BF00BF00BF00BF00BF00BF00BFB1
:1037200000BF00BF00BF00BF00BF00BF00BF00BFA1
:1037300000BF00BF00BF00BF00BF00BF00BF00BF91
:10374000E07917689DF80530C0EBC00007EB800CEE
:10375000013357F82000BCF80470DBB28DF8053057
:103760000783004600BF00BF00BF00BF00BF00BF0F
:1037700000BF00BF00BF00BF00BF00BF00BF00BF51
:1037800000BF00BF00BF00BF00BF00BF9DF80530F5
:10379000182B7AD0E3791068C3EBC30300EB8307DF
:1037A00050F82330B88858830398049B184281D17D
:1037B000004600BF00BF00BF00BF00BF00BF00BF8A
:1037C00000BF00BF00BF00BF00BF00BF00BF00BF01
:1037D00000BFE3791068C3EBC30300EB830750F825
:1037E0002330B88818839DF805300133DBB28DF89B
:1037F0000530049B5B080493004600BF00BF00BF78
:1038000000BF00BF00BF00BF00BF00BF00BF00BFC0
:1038100000BF00BF00BF00BF00BF00BF00BF00BFB0
:1038200000BF00BF00BF00BF00BF00BF00BF00BFA0
:1038300000BF00BF00BF00BF00BF00BF00BF00BF90
:1038400000BF00BF00BF00BF00BF00BF00BF00BF80
:1038500000BF00BF00BF00BF00BF00BF00BF00BF70
:1038600000BF00BF00BF00BF00BF00BF00BF00BF60
:1038700000BF00BF00BF00BF00BF00BF00BF00BF50
:1038800000BF9DF80530182B84D1BDF80A309BB2DB
:10389000002B7FF4E0AE1AE5002B3FF418AD4FF497
:1038A00000050026124A0495BDF80A300331033B97
:1038B0009BB2ADF80A3011F8033CDBB28DF807304B
:1038C00011F8023CDBB28DF8063011F8013CDBB296
:1038D0008DF808309DF807009DF806301B0243EA7A
:1038E00000439DF80800034303938DF80560E0E072
:1038F000B80A0020004600BF00BF00BF00BF00BFE5
:1039000000BF00BF00BF00BF00BF00BF00BF00BFBF
:1039100000BF00BF00BF00BF00BF00BF00BF00BFAF
:1039200000BF00BF00BF00BF00BF00BF00BF00BF9F
:1039300000BF00BF00BF00BF00BF00BF00BF00BF8F
:1039400000BF00BF00BF00BF00BF00BF00BF00BF7F
:1039500000BF00BF00BF00BF00BF00BF00BF00BF6F
:1039600000BF00BF00BF00BF00BF00BF00BF00BF5F
:1039700000BF00BF00BF00BF00BF00BF00BF00BF4F
:1039800000BF00BF00BF00BF00BF00BF00BF00BF3F
:1039900000BF00BF00BF00BF00BF00BF00BF00BF2F
:1039A00000BF00BF00BF00BF00BF00BF00BF00BF1F
:1039B00000BF00BF00BF00BF00BF00BF00BF00BF0F
:1039C00000BF00BF00BF00BF00BF00BF00BF00BFFF
:1039D00000BF00BF00BF00BF00BF00BF00BF00BFEF
:1039E00000BF00BF00BF00BF00BF00BF00BF00BFDF
:1039F00000BF00BF00BF00BF00BF00BF00BF00BFCF
:103A000000BF00BF00BF00BF00BF00BF00BF00BFBE
:103A100000BF00BF00BFE3791068C3EBC30300EB36
:103A2000830750F82330B8885883004600BF00BF92
:103A300000BF00BF00BF00BF00BF00BF00BF00BF8E
:103A400000BF00BF00BF00BF00BF00BF00BF00BF7E
:103A500000BF00BF00BF00BF00BF00BF00BF00BF6E
:103A600000BF00BF00BF00BF00BF00BF00BF00BF5E
:103A700000BF00BF00BF00BF00BF00BF00BF00BF4E
:103A800000BF00BF00BF00BF00BF00BF00BF00BF3E
:103A900000BF00BF00BF00BF00BF049B5B080493D2
:103AA0009DF805300133DBB2172B8DF8053000F29D
:103AB000EB80E3791068C3EBC30300EB830750F896
:103AC0002330B88818830398049B18427FF412AF00
:103AD000004600BF00BF00BF00BF00BF00BF00BF67
:103AE00000BF00BF00BF00BF00BF00BF00BF00BFDE
:103AF00000BF00BF00BF00BF00BF00BF00BF00BFCE
:103B000000BF00BF00BF00BF00BF00BF00BF00BFBD
:103B100000BF00BF00BF00BF00BF00BF00BF00BFAD
:103B200000BF00BF00BF00BF00BF00BF00BF00BF9D
:103B300000BF00BF00BF00BF00BF00BF00BF00BF8D
:103B400000BF00BF00BF00BF00BF00BF00BF00BF7D
:103B500000BFE3791068C3EBC30300EB830750F8A1
:103B60002330B8885883004600BF00BF00BF00BFA5
:103B700000BF00BF00BF00BF00BF00BF00BF00BF4D
:103B800000BF00BF00BF00BF00BF00BF00BF00BF3D
:103B900000BF00BF00BF00BF00BF00BF00BF00BF2D
:103BA00000BF00BF00BF00BF00BF00BF00BF00BF1D
:103BB00000BF00BF00BF00BF00BF00BF00BF00BF0D
:103BC00000BF00BF00BF00BF00BF00BF00BF00BFFD
:103BD00000BF00BF00BF00BF00BF00BF00BF00BFED
:103BE00000BF00BF00BF00BF00BF00BF00BF00BFDD
:103BF00000BF00BF00BF00BF00BF00BF00BF00BFCD
:103C000000BF00BF00BF00BF00BF00BF00BF00BFBC
:103C100000BF00BF00BF00BF00BF00BF00BF00BFAC
:103C200000BF00BF00BF00BF00BF00BF00BF00BF9C
:103C300000BF00BF00BF00BF00BF00BF00BF00BF8C
:103C400000BF00BF00BF00BF00BF00BF00BF00BF7C
:103C500000BF00BF00BF00BF00BF00BF00BF00BF6C
:103C600000BF00BF00BF00BF00BF00BF00BF00BF5C
:103C700000BF00BF00BF10E7BDF80A309BB2002BA9
:103C80007EF496AFFFF723BBBDF80A309BB2002B42
:103C90007FF409AEFFF71BBB70B544889DF8105048
:103CA0008C421FD9047A2CB1624363436C43120ADD
:103CB0001B0A250AC668807901EB41010238741895
:103CC000062810D8DFE800F0040F08040F040400F1
:103CD00073546270A57005E0FE2A28BFFE2272545C
:103CE0006570A37070BD72546370F3E708B500F09F
:103CF0005DF8014B186008BDB80A002008B5024BFA
:103D00001B685B6C019308BDD001060808B5024B27
:103D10001B689B6C019308BDD001060808B5024BD7
:103D20001B685B68019308BD9C01060808B5024B3F
:103D30001B681B69019308BD9C01060808B5024B6E
:103D40001B685B69019308BD9C01060808B5024B1E
:103D50001B689B6A019308BD9C01060808B5024BCD
:103D60001B68DB6A019308BD9C01060808B5024B7D
:103D70001B681B6B019308BD9C01060808B5024B2C
:103D80001B689B6D019308BD9C01060808B5024B9A
:103D90001B68DB6D019308BD9C01060808B5024B4A
:103DA0001B685B6E019308BD9C01060808B5024BB9
:103DB0001B681B68019308BDB001060808B5024BDB
:103DC0001B685B68019308BDB001060808B5024B8B
:103DD0001B689B68019308BDB001060808B5024B3B
:103DE0001B68DB68019308BDB001060808B5024BEB
:103DF0001B681B69019308BDB001060808B5024B9A
:103E00001B685B69019308BDB001060808B5024B49
:103E10001B681B6B019308BDB001060808B5024B77
:103E20001B681B6E019308BDAC01060808B5024B68
:103E30001B685B6E019308BDAC01060808B5024B18
:103E40001B689B6E019308BDAC01060808B5024BC8
:103E50001B68DB6E019308BDAC01060808B5024B78
:103E60001B681B6F019308BDAC01060808B5024B27
:103E70001B685B6F019308BDAC01060808B5034BD6
:103E80001B68D3F88030019308BD0000AC01060820
:103E900008B5024B1B68DB69019308BDB401060835
:103EA00008B5024B1B681B6A019308BDB4010608E4
:103EB00008B5024B1B689B69019308BDC401060845
:103EC00008B5024B1B685B6A019308BDC401060874
:103ED00008B5024B1B689B6A019308BDC401060824
:103EE00008B5024B1B68DB6A019308BDC4010608D4
:103EF00008B5024B1B681B6B019308BDC401060883
:103F000008B5024B1B685B6B019308BDC401060832
:103F100008B5024B1B689B6B019308BDC4010608E2
:103F200008B5024B1B681B6C019308BDC401060851
:103F300008B5024B1B681B68019308BDD801060831
:103F400008B5024B1B681B69019308BDD801060820
:103F500008B5024B1B685B69019308BDD8010608D0
:103F600008B5024B1B689B69019308BDD801060880
:103F700008B5024B1B68DB69019308BDD801060830
:103F800008B5024B1B681B6A019308BDD8010608DF
:103F900008B5024B1B689B6C019308BDC001060865
:103FA00008B5024B1B685B68019308BDA8010208B5
:103FB00008B5024B1B689B68019308BDA801020865
:103FC00008B5024B1B68DB68019308BDA801020815
:103FD00008B5024B1B689B69019308BDA801020844
:103FE00008B5024B1B68DB69019308BDA8010208F4
:103FF00008B5024B1B681B68019308BDA4010608A5
:1040000008B5024B1B685B68019308BDA401060854
:1040100008B5024B1B685B69019308BDA401060843
:1040200008B5024B1B68DB6A019308BDA4010608B2
:1040300008B5024B1B68DB6C019308BDA4010608A0
:1040400008B5024B1B685B6D019308BDA40106080F
:1040500008B5024B1B689B6D019308BDA4010608BF
:1040600008B5034B1B68D3F89030019308BD0000DE
:10407000A401060808B5034B1B68D3F89C300193D4
:1040800008BD0000A401060808B5024B1B681B68A8
:10409000019308BDCC01060808B5024B1B689B685C
:1040A000019308BDCC01060808B5024B1B685B698B
:1040B000019308BDCC01060808B5024B1B681B6ABA
:1040C000019308BDCC01060808B5024B1B685B6A6A
:1040D000019308BDCC01060808B5024B1B681B6B99
:1040E000019308BDCC01060808B5024B1B68DB6BC9
:1040F000019308BDCC01060808B5024B1B685B683C
:10410000019308BDC801060808B5024B1B689B68EF
:10411000019308BDC801060808B5024B1B68DB689F
:10412000019308BDC801060808B5024B1B681B694E
:10413000019308BDC801060808B5024B1B685B69FE
:10414000019308BDC801060808B5024B1B689B69AE
:10415000019308BDC801060808B5024B1B68DB695E
:10416000019308BDC801060808B5024B1B681B6A0D
:10417000019308BDC801060808B5024B1B681B6BFC
:10418000019308BDC801060808B5024B1B685B6BAC
:10419000019308BDC801060808B5024B1B681B6CDB
:1041A000019308BDC801060808B5024B1B685B6C8B
:1041B000019308BDC801060808B5024B1B681B68BF
:1041C000019308BDA001060808B5024B1B685B6897
:1041D000019308BDA001060808B5024B1B689B6946
:1041E000019308BDA001060808B5024B1B68DB6AF5
:1041F000019308BDA001060808B5024B1B681B6BA4
:10420000019308BDA001060808B5024B1B681B6C92
:10421000019308BDA001060808B5024B1B685B6C42
:10422000019308BDA00106080021FFF7F1BE10B5FB
:10423000836804460BB901F0C6F8C3689847A368C1
:104240001BB103222146204698472046BDE8104076
:10425000102101F0B4B870470020704710B5044633
:10426000102101F0ACF8204610BD08B5FFF7F6FFAD
:1042700008BD10B58368044613B103220146984770
:10428000204610BD002230B54FF69C740260848039
:104290008D888C800C68858004600A6030BD10B504
:1042A00004460068FFF790FF204610BD38B5C4688B
:1042B000F4B12378022B03D104F10C00FFF7EFFFD8
:1042C000656835B12846FFF7D4FF1021284601F074
:1042D00076F8A56835B12846FFF7CBFF10212846B0
:1042E00001F06DF82046BDE83840142101F067B8B0
:1042F00038BD38B5046805467CB16368013B63602E
:104300005BB9236820469B689847A368013BA3607C
:104310001BB923682046DB689847284638BD0B68E0
:1043200003604B68436013B15A6801325A607047AA
:1043300037B5044668460D46FFF7F1FF009B019A2A
:1043400023600023626001A801930093FFF7D1FF6F
:1043500035B1281DFFF7CDFF0821284601F02FF8C1
:10436000204603B030BD13B56C460B46024603C869
:1043700084E8030093E8030082E8030094E8030064
:1043800083E8030002B010BD826810B50AB901F0DD
:104390001AF8C368BDE81040184708B5006800F176
:1043A0001001FFF7F1FF08BD826810B50AB901F0EE
:1043B0000AF8C368BDE81040184708B5006800F166
:1043C0001001FFF7F1FF08BD38B500230446036074
:1043D00010200D46FBF761FE28B10123C0E901332F
:1043E000024BC56003602060204638BD1C910A085E
:1043F00038B5002383608B6804460D462BB102223A
:104400009847EB68E360AB68A360204638BD0000C6
:10441000F0B589B004686846FFF734FF4FF0020337
:10442000D4E84F2F002A03D1C4E8413F0029F7D137
:1044300025D104F10C0569462846FFF723FF012327
:10444000BFF35B8F63700020BFF35B8F04F1080341
:1044500053E8006F43E80002002AF9D1BFF35B8FF5
:104460006EB1FFF7E5FD78B129463046FFF78CFFC6
:104470003046FFF7FEFE1021304600F0A0FF6846F0
:10448000FFF70DFF09B0F0BD314602A8FFF7B0FFFE
:10449000E068B4F9105008B102F0E4FA0690102078
:1044A000ADF81C50FBF7F9FD0546E8B10027876021
:1044B0001820FBF7F2FD044688B10146876002A888
:1044C000FFF751FF049BA268A360059B0492E2687A
:1044D00006A9E36004F110000592FFF7D3FE084B34
:1044E0002C60EB60074BAB6006A8FFF7D8FE02A874
:1044F000FFF7BFFE002229460348FFF7A1FDB7E7FB
:104500009B430A0825460A082F420A082DE9F0476E
:104510008AB005460C46174698469DF84890FFF726
:10452000C3FD07AE824638BB4FF62E73059005A932
:104530003046ADF81830FFF7A5FE1420FBF7ADFDAF
:10454000044648B1022303700123C0E901AA437065
:1045500031460C30FFF796FE2846214640F8044BC2
:10456000FFF732FF3046FFF79AFE05A8FFF797FEE8
:1045700028460AB0BDE8F0870C234FF0000A14204B
:10458000CDE908AA0793FBF788FD014628B1C0E9E9
:1045900001AA80F800A080F801A004A80391FFF709
:1045A00013FF1F4B08200893FBF777FD824610B1DD
:1045B00003A9FFF7B4FE42463946204600965FFA4B
:1045C00089F3CDF824A0FFF777FDB8B9039B5B789A
:1045D00003F0FF0293B94FF69C7305A903A8059257
:1045E000ADF81830FFF714FF05A8FFF758FE05A82F
:1045F0000999FFF79DFE06A8FFF77BFE03A905A812
:10460000FFF78DFE059B069A2B6000236A6006A8C3
:1046100006930593FFF76DFE04A8FFF76AFEA7E770
:10462000A1460A08012AF8B5054603D10B680360C4
:104630000020F8BD022A10D0032AF9D10468002C0A
:10464000F6D004F11000FFF72AFE2046FFF711FE16
:104650001821204600F0B3FEEAE718200E68FBF7A9
:104660001CFD044650B13146FFF7C2FE3069B6F971
:10467000147008B102F0F6F92061A7822C60D7E728
:1046800038B5002383608B6804460D462BB10222A7
:104690009847EB68E360AB68A360204638BD000034
:1046A000F0B5044689B00D4601A81146FFF740FE5B
:1046B000A4B124B21DB1284602F0D4F9054601A8E0
:1046C00003A90395ADF81040FFF7A2FE03A8FFF77A
:1046D000E6FD02A8FFF70DFE09B0F0BD0123019D24
:1046E000D5E84F2F002A03D1C5E8413F0029F7D173
:1046F000EFD12B73BFF35B8F6B70BFF35B8F2B1D01
:1047000053E8006F43E80042002AF9D1BFF35B8F02
:10471000002EDED02046FFF78BFC074660B1304606
:1047200005F10C01FFF740FE3046FFF7A2FD102116
:10473000304600F044FECCE7314603A8FFF7A0FF67
:104740002B7B10208DF81C30FBF7A7FC0546D0B161
:1047500087601420FBF7A1FC044678B1014687600E
:1047600003A8FFF700FE059BA268A360069B0592C5
:10477000E268E3609DF81C3006922374064B2C60BF
:10478000EB60064BAB6003A8FFF773FD00222946E0
:104790000348FFF755FCC7E7BB430A08A5470A08CB
:1047A0002F420A08012A70B5044603D10B68036042
:1047B000002070BD022A0CD0032AF9D10468002C15
:1047C000F6D02046FFF755FD1421204600F0F7FDF6
:1047D000EEE714200E68FBF760FC054620B1314679
:1047E000FFF74EFF337C2B742560E1E77047F8B587
:1047F000064615460C468F18BC4206D03368304634
:104800009B6814F8011B9847F6E72846F8BD00227C
:10481000007CFFF703BB0021007CFFF707BB0021F2
:10482000007CFFF70BBB0021007CFFF70FBB0021D2
:10483000007CFFF713BB10B50446142100F0BFFD48
:10484000204610BD10B54FF47A7304460846002187
:10485000C4E90113034B114623602074FFF70EFBDC
:10486000204610BD38910A087047F8B50E4600245E
:1048700000F10807051D17F8011D0A22304600F057
:10488000F6F8AF42044401D12046F8BD002CF2D026
:104890002E21304600F0E8F80444ECE710B5044659
:1048A000182100F08CFD204610BD000010B5044614
:1048B000044B1122002140F8043B02F08BF8204603
:1048C00010BD00BF60910A080346074A10B543F8BF
:1048D000042B01F1100251F8044B914243F8044BB0
:1048E000F9D10A781A7010BD60910A08024AC0E92D
:1048F000002104220275704760910A0810B59DF8E6
:10490000084044EA0324042344EA024444EA0164DC
:104910004460037510BD000013B5044C04609DF89D
:1049200010400094FFF7EAFF02B010BD60910A0842
:10493000014B024A1A607047BC0A00206C910A08B9
:10494000002340681A46FFF7D7BB002202214068C7
:10495000FFF7E2BB002240681146FFF7D5BB0022FB
:1049600040681146FFF7E0BB002340681A4619462D
:10497000FFF7E2BB002340681A461946FFF7E4BB85
:1049800000214068FFF708BC00214068FFF70CBC1D
:104990000022406881F00101FFF7DEBB0022406881
:1049A000FFF7EABB002240681146FFF7EDBB00228B
:1049B00040681146FFF7D8BB70B515468EB0044667
:1049C00008A8FFF773FF1122002103A802F002F8E4
:1049D0000026284602F061F80A4B009681B25B6817
:1049E000284603AAFFF7D4FA30B131462046FFF734
:1049F0007DFF20460EB070BD204603A9FFF764FF7F
:104A0000F7E700BF7C0F0020024B034A1A60002228
:104A10005A607047C00A002078910A08F8B5064627
:104A20000D4600248F18BD420CD0336830469B6879
:104A300015F8011B9847031E01DB1C44F3E7002C0B
:104A400008BF1C462046F8BD70B505460C46084612
:104A500049B102F022F82B68024621462846BDE8FB
:104A60007040DB68184770BD03689B6818470023D7
:104A7000012A98BF0A2230B58BB00C468DF824303D
:104A800009A92546B4FBF2F404FB1253DBB2092B4F
:104A900094BF30333733DBB2AA4201F8013DF0D97D
:104AA000FFF7D2FF0BB030BD10B50446FFF7E1FBB6
:104AB000204610BD10B50446FFF78AFA844208D09C
:104AC0001CB1BDE81040FFF773BABDE81040FFF716
:104AD00077BA10BD70B505460E461446FFF778FA52
:104AE00050B144EA062444EA0540FFF759FABDE80C
:104AF0007040E720FFF774BA70BD00000023034840
:104B0000034A0449836000F055BC00BFC80A002076
:104B100040020020A94A0A0870B5002604460D4646
:104B200040F8086FFFF7EAF828462570FFF7B0F95C
:104B30002046666070BD00000222002010B5084BC0
:104B4000084C1A60084BC4E90000A360FFF758FA4C
:104B50002046BDE81040054A054900F02BBC00BFC7
:104B6000E40A0020D80A00200000FFFF40020020D5
:104B700035020A082DE9F041154BDFF85880D3E9DA
:104B80000067154B801947EB0107D3E900618619CF
:104B900047EB0107D8E90023BB4208BFB2428CB003
:104BA00013D003A96846CDE9006701F013FE089B06
:104BB0000A4D03F26C7303AC08930FCC0FC50FCCF6
:104BC0000FC5C8E9006723682B600CB0BDE8F08111
:104BD000180B0020200B0020100B0020EC0A0020F6
:104BE00008B50020FFF778FA28B1FFF75DFA80F0EA
:104BF0000100C0B208BD0120FCE7000008B5FFF7C6
:104C0000B9FF044B986818B10C2800DD0C3808BDBA
:104C10000C20FCE7EC0A002010B50A49044601F01C
:104C2000BBFB68B92046084901F0D4FB40B90749ED
:104C3000204601F013FA01F0FDFB054BC3E900012A
:104C400010BD00BF000040C1000060410000614590
:104C5000180B002010B50020FFF790F80446A0B90B
:104C6000FFF7C6F9012810D12046FFF7F1F960B926
:104C7000FFF7B6FF10B9FFF70FFAF9E7FFF7B0FF3C
:104C8000BDE810400020FFF779B8204610BD1FB5E1
:104C9000FFF7E0FF10220021684601F09BFE002193
:104CA0006846FFF77BF8009805B05DF804FB08B58F
:104CB000FFF7EDFFBDE80840C117FFF79FBF0000F9
:104CC00008B5FFF7E4FFC117FFF754FF014B586821
:104CD00008BD00BFEC0A0020024B1A68024B1A60A4
:104CE000704700BF00000020E80A002070474174B0
:104CF000704708B5007CFFF713F920EAE07008BDA3
:104D000008B5007CFFF7E4F820EAE07008BD08B5BC
:104D1000007CFFF7EDF840EAE07008BD08B5007CC4
:104D2000FFF7DEF840EAE07008BD007CFFF7E8B866
:104D300070B5467C04460D462EB12946207CBDE860
:104D40007040FFF7BDB8007CFFF7EAF80028F4DCFC
:104D5000304670BD10B50446142100F030FB2046EB
:104D600010BD00004FF0000C10B504460846114677
:104D70004FF47A72C4E901C2044A2074226001220D
:104D800062741A46FFF794F8204610BDD0910A08C5
:104D900038B50D4D2978BFF35B8F11F0010411D1A7
:104DA0002846FBF780F968B12146084A084B0948B4
:104DB000FFF7D8FF2846FBF77BF9074A0749054864
:104DC00000F0F8FA034838BD280B00202C0B002017
:104DD000B00B0020340C002040020020ED4C0A08EB
:104DE00041747047704708B50021007CFFF7B8F8A0
:104DF00040EAE07008BD08B50121007CFFF7B0F87B
:104E000040EAE07008BD08B5007CFFF7A1F820EA91
:104E1000E07008BD08B5007CFFF792F820EAE0706A
:104E200008BD38B50446007C0D46FFF791F8002810
:104E300001DC607C28B12946207CFFF799F820EA44
:104E4000E07038BD007CFFF79BB810B50446142114
:104E500000F0B5FA204610BD10B54FF47A73044641
:104E600008460021C4E90113044B20742360012388
:104E700011466374FFF75CF8204610BD00920A08E3
:104E800010B504461422002101F0A4FD054B204674
:104E90006360054BE36040F2011323818123238289
:104EA00010BD00BF780C0020790D002030B50F4DEB
:104EB00087B001A8FFF7E4FF2978BFF35B8F11F0FB
:104EC000010410D12846FBF7EEF860B1214601AA93
:104ED0000748FFF7C1FF2846FBF7EAF8054A0649ED
:104EE000034800F067FA024807B030BD480C0020C4
:104EF000500C002040020020E54D0A0810B5044681
:104F00001422002101F066FD054B20466360054B2D
:104F1000E36040F2011323818123238210BD00BF8F
:104F2000FA0D0020FB0E002010B50F4C86B001A832
:104F3000FFF7E4FF2378BFF35B8FDB0710D4204635
:104F4000FBF7B1F860B1012101AA0848FFF784FF1F
:104F50002046FBF7ADF8064A0649044800F02AFA55
:104F6000024806B010BD00BF4C0C0020640C0020AD
:104F700040020020E54D0A08002240681146FFF774
:104F8000D3B8F0B5154689B011220E46044600216B
:104F900003A801F01FFD284601F07FFD002781B224
:104FA00073682846009703AAFEF7F2FF30B139462E
:104FB0002046FFF79BFC204609B0F0BD204603A920
:104FC000FFF782FCF7E7002240681146FFF7CCB8F4
:104FD000002240681146FFF7D7B800224068FFF76B
:104FE000CBB80022406881F00101FFF7B5B800237B
:104FF00040681A461946FFF7A7B8002340681A46CA
:105000001946FFF799B8002240681146FFF77CB8AF
:10501000002202214068FFF77FB8002340681A464B
:10502000FFF76AB80422024B5A60024A1A607047BE
:105030007C0F002030920A08014B1860704700BFB7
:105040000400002008B5134B43B1FFF72FFF03689E
:105050001B699847002801DDAFF300800E4B43B178
:10506000FFF796FE03681B699847002801DDAFF340
:1050700000800A4B0BB1AFF30080094B43B1FFF73F
:1050800053FF03681B699847002801DDAFF30080D8
:1050900008BD00BF0000000000000000000000008C
:1050A0000000000008B5FFF7CDFFFEF747FE014BFB
:1050B000186008BD9C0F00200548064A08B5121A62
:1050C000054901F079FC054B054A1A6008BD00BF8F
:1050D0000040024004400240E8960A0800400240B6
:1050E0001E1C279A002307B51A466FF0770100931C
:1050F000FEF7C0FF03B05DF804FB000007B543886E
:105100000A2B08D0502B0BD1094B1B684BB103B0B5
:105110005DF804EB1847FFF7E5FF03B05DF804FB0B
:1051200000231A466FF077010093FEF7A3FFF4E720
:10513000880F0020002110B51148FFF76DF8114BC2
:105140001A68114B9A420CBF012200220F4B1A70B1
:1051500001D0FFF7B1FFFEF7E1FD044601F042FC8C
:105160000B4B13B12046AFF3008000210848FEF737
:10517000BBFFBDE8104000210648FEF771BF00BF2D
:1051800039500A08004002401E1C279A840F002054
:1051900000000000FD500A0810B50446806808B100
:1051A000FEF7B4FD204610BD172870B5044601D99E
:1051B000002070BDA0F10D03022B0BD9012826D8C9
:1051C00000F0B8F80021007CFEF750FE80F00100EE
:1051D000C0B2EEE7134E3178BFF35B8F11F00105DB
:1051E0000FD13046FAF75FFF58B129460E48FFF756
:1051F00093FC3046FAF75CFF0C4A0D490A4800F070
:10520000D9F8094B1878FEF74BFE0028D0D1123C94
:10521000012C05D8FFF7BCFD007CFEF779FED5E731
:105220000120C6E78C0F0020900F002040020020D4
:1052300099510A08172838B504460D460AD8FF299F
:1052400008D0FFF7B1FF28B129462046BDE8384015
:10525000FEF7BCBD38BD38B504460D46FEF7BEFDB1
:10526000FF2810D0062804D84D2323FA00F0C307E6
:1052700009D42046FFF798FF28B129462046BDE80B
:105280003840FEF7B3BD38BD10B50446FEF7A6FDA5
:10529000031FDBB2012B08D92046FFF785FF20B1A1
:1052A0002046BDE81040FEF7A9BD002010BD10B596
:1052B000044609289CBF0A34A4B22046FFF774FFB5
:1052C00050B103212046FEF779FD032804D1204682
:1052D000BDE81040FEF79ABD002010BD10B5084C87
:1052E0002378BFF35B8FDB0708D42046FAF7DBFE99
:1052F00020B1FEF72BFD2046FAF7DAFE014810BD7B
:10530000A00F0020A40F002070B514232025084E04
:1053100004460360314685600561284600F051F877
:1053200031466060284600F04CF8E060204670BDD1
:1053300064920A0830B50F4D87B02978BFF35B8FB0
:1053400011F0010413D12846FAF7ADFE78B101A897
:10535000FFF7DAFF214601AA0748FFF773FA28464C
:10536000FAF7A6FE054A0649034800F023F802486A
:1053700007B030BDA80F0020AC0F00204002002075
:10538000ED470A08002313B5074C1A461946204674
:105390000093FFF7C1FA2046044A054902B0BDE870
:1053A000104000F007B800BFC00F002040020020EE
:1053B00069480A080B460146184601F0FDB9FAF79C
:1053C00070BEFAF76CBE08B5FEF70EFF38B5C1F334
:1053D0000A55A5F2FF32132A0B4684468E46044630
:1053E00020DC002A0EDB1E49114103EA01002043A4
:1053F00015D04FF4002343FA02F2964400242EEA1B
:10540000010E0AE0013214BF0024002401F0004E16
:1054100004BF4EF07F5E4EF4401E7346A4466046C5
:10542000194638BD332A08DDB2F5806FF7D1024640
:1054300000F01EF884460B46F1E74FF0FF31A5F26D
:10544000134521FA05F52842E9D00123C2F13302C0
:1054500003FA02F2841828BF9E4424EA0504DCE71C
:10546000FFFF0F0081F0004102E000BF83F0004326
:1054700030B54FEA41044FEA430594EA050F08BFEF
:1054800090EA020F1FBF54EA000C55EA020C7FEAB3
:10549000645C7FEA655C00F0E2804FEA5454D4EB30
:1054A0005555B8BF6D420CDD2C4480EA020281EAFA
:1054B000030382EA000083EA010180EA020281EA32
:1054C0000303362D88BF30BD11F0004F4FEA013184
:1054D0004FF4801C4CEA113102D0404261EB410193
:1054E00013F0004F4FEA03334CEA133302D0524219
:1054F00063EB430394EA050F00F0A780A4F10104D5
:10550000D5F1200E0DDB02FA0EFC22FA05F280180E
:1055100041F1000103FA0EF2801843FA05F35941F4
:105520000EE0A5F120050EF1200E012A03FA0EFC73
:1055300028BF4CF0020C43FA05F3C01851EBE3719D
:1055400001F0004507D54FF0000EDCF1000C7EEBBA
:1055500000006EEB0101B1F5801F1BD3B1F5001FF8
:105560000CD349085FEA30004FEA3C0C04F1010417
:105570004FEA445212F5800F80F09A80BCF1004F40
:1055800008BF5FEA500C50F1000041EB045141EAC2
:10559000050130BD5FEA4C0C404141EB0101013C8B
:1055A00028BFB1F5801FE9D291F0000F04BF01467A
:1055B0000020B1FA81F308BF2033A3F10B03B3F14C
:1055C00020020CDA0C3208DD02F1140CC2F10C02DC
:1055D00001FA0CF021FA02F10CE002F11402D8BF3A
:1055E000C2F1200C01FA02F120FA0CFCDCBF41EA06
:1055F0000C019040E41AA2BF01EB0451294330BDD5
:105600006FEA04041F3C1CDA0C340EDC04F11404B1
:10561000C4F1200220FA04F001FA02F340EA030088
:1056200021FA04F345EA030130BDC4F10C04C4F1CE
:10563000200220FA02F001FA04F340EA03002946AE
:1056400030BD21FA04F0294630BD94F0000F83F4F8
:10565000801306BF81F480110134013D4EE77FEADB
:10566000645C18BF7FEA655C29D094EA050F08BF27
:1056700090EA020F05D054EA000C04BF1946104608
:1056800030BD91EA030F1EBF0021002030BD5FEA4C
:10569000545C05D14000494128BF41F0004130BD74
:1056A00014F580043CBF01F5801130BD01F00045C8
:1056B00045F0FE4141F470014FF0000030BD7FEA3B
:1056C000645C1ABF194610467FEA655C1CBF0B4636
:1056D000024650EA013406BF52EA033591EA030F4D
:1056E00041F4002130BD00BF90F0000F04BF002145
:1056F000704730B54FF4806404F132044FF0000578
:105700004FF0000150E700BF90F0000F04BF0021F0
:10571000704730B54FF4806404F1320410F0004556
:1057200048BF40424FF000013EE700BF42004FEA51
:10573000E2014FEA31014FEA02701FBF12F07F43CE
:1057400093F07F4F81F06051704732F07F4208BF85
:10575000704793F07F4F04BF41F40021704730B58C
:105760004FF4607401F0004521F000411CE700BFD8
:1057700050EA010208BF704730B54FF000050AE05B
:1057800050EA010208BF704730B511F0004502D55C
:10579000404261EB41014FF4806404F132045FEA5E
:1057A000915C3FF4D8AE4FF003025FEADC0C18BF07
:1057B00003325FEADC0C18BF033202EBDC02C2F1F9
:1057C000200300FA03FC20FA02F001FA03FE40EA8B
:1057D0000E0021FA02F11444BDE600BF70B54FF08F
:1057E000FF0C4CF4E06C1CEA11541DBF1CEA13556D
:1057F00094EA0C0F95EA0C0F00F0DEF82C4481EAD5
:10580000030621EA4C5123EA4C5350EA013518BFF4
:1058100052EA033541F4801143F4801338D0A0FBE1
:1058200002CE4FF00005E1FB02E506F00042E0FB8E
:1058300003E54FF00006E1FB03569CF0000F18BF94
:105840004EF0010EA4F1FF04B6F5007F64F540743C
:1058500004D25FEA4E0E6D4146EB060642EAC621CF
:1058600041EA55514FEAC52040EA5E504FEACE2E3C
:10587000B4F1FD0C88BFBCF5E06F1ED8BEF1004F3F
:1058800008BF5FEA500E50F1000041EB045170BDBB
:1058900006F0004646EA010140EA020081EA0301FF
:1058A000B4EB5C04C2BFD4EB0C0541EA045170BDFB
:1058B00041F480114FF0000E013C00F3AB8014F175
:1058C000360FDEBF002001F0004170BDC4F10004BE
:1058D000203C35DA0C341BDC04F11404C4F120053F
:1058E00000FA05F320FA04F001FA05F240EA02009A
:1058F00001F0004221F0004110EBD37021FA04F6D0
:1059000042EB06015EEA430E08BF20EAD37070BD89
:10591000C4F10C04C4F1200500FA04F320FA05F0E8
:1059200001FA04F240EA020001F0004110EBD370EA
:1059300041F100015EEA430E08BF20EAD37070BD5A
:10594000C4F1200500FA05F24EEA020E20FA04F333
:1059500001FA05F243EA020321FA04F001F00041E2
:1059600021FA04F220EA020000EBD3705EEA430E53
:1059700008BF20EAD37070BD94F0000F0FD101F082
:105980000046400041EB010111F4801F08BF013CBB
:10599000F7D041EA060195F0000F18BF704703F0F9
:1059A0000046520043EB030313F4801F08BF013D80
:1059B000F7D043EA0603704794EA0C0F0CEA13553C
:1059C00018BF95EA0C0F0CD050EA410618BF52EAF6
:1059D0004306D1D181EA030101F000414FF00000FC
:1059E00070BD50EA410606BF1046194652EA43060A
:1059F00019D094EA0C0F02D150EA013613D195EA7E
:105A00000C0F05D152EA03361CBF104619460AD1C5
:105A100081EA030101F0004141F0FE4141F47001CF
:105A20004FF0000070BD41F0FE4141F4780170BDBF
:105A300070B54FF0FF0C4CF4E06C1CEA11541DBF24
:105A40001CEA135594EA0C0F95EA0C0F00F0A7F826
:105A5000A4EB050481EA030E52EA03354FEA013153
:105A600000F088804FEA03334FF0805545EA131366
:105A700043EA12634FEA022245EA111545EA10652E
:105A80004FEA00260EF000419D4208BF964244F1C5
:105A9000FD0404F5407402D25B084FEA3202B61AE4
:105AA00065EB03055B084FEA32024FF480104FF4B8
:105AB000002CB6EB020E75EB030E22BFB61A75462C
:105AC00040EA0C005B084FEA3202B6EB020E75EBBF
:105AD000030E22BFB61A754640EA5C005B084FEA27
