:02000002D0002C
:1040000000400D00FCC40D00000006000D0005017D
:084010000401E80500000000B6
:044018004CBC0D008F
:1040200009480A49884208B505D0094A824202D0A7
:10403000121A05F0ABFC0748074A0021121A05F0D6
:10404000B0FC014808BD00BFD8D90320E4C30D006F
:10405000C8DA0320C8DA0320F0E7032070B503F0C4
:104060008FFD074C074BE41AA40800251E46A54205
:1040700004D056F8253098470135F8E770BD00BFE9
:10408000E0C30D00A4C30D0001F0D0BA08B502F0E2
:1040900071FDBDE8084003F035BD03F0F3BA03F04D
:1040A000F9BA03F0F7BA0078B0FA80F04009704727
:1040B0000123037070470000F0B55F4F85B00E46D6
:1040C0008D1C0C46304605F0CAFCA31B984262D9F1
:1040D00014F8013B742B1ED12378652B3FD12B782C
:1040E0006D2B3CD16B78702B39D1E378222B36D1F4
:1040F00063798DF80830A3798DF80930E3798DF86C
:104100000A30237A8DF80B30637A8DF80C30A37A5D
:104110008DF80D3023E0682B14D12378752B1ED138
:104120002B786D2B1BD16B78692B18D1637A8DF8A6
:104130000030A37A8DF80130E37A302B0FD18DF85F
:1041400002300CE0692B0AD12378632B07D12B783E
:104150006F2B04D16B786E2B04BF237A3B7014F85D
:10416000023C5B2B15D114F8013C7B2B11D1237839
:10417000222B0ED12B78692B0BD16B78642B08D1B5
:1041800063798DF80430A3798DF80530E3798DF8E3
:104190000630013596E79DF80030303B092B08D8F2
:1041A000684605F0E5FA51EC100B05F049FA234B8F
:1041B00018609DF80430303B092B08D801A805F0A1
:1041C000D7FA51EC100B05F03BFA1D4B18609DF827
:1041D0000830303B092B23D802A805F0C9FA51EC6E
:1041E000100B05F075FA04F03DFF0FA3D3E900238F
:1041F00004F0D8FD05F06CFA04F034FF0CA3D3E909
:10420000002304F083FF0F4B002204F0CDFD05F0E6
:104210005FFA07EE900A0C4BFDEEE77AC3ED007AE9
:1042200005B0F0BDAFF30080666666666612714049
:10423000CDCCCCCCCCCCFC3FF4DA0320E0DA0320AC
:10424000E4DA03200000404038E3032010B50446C0
:10425000006808B103F01EFA204610BD03F01EB836
:1042600003F024B8000000002DE9F04F2DED048B81
:10427000A94E85B0054690468CB2444500F33B817B
:10428000230A3CD123071AD455F8247097FBF6FE75
:104290004FF47A7097FBF0F191FBF0F300FB1313EE
:1042A00000FB11719EFBF0F2C9B200FB12E200911B
:1042B000DBB2D2B22146994802F02EFF18E155F840
:1042C00024C09CFBF6F24FF47A7004F0070E9CFBBE
:1042D000F0F792FBF0F997FBF0F300FB192200FBDB
:1042E0001373E11D4FEA4E0E00FB17C0C0B2CEEBB8
:1042F00001010090DBB2D2B289B28848F6E0B4F591
:10430000BF7F6ED8A4F5807314F0010F03F0070788
:104310000ABF0822DB1093FBF2F34FF47A7908BF4F
:10432000C3F10F03C7F1170703EB071755F8243044
:1043300093FBF6F393FBF9F009FB103004F080FED9
:1043400071A3D3E9002304F0E1FE41EC100B04F06B
:10435000CDFC55F8243093FBF9F393FBF9F009FBFE
:104360001030B0EE408AF0EE608A04F069FE68A377
:10437000D3E9002304F0CAFE41EC100B04F0B6FCB4
:1043800055F8243093FBF9F009FB10305BEC10ABCF
:1043900004F056FE5CA3D3E9002304F0B7FE41EC21
:1043A000100B04F0A3FC594650468DED020B05F0AE
:1043B0006FF95FFA80FA51EC180B05F069F99DED81
:1043C000020B5FFA80F951EC100B05F061F9BFB2F6
:1043D000C0B2009053464A463946504802F09CFE0F
:1043E00086E0A4F5C07293B27F2B00F281804C4B23
:1043F00014F0010F4FEA840703EA02030ED1002BE9
:10440000BEBF03F1FF3363F0070301330821C3F19B
:104410001F0392FBF1F2C2F10F020CE0002BBEBFB2
:1044200003F1FF3363F007030133C3F11F034FF0C0
:10443000080992FBF9F24FF47A7A02EB03131FFAA0
:1044400083F9EB5993FBF6F393FBFAF00AFB103078
:1044500004F0F6FD2CA3D3E9002304F057FE41EC51
:10446000100B04F043FCEB5993FBFAF393FBFAF0C7
:104470000AFB1030B0EE408AF0EE608A04F0E0FDF6
:1044800023A3D3E9002304F041FE41EC100B04F018
:104490002DFCEB5993FBFAF00AFB1030B0EE409A7A
:1044A000F0EE609A04F0CCFD17A3D3E9002304F0EA
:1044B0002DFE41EC100B04F019FC51EC190B8DEDA5
:1044C000020B05F0E5F85FFA80FA51EC180B05F0E5
:1044D000DFF89DED020BC7B251EC100B05F0D8F8D8
:1044E000C0B200900D4853463A46494602F014FEC9
:1044F0000134A4B2C1E6094805B0BDEC048BBDE8A7
:10450000F04F02F067BC00BFCDCCCCCCCCCCE43FAC
:104510009A9999999999E93F40420F00F8DA032056
:104520000700008070B5094D06460FCD8AB06C4675
:104530000FC40FCD0FC495E803000AAB84E8030055
:1045400003EB860656F8280C0AB070BD60BC0D005F
:1045500070B5094D06460FCD8AB06C460FC40FCD1D
:104560000FC495E803000AAB84E8030003EB86065A
:1045700056F8280C0AB070BD88BC0D004FF47A7351
:1045800003FB0122014B03FB0020704740420F0058
:104590002DE9F74F1E469DF83C309DF830709DF890
:1045A00034809DF8389082468B4615465BB10023D7
:1045B000144A19469E4206DDE81803F1010358BF6C
:1045C00042F82010F6E70024A64216DD0AF00102A8
:1045D000002313430BD02B19019308D44A464146BC
:1045E0003846FFF7CBFF074A019B42F823005FEAFA
:1045F0005B0B4FEA3A0A0134E6E7034B1C6003B059
:10460000BDE8F08F10DB0320D8DA03202DE9F74F47
:1046100098469DF838309DF830909DF834A00646B5
:104620000D4617465BB10022124B1146974206DD3C
:10463000A81802F1010258BF43F82010F6E70D4B0D
:104640000024A74210DDF2070BD515EB040B08D4AC
:104650005246494640460193FFF790FF019B43F8BD
:104660002B0076080134ECE7034B1C6003B0BDE877
:10467000F08F00BF10DB0320D8DA03202DE9F74FBD
:1046800098469DF838309DF830909DF834A0064645
:104690000D4617465BB10022124B1146974206DDCC
:1046A000A81802F1010258BF43F82010F6E70D4B9D
:1046B0000024A74210DDF2070BD515EB040B08D43C
:1046C0005246494640460193FFF758FF019B43F885
:1046D0002B0076080134ECE7034B1C6003B0BDE807
:1046E000F08F00BF10DB0320D8DA032000000000A9
:1046F0002DE9F0472DED028B1F46774B1B7884B0D8
:10470000642B04460D4616469DF838909DF83C8073
:10471000A0F54873A0F2223A5FD1012B03D940F2F1
:10472000D123984232D1304604F08AFC5CA3D3E90D
:10473000002304F015FE41EC100B04F0D7FA3846C4
:10474000B0EE408AF0EE608A04F07AFC56A3D3E91A
:10475000002304F0DBFC41EC100B04F0C7FA00234B
:1047600051EC100B0293CDF80C8004F091FFC0B215
:10477000019051EC180B04F08BFFC0B20090402365
:104780002A464BA1D1E90001FFF702FFBAF1010F60
:104790006AD8002338460293CDF80C8004F050FC10
:1047A00045A3D3E9002304F0B1FC04F071FFC0B2CB
:1047B00001902A460096402341A1D1E90001FFF76C
:1047C000E7FECDF80C808DE8C00240232A463EA1CA
:1047D000D1E90001FFF7DCFE46E0012B03D940F2EE
:1047E000D123984219D13846CDF80C800323B9FB68
:1047F000F3F3029304F024FC4FF03332374B04F010
:1048000085FC04F045FFC0B20190009640232A4683
:10481000334843F67F61FFF7BBFEBAF1010F23D89F
:104820003846CDF80C800323B9FBF3F3029304F070
:1048300007FC4FF03332294B04F068FC04F028FFEA
:10484000C0B2019040232A46264800960021FFF777
:104850009FFECDF80C808DE8C00240232A462248F6
:1048600041F23801FFF794FEA4F1C803B3F5027FCB
:1048700003D9A4F2DB24282C0AD8CDF80C808DE8CB
:10488000C00240232A4612A1D1E90001FFF780FEB1
:1048900004B0BDEC028BBDE8F08700BFAFF3008031
:1048A000CDCCCCCCCCCCFC3FCDCCCCCCCCCCF43F08
:1048B00008001C5D1C000800666666666666FE3FB2
:1048C00008000C05040000000000103838383810CB
:1048D0000207070707070200F4DA03203333F33F28
:1048E000000041632206040010383838F8B51E462F
:1048F0009DF81C300C46154613B1FFF713FE01E07E
:10490000FFF726FE0023124A1946202B06D0E7188F
:1049100003F1010358BF42F82710F6E79DF818305D
:104920004FF47A7202FB06360A4B03FB0565084B0F
:104930000021202908D0C20703D5621858BF43F8C8
:10494000225040080131F4E7034B1960F8BD00BF65
:1049500010DB032040420F00D8DA03202DE9FF418D
:10496000044630385FFA80FCBCF1090F0D4617464B
:1049700098469DF828609DF82CE012D8BEF1000FF3
:1049800008D0012101910096A91CFFF7AFFF032079
:1049900000F073BC8DE84040FFF7A8FF042000F052
:1049A0006CBC203C5C2C00F26784DFE814F05D00F6
:1049B00063006F0065046504650465047C0088007D
:1049C00095006504A200AE00BA00C700D3006504DC
:1049D000650465046504650465046504650465048F
:1049E0006504DF00EB00F70003010F011B01650404
:1049F000270133013F014B01570163016F017B0127
:104A0000870193019F01AB01B701CE01E501F101DF
:104A1000FD010902150253026A027602820299021E
:104A2000A502BC02C8026504D502650465047C00C9
:104A3000E202EE02FA02060312031E032A03360301
:104A400042034E035A03580466037D03890395030A
:104A5000A103AD03B903C503D10311041D0434043C
:104A600040044C046504580400230124029401937B
:104A70000093FAE3012413462F2002940196CDF807
:104A800000800822FFF7FAFD2046F6E30123029397
:104A90004FF0031013460196CDF800801822FFF75F
:104AA000B5FD0320E9E30124134603200294019697
:104AB000CDF800800822FFF7E1FD2046DDE3012369
:104AC000029344F23E1013460196CDF80080102266
:104AD000FFF79CFD0220D0E30123029343F64160DF
:104AE00013460196CDF800801022FFF78FFD0220BB
:104AF000C3E301230293BE4801961346CDF800801C
:104B00001822FFF783FD0320B7E30124134660203A
:104B100002940196CDF800800822FFF7AFFD2046F1
:104B2000ABE30123029340F6080013460196CDF84B
:104B300000801022FFF76AFD02209EE30124134645
:104B4000402002940196CDF800800822FFF796FDE0
:104B5000204692E301230293A64801961346CDF81E
:104B600000801822FFF752FD032086E3012413463C
:104B7000222002940196CDF800800822FFF77EFDE6
:104B800020467AE301241346622002940196CDF870
:104B900000800822FFF772FD20466EE30123029396
:104BA000954801961346CDF800801822FFF72EFD98
:104BB000032062E301230293904801961346CDF847
:104BC00000801822FFF722FD032056E30123029301
:104BD0008B4801961346CDF800801822FFF716FD8A
:104BE00003204AE301230293864801961346CDF839
:104BF00000801822FFF70AFD03203EE30123029301
:104C0000814801961346CDF800802022FFF7FEFC74
:104C1000042032E3012302937C4801961346CDF829
:104C200000802022FFF7F2FC042026E301230293F8
:104C3000774801961346CDF800802022FFF7E6FC66
:104C400004201AE301230293724801961346CDF81B
:104C500000802022FFF7DAFC04200EE301230293F8
:104C60006D4801961346CDF800802022FFF7CEFC58
:104C7000042002E301230293684801961346CDF80D
:104C800000802022FFF7C2FC0420F6E201230293F9
:104C9000634801961346CDF800802022FFF7B6FC4A
:104CA0000420EAE2012302935E4801961346CDF800
:104CB00000802022FFF7AAFC0420DEE201230293F9
:104CC000594801961346CDF800801822FFF79EFC44
:104CD0000320D2E201230293544801961346CDF8F3
:104CE00000802022FFF792FC0420C6E201230293F9
:104CF0004F4801961346CDF800802022FFF786FC2E
:104D00000420BAE2012302934A4801961346CDF8E3
:104D100000802022FFF77AFC0420AEE20124134633
:104D2000203108227F2002940196CDF80080FFF701
:104D3000A5FC414802940196CDF800803B46202214
:104D40002946FFF763FC052097E201241346203132
:104D500008227F2002940196CDF80080FFF78EFC98
:104D6000364802940196CDF800803B462022294621
:104D7000FFF74CFC052080E20123029330480196A6
:104D80001346CDF800802022FFF740FC042074E297
:104D9000012302932B4801961346CDF80080202270
:104DA000FFF734FC042068E20123029326480196B1
:104DB0001346CDF800802022FFF728FC04205CE297
:104DC00001230293214801961346CDF8008020224A
:104DD000FFF71CFC042050E2012302931C480196BB
:104DE0001346CDF800802022FFF710FC042044E297
:104DF000081C08006018060008142200141414008F
:104E00002214080003590F007E09097E7F494936A4
:104E10003E4141227F41413E7F4949417F0909018D
:104E20007F4149787F08087F417F410021413F0150
:104E30007F0808777F4040407F017E017F013E4030
:104E40003E41413E7F0909063E41211F7F494931CC
:104E50004649493101241346203108222046029454
:104E60000196CDF80080FFF709FCBF480294019637
:104E7000CDF800803B4620222946FFF7C7FB0520DE
:104E8000FBE101230293B94801961346CDF8008057
:104E90002022FFF7BBFB0420EFE101230293B4487B
:104EA00001961346CDF800802022FFF7AFFB0420C7
:104EB000E3E101241346203108223F2002940196A9
:104EC000CDF80080FFF7DAFBAA4802940196CDF8EE
:104ED00000803B4620222946FFF798FB0520CCE1C5
:104EE00001230293A44801961346CDF800801822AE
:104EF000FFF78CFB0320C0E1012413462031082278
:104F0000204602940196CDF80080FFF7B7FB9B483E
:104F100002940196CDF800803B4620222946FFF7F7
:104F200075FB0520A9E101230293954801961346DC
:104F3000CDF800802022FFF769FB04209DE10123CA
:104F4000029344F27F1013460196CDF800801022A0
:104F5000FFF75CFB022090E10123029347F64170CA
:104F600013460196CDF800801022FFF74FFB022078
:104F700083E101230293834801961346CDF8008014
:104F80001822FFF743FB032077E1012302937E48B9
:104F900001961346CDF800801822FFF737FB032057
:104FA0006BE101230293794801961346CDF8008006
:104FB0001822FFF72BFB03205FE1012302937448C3
:104FC00001961346CDF800801822FFF71FFB03203F
:104FD00053E1012302936F4801961346CDF80080F8
:104FE0001822FFF713FB032047E1012302936A48CD
:104FF00001961346CDF800801822FFF707FB032027
:105000003BE101230293654801961346CDF80080E9
:105010001822FFF7FBFA03202FE1012302936048D7
:1050200001961346CDF800801822FFF7EFFA03200F
:1050300023E101241346742002940196CDF80080E8
:105040000822FFF71BFB204617E101230293554876
:1050500001961346CDF800801822FFF7D7FA0320F7
:105060000BE101230293504801961346CDF80080CE
:105070001822FFF7CBFA0320FFE00124134620316A
:105080000822702002940196CDF80080FFF7F6FA0E
:10509000464802940196CDF800803B4620222946DE
:1050A000FFF7B4FA0520E8E0012302934048019697
:1050B0001346CDF800802022FFF7A8FA0320DCE099
:1050C000012302933B4801961346CDF80080182235
:1050D000FFF79CFA0320D0E00123029336480196A3
:1050E0001346CDF800801822FFF790FA0320C4E0A1
:1050F00001230293314801961346CDF8008018220F
:10510000FFF784FA0320B8E0012302932C480196AC
:105110001346CDF800801822FFF778FA0320ACE0A0
:1051200001230293274801961346CDF800801822E8
:10513000FFF76CFA0320A0E00123029322480196B6
:105140001346CDF800801822FFF760FA032094E0A0
:10515000012302931D4801961346CDF800801822C2
:10516000FFF754FA032088E001017F013F40403FF0
:105170001F60601F3F403F40007F730001027C02C0
:10518000C1310D03304870007F483000304848007E
:1051900030487F00385458007E090A0048547C008B
:1051A0007F08700020403A007F1068007008700887
:1051B00078087000304830007C14080008147C0027
:1051C000780810005C547400087E080038407800AD
:1051D000012302932A4801961346CDF80080182235
:1051E000FFF714FA032048E0012413462031082277
:1051F000382002940196CDF80080FFF73FFA21484D
:1052000002940196CDF800803B4620222946FFF704
:10521000FDF9052031E0012302931B480196134656
:10522000CDF800801822FFF7F1F9032025E00123D3
:105230000293164801961346CDF800801822FFF716
:10524000E5F9032019E00123029311480196134662
:10525000CDF800801822FFF7D9F903200DE00124D2
:1052600002940196CDF8008013467F20082229463B
:10527000FFF704FA204600E0002004B0BDE8F0810A
:105280003840380038407040483048004C503C00AE
:1052900064544C002DE9F04F85B005469DF838A0C8
:1052A0009DF83CB090469946002408272846039173
:1052B00004F0D5FBA0420DD90399285D8DE8000CC0
:1052C0004B46424601F10806FFF748FB013417FB45
:1052D0000061EBE705B0BDE8F08F00002DE9F04F6D
:1052E00085B016461F460D46044602F07DFB03902E
:1052F00002F082FB3D4B1A68904281469A4602D1E9
:105300000E9B002B6FD003F031FB0620FEF7A6FFAB
:105310008046002867D102F06FFB72087B08CAF84C
:1053200000004FF47A71324801FB02316B0800FB38
:105330000313304A04F1390142F8213004F13D01F0
:1053400042F8213009F10903122B04F1480110D869
:1053500033462A4640468DE88001FFF7C7FA8DE8BC
:10536000800133462A4604F170014846FFF7BEFA31
:1053700014E04FF00A0B334699FBFBFA2A465046DD
:105380008DE88001FFF7B2FA8DE8800133462A46A6
:1053900004F170010BFB1A90FFF7A8FA039B4FF082
:1053A0000A0993FBF9F85FFA88F116FB01F315FB84
:1053B00001F217FB01F14FF0000AC9B20091DBB214
:1053C000D2B2A4F118010120CDF804A0FFF78EFAA3
:1053D00003988DE8800433462A4604F1100109FB46
:1053E0001800FFF783FA05B0BDE8F08FF0DA03206C
:1053F00040420F0010DB03202DE9F3479DF82C906D
:105400009DF82850DFF878A086460A260C4690FBC7
:10541000F6F01746984606FB10E6B9F1000F17D0D4
:105420004FF001098DE82002FFF760FA04F1200136
:1054300043463A4630468DE82002FFF757FA2A469F
:1054400041463846FFF79AF840344AF8240014E001
:105450008DE82002FFF74AFA04F1280143463A4654
:1054600030468DE82002FFF741FA2A464146384689
:10547000FFF784F850344AF8240002B0BDE8F08702
:1054800010DB03202DE9F74F642880460D461646B1
:105490001F469DF8304021D1224619463046FFF77D
:1054A0006DF81A4A002359190133072B42F82100DD
:1054B000F9D14FF000083B46324605F11001404655
:1054C0008DE81001FFF712FA8DE810013B463246D5
:1054D00005F138014046FFF709FA14E04FF0000BE0
:1054E0004FF00A0A8DE8100890FBFAF94846FFF7DA
:1054F000FDF98DE810083B46324605F128010AFB0C
:105500001980FFF7F3F903B0BDE8F08F10DB03203B
:1055100038B505460C461946A5F59673152B104669
:105520009DF810200ED8FFF729F8214B04F10E0248
:1055300043F8220004F11C022E3443F8220043F801
:10554000240038BDA5F1C803222B12D8FFF716F8A6
:10555000174B04F11B0243F8220004F1140243F834
:10556000220004F11D02163443F8220043F82400FF
:1055700038BDA5F5FA73202B03D9A5F516751D2D99
:1055800015D8FEF7FBFF0A4B04F10B0243F822008B
:1055900004F1160243F8220004F11C0243F8220031
:1055A00004F125022B3443F8220043F8240038BDCF
:1055B00010DB03207FB5194D2C68064601F056FE1E
:1055C00004F5922404F57874844205D301F04EFE6C
:1055D0002B68984200D3F6B1114B124A1B788DF814
:1055E000003011493C2302A802F038FC039C7CB136
:1055F0006368013B63605BB9236820469B689847FA
:10560000A368013BA3601BB923682046DB68984769
:1056100001F02CFE286004B070BD00BFD4DA032076
:10562000E8DA032083BD0D00CABC0D002DE9F34765
:105630006D4B0024032120461C6003F043F9032135
:10564000012003F03FF90321022003F03BF901217F
:10565000072003F037F9012002F0F4F92246214631
:10566000204602F0FFF9614A614801231360614A54
:105670001460614A1360614A1360614A022111603B
:10568000604A137001F06FFB594801F0A3FB5E4BB9
:10569000224643F824200134B4F5007F5A4DF8D156
:1056A0005A4E0F20346003F04AF9594A594C1223DC
:1056B00090FBF3F01060C3B20122019200931A46EE
:1056C00038215548FFF7E6FD3823B24623602646C9
:1056D0002168C7290ADCCA1D4B48FEF7C5FD4B20CF
:1056E00002F09EF9336808333360F1E7002001F0DF
:1056F000EDFDDFF84081064600274FF0000900204D
:1057000001F0E4FD801B61EB0701894508BF80457E
:1057100003D301F08FFF002862D001F08BFF00233C
:105720001A4645F823200133B3F5807F4FF000047B
:10573000F7D1CAF8003003F019F911210120FEF762
:105740008FFD03F013F901210220FEF789FD03F01C
:105750000DF921460320FEF783FD03F007F92146EA
:105760000420FEF77DFD03F001F901210520FEF77D
:1057700077FD03F0FBF821460620FEF771FD234676
:1057800002222349254801F045FF2246244901947D
:1057900023460094234801F05DFF03F0E7F8012061
:1057A000FEF75CFDC0F10C0007EE900AB8EEE70AC8
:1057B00002F0D6F802F020F91B4B0138186002F015
:1057C00013F91A4B01381860194B3C2232201A6029
:1057D00002F026F9012002B0BDE8F047FFF7EABE6B
:1057E00001F020FF8BE700BFD4DA032024E303207D
:1057F000F8DA032020E30320ECDA032028E3032077
:1058000034E303202CE3032010DB0320DCDA032045
:1058100010E30320D8DA0320B0BC0D00B6BC0D00A5
:10582000B9400D00BCBC0D00F0DA03203CE30320BE
:1058300040E303209F86010038B50024642590FBD7
:10584000F5F5AC424FF000000FDA03F065F868B9E7
:10585000012003F061F848B9022003F05DF828B98F
:10586000642002F0DDF80134EBE738BD012038BDDB
:105870002DE9F04F9B4689B0A0F1C803222B01927D
:1058800088469DF848509DF84C2000F286809E4C3A
:1058900001F11D0601F11B0901F1140701F11608C0
:1058A000002332463946204644F8293044F8273050
:1058B00044F8263044F82830FEF7D6FC019B04203B
:1058C00093FBF0F0FFF7B8FF0290002840F014823D
:1058D000584603F0B5FB4FF033328C4B03F040FDDC
:1058E00003F0D6FE5FFA80FA284603F0A9FB84A3F2
:1058F000D3E9002303F00AFC03F0CAFE029AC1B206
:105900005046FEF73BFE4A4644F8290049462046E9
:10591000FEF7AAFC4FF0020B019B93FBFBFB5846E2
:10592000FFF78AFF0246002840F0E681690001F097
:10593000FE015046FEF722FE3A4644F8270005468F
:1059400039462046FEF790FC5846FFF775FF0028C1
:1059500040F0D28120463246314644F82650FEF7C8
:1059600083FC5846FFF768FF002840F0C5812046B9
:105970004246414644F82850FEF776FC0198FFF76E
:105980005BFF002840F0B88144F8290044F8270064
:1059900044F8260044F82800AEE1A0F59673152BD4
:1059A00000F28680584C01F11C0301F12E0601F132
:1059B0000E09002001F10B07294644F82900029343
:1059C00044F8230044F82600FEF7D8FD08F11D0B2B
:1059D00008F12B0A44F82700054644F82B0032460C
:1059E00044F82A0039462046FEF73EFC0198FFF7AE
:1059F00023FF002840F0808144F8270008F10C03C1
:105A000044F82B0044F82A0008F11E0B08F12C0A78
:105A100032463946204644F82350039344F82B502D
:105A200044F82A50FEF720FC0198FFF705FF039B7E
:105A3000002840F0618144F8230044F82B0044F82A
:105A40002A0008F10D0B08F11B0A08F12D08204669
:105A50003246394644F82B5044F82A5044F828502E
:105A6000FEF702FC0198FFF7E7FE002840F04481B2
:105A7000029B44F82B00324644F82A00394644F889
:105A80002800204644F8295044F8235044F8265072
:105A9000FEF7EAFB0198FFF7CFFE002840F02C81CB
:105AA000029B44F8290044F8230044F8260023E12F
:105AB000A0F5FA73202B2BD8134C01F1160301F13A
:105AC0000B0A002044F82A00029344F8230001F155
:105AD0001C03039344F8230001F12503049344F8C5
:105AE000230001F12B03059344F8230001F10C037B
:105AF00006930321B5FBF1F14CE000BFAFF300804A
:105B0000333333333333034010DB03203333F33F7A
:105B1000A0F516731D2B00F2E7807B4C01F10B0AF8
:105B20001631002344F82A30029144F8213008F15C
:105B30001C01039144F8213008F12501049144F837
:105B4000213008F12B01104644F8213008F10C03F4
:105B50000693059103F074FA69A3D3E9002303F0D7
:105B6000D5FA03F095FDC6B2284603F069FA002283
:105B7000664B03F0CBFA03F08BFDC5B2584603F039
:105B80005FFA0022614B03F0C1FA03F081FD324657
:105B90002946C0B2FEF7F2FC069B08F1130944F84F
:105BA000230008F1260708F11D0308F12C0608F16F
:105BB0002E0B44F829005A4644F82300514644F875
:105BC0002700054644F8260020460793FEF74CFBC5
:105BD0000198FFF731FE079B002840F08D80069A60
:105BE00044F8220044F8290044F8230008F10D038A
:105BF00044F82700069344F8260008F1140944F8F5
:105C0000235008F1230708F11E0308F12D065A4618
:105C10005146204644F82950079344F8235044F84D
:105C2000275044F82650FEF71FFB0198FFF704FEAB
:105C3000079B002860D1069A44F8220044F8290006
:105C400044F8230008F1240944F8270008F10E0362
:105C500044F8260008F1150708F11B065A4651467C
:105C6000204644F82350069344F8275044F8265021
:105C700044F8295044F82B50FEF7F6FA0198FFF744
:105C8000DBFD069B002837D144F82300029B44F833
:105C9000270044F8260044F8290044F82B0044F873
:105CA0002A5044F82350039B44F82350049B44F8A3
:105CB0002350059B20465A46514644F82350FEF790
:105CC000D3FA0198FFF7B8FDB0B9029B44F82A0057
:105CD00044F82300039B44F82300049B44F823006A
:105CE000059B44F8230007E0019B03EB430009B048
:105CF000BDE8F04FFFF7A0BD09B0BDE8F08F00BFD1
:105D0000CDCCCCCCCCCCFC3F10DB03200000F83F4A
:105D10002DE9F0410F2002F012FE174B1A68904255
:105D200026DAFA221A60154E154BDFF86080154FFF
:105D3000012500241D603560C8F800403C6002F079
:105D400015FE0520FEF78AFA022803D1C8F8005094
:105D5000346008E002F00AFE0520FEF77FFA03280F
:105D600004BF3D603460084B01201860BDE8F0813D
:105D70000020BDE8F08100BF40E30320D0DA03201B
:105D800024E30320CCDA032028E303200CDB0320E8
:105D90002DE9F04F8BB0914E03939DF85030029354
:105DA00033680591012B8346049240F097808C4F15
:105DB0008C4C00253B68DFF82C8200220192009277
:105DC0006B43594620684FF019090BF1580A93FBB1
:105DD000F9F3DBB2FFF710FB524659468248FEF753
:105DE00043FA01350A2001F01BFE1A2DE2D140F6DC
:105DF000C410FFF721FDFFF78BFFBDF90C40002811
:105E000045D0049BDFF8D89103EB8307029B04EB9A
:105E1000840403EB830607EB870704EB840406EB9B
:105E20008606A846714B72481B680068192196FBCC
:105E3000F1F21344D9F8002094FBF1F5EDB297FB91
:105E4000F1F12A44014401200090DBB2D2B2C9B280
:105E50000598FFF743FA00226248019200922B4610
:105E600059460068FFF7C8FA524605995E48FEF7A2
:105E7000FBF90A2001F0D4FD049BFF1A039BE41AEE
:105E8000029BB8F10108A6EB0306CBD1B0E204EB0C
:105E9000840404EB840407460197009794FBF9F30C
:105EA0000022DBB25946D8F80000FFF7A5FA5246A7
:105EB00059464D48FEF7D8F90A2001F0B1FD039B81
:105EC000013DA4EB0304E7D102F050FD0420FEF7EE
:105ED000C5F901280CBF0223032333603368022B6A
:105EE00040F0B380434F1A2500244FF03208049B42
:105EF000029904FB03F261430023192091FBF0F1A6
:105F0000C9B201930091386892FBF8F25946D2B2B7
:105F10000BF1580AFFF770FA524659463248FEF71D
:105F2000A3F90A2001F07CFD013D04F10104DED15A
:105F300040F6C410FFF780FCFFF7EAFEBDF9104001
:105F4000BDF9085004EB840404EB8404002853D00A
:105F5000039BDFF88C9003EB830605EB850506EBCE
:105F6000860605EB85054FF01A08D9F800201F4B6F
:105F7000192196FBF1F002441D481B68006895FB4F
:105F8000F1F7FFB294FBF1F13B4401440120009092
:105F9000DBB2D2B2C9B20598FFF7A0F900231548C9
:105FA0000193009759460068322294FBF2F2D2B274
:105FB000FFF722FA524605990B48FEF755F90A20D9
:105FC00001F02EFD049BE41A039BF61A029BB8F124
:105FD0000108A5EB0305C8D10AE200BFECDA0320F3
:105FE0000CDB032038E3032010DB0320CCDA032092
:105FF000D0DA032030E3032005EB8505DFF8548178
:1060000005EB85051A274FF032090023192195FB6E
:10601000F1F1C9B20193009194FBF9F25946D2B261
:10602000D8F80000FFF7E8F9524659464448FEF711
:106030001BF90A2001F0F4FC049BE41A029B013FC7
:10604000A5EB0305E1D1032333603368032B40F054
:10605000AE80DFF8FC801A2500241927029A039BE2
:10606000624392FBF7F2D2B2009263430022594698
:10607000D8F8000093FBF7F30BF1580ADBB2FFF7F7
:1060800001FA524659462E48FEF7EEF80A2001F072
:10609000C7FC013D04F10104E0D140F6C410FFF754
:1060A000CBFBFFF735FEBDF90C50BDF908400028C9
:1060B00052D0049B05EB850503EB830604EB8404B7
:1060C00006EB860605EB850504EB84044FF01A0900
:1060D0001C4B1D4A1D481B6800681268192195FB5E
:1060E000F1F794FBF1F8FFB25FFA88F896FBF1F153
:1060F000434401443A4401200090DBB2D2B2C9B219
:106100000598FFF7EBF81248CDF800803B460022D7
:1061100059460068FFF7B6F9524605990848FEF758
:10612000A3F80A2001F07CFC049BF61A039BED1AED
:10613000029BB9F10109A4EB0304C9D158E100BFE6
:1061400010DB0320CCDA03200CDB0320D0DA0320A1
:10615000E0DA032030E3032005EB850504EB84043B
:10616000DFF8AC9205EB850504EB84041A274FF0A9
:10617000190894FBF8F2D2B2009295FBF8F30022D2
:10618000DBB25946D9F80000FFF77CF95246594670
:106190009948FEF769F80A2001F042FC039BED1ACA
:1061A000029B013FA4EB0304E3D104233360336873
:1061B000042B40F01D81DFF84482152400251426AD
:1061C000002101910299039B049A8C4F694391FB32
:1061D000F6F1C9B200916B436A435946D8F8000002
:1061E00093FBF6F392FBF6F2DBB2D2B2FEF780FA43
:1061F0000BF158031A4659467F480893FEF734F8C6
:106200000A2001F00DFC013C05F10105D8D1029BEB
:106210000193039B0093FA22049B38685946FFF7C9
:1062200027FB0094029B039A04990598FFF756F800
:10623000059B714803F198052A461946FEF714F8A4
:10624000029B0193039B0093FA22049B38685946F2
:10625000FFF70EFB029B0094039A04990598FFF741
:106260003DF82A4605996448FDF7FEFF029B01931D
:10627000039B0093FA22049B38685946FFF7F8FA0B
:10628000029B0094039A04990598FFF727F82A4681
:1062900005995948FDF7E8FFFFF73AFDBDF9106091
:1062A000BDF90C50BDF9084006EB8606002862D007
:1062B000B30005EB850504EB84040793AB0006935C
:1062C000A70015234E4C4F4E4F4D09934FF019091F
:1062D000079B326893FBF9FA2968069B93FBF9F850
:1062E000236897FBF9F95FFA8AFA5FFA88F85FFA90
:1062F00089F901204B44424451440090DBB2D2B2B0
:10630000C9B20598FEF7EAFF002133682A680191B7
:1063100021683A484944C9B2009143445244DBB22F
:10632000D2B259460068FEF7E3F9216833682A685B
:1063300032484944C9B2009143445244DBB2D2B21C
:10634000A0210068FFF7E4F8089A05992A48FDF7AC
:106350008BFF0A2001F064FB079B049A9B1A0793AA
:10636000039A069B9B1A0693029BFF1A099B013B0B
:106370000993ABD13CE005EB850504EB84041523C0
:10638000B600AD00A4000593142396FBF3F895FB2B
:10639000F3F994FBF3FA00235FFA8AFA01935FFAA8
:1063A00088F85FFA89F9CDF800A04B464246594675
:1063B0003868FEF79DF9CDF800A04B464246A02173
:1063C0003868FFF7A5F8089A0B485946FDF74CFFC7
:1063D0000A2001F025FB049BF61A039BED1A029B91
:1063E000E41A059B013B0593CED1084B01221A60AC
:1063F0000BB0BDE8F08F00BF10DB0320E4DA032010
:10640000CCDA03200CDB0320D0DA0320ECDA032003
:10641000E0DA032038B5044600200D4602F07CFA8D
:10642000E0B9012002F078FAC0B9022002F074FA53
:10643000012813D12368AB4202DA0133236000E064
:106440002060022002F068FA01281DD1002002F02D
:1064500063FAC8B9052001F0E3FAF2E7002002F080
:106460005BFA012812D102F057FA78B9022002F043
:1064700053FA58B92368012B0ADD013B2360002041
:1064800002F04AFA012805D0012038BD002038BDAD
:106490002560F4E7022002F03FFA0028F4D105203D
:1064A00001F0BEFAEBE700002DE9F84FDFF8448079
:1064B0009DF828B09DF82C7005460E4691469A46E8
:1064C0000446A64208DB5A4651464846FEF756F8AF
:1064D00048F824000134F4E7054B1C6037B132461C
:1064E00029460448BDE8F84FFDF7BEBEBDE8F88F69
:1064F000D8DA032010DB03202DE9F04F85B000F13E
:10650000FF094FF000081F46012304460D461646BA
:1065100002930193424643464946CDF80080FFF777
:10652000C3FF2A462146B4488DE880013346FEF772
:10653000B1FE4A462146B148FDF796FE012002F021
:10654000EBF9012803D1052001F06AFAF6E70023F0
:106550004FF0010B8DE808081A4649462046FFF720
:10656000A3FF029B013B042B58D8DFE803F0030F85
:106570001B27330000230193009733462A46214608
:106580009F48FEF787FE4FF0010A49E00023019380
:10659000009733462A4621469A48FEF77BFE4FF085
:1065A000010A3DE000230193009733462A46214625
:1065B0009548FEF76FFE4FF0010A31E0002301938A
:1065C000009733462A4621469048FEF763FE4FF077
:1065D000010A25E0002301932A46334621468C48D0
:1065E0000097FEF757FE012002F096F9012815D119
:1065F000012002F091F9012803D1052001F010FAE1
:10660000F6E74FF0000ACDF804B0CDF800A05346ED
:10661000524649462046FFF747FF01E04FF0010A86
:10662000012002F079F9012840F06A8103900120ED
:1066300002F072F9012803D1052001F0F1F9F6E723
:106640000023CDF804B000931A4649462046FFF7D0
:106650002BFF029B013B042B00F24781DFE813F084
:1066600005006A009700C4003301039B013B032B24
:1066700000F21881DFE813F0040046005200040124
:106680004FF0000833462A46214662488DE88001D3
:10669000FEF700FE012002F03FF9012840F00281E0
:1066A0000190424649462046CDF800804346FFF718
:1066B000FBFE4A4621465148FDF7D6FD012002F077
:1066C0002BF9012803D1052001F0AAF9F6E70120F2
:1066D00002F022F918B9052001F0A2F9F7E700232A
:1066E000CDF804B000931A4649462046FFF7DCFE79
:1066F000012002F011F9012840F0D480052001F0BA
:106700008FF9F5E700230193009733462A46214687
:106710004148FEF7BFFD4FF00108C5E0002301939B
:10672000009733462A4621463C48FEF7B3FD4FF01A
:106730000108B9E0039B013B032B00F2B380DFE8C3
:1067400003F0020E1A9F00230193009733462A4656
:1067500021463348FEF79EFD4FF00108A4E00023D8
:106760000193009733462A4621462E48FEF792FDB4
:106770004FF0010898E000230193009733462A4622
:1067800021462948FEF786FD4FF001088CE0039B67
:10679000013B032B00F28680DFE803F0020E1A7241
:1067A00000230193009733462A4621461F48FEF7EF
:1067B00071FD4FF0010877E0002301930097334605
:1067C0002A4621461A48FEF765FD4FF001086BE0A6
:1067D00000230193009733462A4621461548FEF7C9
:1067E00059FD4FF001085FE0039B013B032B59D893
:1067F000DFE803F0222E3A46EEBC0D0010DB03204A
:10680000F7BC0D00FCBC0D0004BD0D000CBD0D005F
:1068100012BD0D0017BD0D001FBD0D0022BD0D00E6
:106820002BBD0D0034BD0D003DBD0D0046BD0D005E
:106830004FBD0D0058BD0D00002301930097334656
:106840002A4621463D48FEF725FD4FF001082BE082
:1068500000230193009733462A4621463848FEF725
:1068600019FD4FF001081FE0002301930097334604
:106870002A4621463348FEF70DFD4FF0010813E08C
:10688000002301932A46334621462F480097FEF7FE
:1068900001FD012002F040F810F1FF3818BF4FF061
:1068A000010801E04FF00108042103A8FFF7B2FD41
:1068B000E8B10023CDF804B000931A4649462046BB
:1068C000FFF7F2FD13E0002301932A4633462146E9
:1068D0001D480097FEF7DEFC012002F01DF810F1C4
:1068E000FF3818BF4FF0010801E04FF001084A4699
:1068F00021461648FDF7B8FCB8F1000F7FF4A9AEA9
:10690000052102A8FFF786FD40B10023CDF804B0B1
:1069100000931A4649462046FFF7C6FD0B484A46F3
:106920002146FDF7A1FC322001F07AF8BAF1000F00
:106930007FF417AE05B0BDE8F08F00BF62BD0D005B
:106940006ABD0D0073BD0D0012BD0D0010DB0320EC
:106950002DE9F0472DED028B7B4BD3F80090B9F178
:10696000010F82B040F0DB804FF002080F20C3F827
:10697000008001F0E4FF754B754C1A68754F764E38
:10698000764D90429A4635DAFA221A6023684345DA
:106990000AD10023019300931A4640F2FF111846D2
:1069A000FFF782FDC4F8009000244FF00108C7F8FB
:1069B000008034602C6001F0D9FF0520FDF74EFC0B
:1069C0000228DFF8909105D1634BC3F80080C9F825
:1069D00000400BE001F0CAFF0520FDF73FFC032853
:1069E00002BF5E4BC3F80080C9F800405C4B012237
:1069F0001A6094E02368012B0AD1002301930093CD
:106A00001A4640F2FF111846FFF74EFDC4F8008009
:106A10000F2001F094FF534B122490FBF4F0186008
:106A2000514B1B780F20002B53D001F088FF08EE4C
:106A3000100A0F2001F083FF08EE900A0F2001F0EA
:106A40007EFF90FBF4F038600F2001F078FFDFED5F
:106A5000477AF8EEE88A074688EEA77A17EE100A1A
:106A600002F000FB30A3D3E9002302F09DF9804639
:106A700097FBF4F0894602F0E3FA02460B464046E3
:106A8000494602F043FB02F0DBFD30600F2001F0CD
:106A900056FFDFED377AB8EEC88A804688EE277A4F
:106AA00017EE100A02F0DEFA21A3D3E9002302F068
:106AB0007BF9064698FBF4F00F4602F0C1FA024655
:106AC0000B463046394602F021FB02F0B9FD286042
:106AD00022E001F034FF90FBF4F038600F2001F069
:106AE0002EFF90FBF4F002F0ABFA13A3D3E90023DE
:106AF00002F00CFB02F0A4FD30600F2001F01FFF3C
:106B000090FBF4F002F09CFA0DA3D3E9002302F00D
:106B1000FDFA02F095FD28603C23CAF8003002B06F
:106B2000BDEC028BBDE8F087CDCCCCCCCCCCE43F27
:106B3000333333333333D33FCDCCCCCCCCCCEC3F1D
:106B40009A9999999999E93F24E3032040E3032016
:106B500034E30320D0DA03200CDB0320CCDA03205B
:106B600028E3032010E303202CE3032000401C460D
:106B700000A0A9452DE9F347FFF7EAFE3D4B1D684C
:106B8000012D66D13C4C3D4F3D4E23783A7831780B
:106B900000950020FEF7A2FB40F27F120021394849
:106BA000FDF762FB0020FEF705FD374B0F201D604F
:106BB00001F0C5FE354B1B689842A246B946B04667
:106BC0001EDB01F0D3FE0220FDF748FB012807D1B0
:106BD00021783B7832780091A0200021FFF7D8F887
:106BE000002001F099FE002833D1012001F094FE2D
:106BF00001282ED1022001F08FFE00282FD028E09E
:106C00002178DFF890803B78009101953278D8F8B0
:106C10000000A021FDF76CFD21783B7800913278CF
:106C2000D8F80000A021FEF773FC217818483B78C3
:106C300000910195327800684FF48071FEF7DCFB1B
:106C40001048FF22A021FDF70FFB4FF47A7000F0EF
:106C5000E7FE642002B0BDE8F04700F0E1BE9AF81C
:106C6000003099F8002098F800104FF48070FFF77A
:106C700043FCEEE728E30320CCDA03200CDB0320FF
:106C8000D0DA032010DB032024E3032040E30320B9
:106C900038E30320E4DA0320F8B5154B154C164F02
:106CA00001261E7000F082FA022310224FF4C071F8
:106CB000204600F07DF83A4610492046104C01F07D
:106CC000A9FE00254FF6FF73638130462560A5803D
:106CD000A571258100F00AFC3A460A49204601F0D8
:106CE00099FE29463046BDE8F84000F00FBC00BFD1
:106CF000E8DA0320F8DA0320C8DA0320116D0D006A
:106D000014E303204D420D0000F0A8BA00F09EBA33
:106D100010B50446C06808B100F0BCFC23781BB174
:106D20000021E07901F0CEFD204610BD38B50446C3
:106D3000C0680D4608B100F0ADFCA379062B0CBF6E
:106D40000420032010FB05F080B2A08000F09AFC24
:106D5000E06028B1A288002102F023FE658038BDE2
:106D6000A080608038BD10B504460121C07901F0D3
:106D7000A9FD0021E07901F0B6FD0123237010BDCB
:106D800038B5037805460C461BB10021C07901F0E7
:106D900099FD2B78EC7153B1A4B22046012101F08A
:106DA00091FD20460021BDE8384001F09CBD38BD72
:106DB00070B5002504461646837105700572C560DE
:106DC0000561FFF7B3FF20463146FFF7D9FF2046A4
:106DD00070BD0000C368002B00F08B812DE9F04FDF
:106DE0008379023BDBB2042B9CBFC44A52F8234098
:106DF00087B0054688BF3224FFF786FF2B69C01A8B
:106E0000A042F9D3BE4AAB8807CA06AC04E9070022
:106E1000039C1B01D4F800250433019322B9D4F854
:106E20006035002BC0F25581049CD4F8003523B99D
:106E3000D4F86035002BC0F23C81059CD4F80035B5
:106E40001BB9D4F86035002B6EDBAE4BEA791E68B7
:106E5000AD4CAE49E0681201B31840F080705B7829
:106E6000B75CE0600A6803F01F0343EA4713012799
:106E70003A430A600C46A888D5F80C90D4F804A0D0
:106E80009F408846002844D0CC4600224FF0A041C5
:106E90001CF801EB0820802663689B1A462BFBD95F
:106EA000D8F80420D1F808351EEA060F43EA070394
:106EB000C1F808352FD063689B1A282BFBD9D1F86D
:106EC0000C35013843EA07034FEA5606C1F80C3582
:106ED000E2D1C9EB0C03A8889BB29842D8D84FF4F2
:106EE000307303FB00F063689B1A462BFBD9D8F87C
:106EF0000430CAEB030A8245C0F0D5804FF4967087
:106F0000FFF704FFA888D5F80C90D4F804A0002857
:106F1000BAD10246E7E763689B1A112BCFD86368A2
:106F20009B1A112BF7D9CAE7D4F86435002B8CDAF9
:106F3000D4F86835002B88DAD4F86C35002B84DA65
:106F4000019800F09FFB00283FF47FAFAB88002B37
:106F500000F0D08000273B466D4E6E4900E013469E
:106F6000EA68D25D03F1010E12F0800F14BFB04643
:106F700088461FFA8EFE12F0400F14BFB1468946B4
:106F800012F0200F20F8138018BFB24620F81E9090
:106F900008BF8A4603F1020812F0100F03F1030E36
:106FA00014BFB4468C461FFA88F812F0080F1FFA77
:106FB0008EFE03F104091FFA89F914BFB3468B460C
:106FC00012F0040F20F818A020F81EC014BFB2461B
:106FD0008A4603F1050812F0020F03F1060C03F1D3
:106FE000070E20F819B01FFA8EFE14BFB14689466D
:106FF0001FFA88F812F0010F1FFA8CFC14BF3246FA
:107000000A4620F818A020F81C9020F81E2001370E
:10701000B5F804E0BFB203F10802BE4592B29ED8B3
:1070200003F109020A3392B29BB252005B0001994C
:107030004FF4004686524908C65200221423C4F871
:107040000425304EC4F80C25C4F80835C4F81425BE
:10705000C4F81025C4F82005C4F82415C4F8282560
:10706000C4F82C25EB7931681B01CE18C95C737804
:1070700003F01F0343EA41130121C4F86035C4F84B
:107080000015C4F81021A160D4F81031002BFBD0FA
:1070900000234FF0FF32C4F81031C4F80035C4F8B3
:1070A000602500F0F7FAFFF72FFE286107B0BDE872
:1070B000F08FD4F86435002BBFF6BFAED4F8683536
:1070C000002BBFF6BAAED4F86C35002BBFF6B5AEC8
:1070D00036E7D4F86435002BBFF6A6AED4F8683591
:1070E000002BBFF6A1AED4F86C35002BBFF69CAEDA
:1070F00026E770470423022299E700BF94BD0D00E4
:1071000088BD0D0044E30320F0ED00E0001000E036
:107110000D80FFFF0680FFFFF0B544889DF81450F6
:107120008C4227D9047A44B112FB04F214FB03F316
:1071300014FB05F4120A1B0A250A8779C66801EBBD
:107140004101082F06EB010411D80120B84010F4CA
:10715000D27F08D1C0060AD5FF2A08BFFE2272548A
:107160006570A370F0BD73546270A570F0BD725469
:107170006370A570F0BD000008B500F017F800F0CE
:1071800015F8014B186008BD44E3032008B5024B15
:107190001B689B68019308BD6802030008B5024B99
:1071A0001B68DB68019308BD6802030008B5024B49
:1071B0001B681B68019308BD2C02030008B5024B35
:1071C0001B685B68019308BD2C02030008B5024BE5
:1071D0001B689B68019308BD2C02030008B5024B95
:1071E0001B68DB68019308BD2C02030008B5024B45
:1071F0001B681B69019308BD2C02030008B5024BF4
:107200001B685B69019308BD2C02030008B5024BA3
:107210001B681B6B019308BD2C02030008B5024BD1
:107220001B68DB69019308BD3002030008B5024BFF
:107230001B681B6A019308BD3002030008B5024BAE
:107240001B685B68019308BD1802030008B5024B78
:107250001B68DB68019308BD1802030008B5024BE8
:107260001B681B69019308BD1802030008B5024B97
:107270001B685B69019308BD1802030008B5024B47
:107280001B68DB69019308BD1802030008B5024BB7
:107290001B689B6A019308BD1802030008B5024BE6
:1072A0001B68DB6A019308BD1802030008B5024B96
:1072B0001B681B6B019308BD1802030008B5024B45
:1072C0001B689B6D019308BD1802030008B5024BB3
:1072D0001B68DB6D019308BD1802030008B5024B63
:1072E0001B689B68019308BD4802030008B5024B68
:1072F0001B681B69019308BD4802030008B5024BD7
:107300001B685B69019308BD4802030008B5024B86
:107310001B685B6C019308BD4802030008B5024B73
:107320001B689B6C019308BD4802030008B5024B23
:107330001B685B69019308BD6402030008B5024B3A
:107340001B681B68019308BD3C02030008B5024B93
:107350001B68DB68019308BD3C02030008B5024BC3
:107360001B681B69019308BD3C02030008B5024B72
:107370001B685B69019308BD3C02030008B5024B22
:107380001B689B69019308BD3C02030008B5024BD2
:107390001B68DB69019308BD3C02030008B5024B82
:1073A0001B681B6A019308BD3C02030008B5024B31
:1073B0001B689B6A019308BD3C02030008B5024BA1
:1073C0001B681B6A019308BD2802030008B5024B25
:1073D0001B685B6A019308BD2802030008B5024BD5
:1073E0001B689B6A019308BD2802030008B5024B85
:1073F0001B68DB6A019308BD2802030008B5024B35
:107400001B681B6B019308BD2802030008B5024BE3
:107410001B685B6B019308BD2802030008B5024B93
:107420001B681B6C019308BD2802030008B5024BC2
:107430001B681B68019308BD4C02030008B5024B92
:107440001B681B69019308BD4C02030008B5024B81
:107450001B685B69019308BD4C02030008B5024B31
:107460001B689B69019308BD4C02030008B5024BE1
:107470001B68DB69019308BD4C02030008B5024B91
:107480001B681B6A019308BD4C02030008B5024B40
:107490001B685B68019308BD6002030008B5024BDE
:1074A0001B689B68019308BD6002030008B5024B8E
:1074B0001B68DB68019308BD6002030008B5024B3E
:1074C0001B689B69019308BD6002030008B5024B6D
:1074D0001B68DB69019308BD6002030008B5024B1D
:1074E0001B681B68019308BD2002030008B5024B0E
:1074F0001B685B68019308BD2002030008B5024BBE
:107500001B685B69019308BD2002030008B5024BAC
:107510001B68DB6A019308BD2002030008B5024B1B
:107520001B68DB6C019308BD2002030008B5024B09
:107530001B685B6D019308BD2002030008B5024B78
:107540001B689B6D019308BD2002030008B5034B27
:107550001B68D3F88830019308BD000020020300A7
:1075600008B5034B1B68D3F89430019308BD0000A5
:107570002002030008B5024B1B685B68019308BD3D
:107580004002030008B5024B1B689B68019308BDCD
:107590004002030008B5024B1B68DB68019308BD7D
:1075A0004002030008B5024B1B681B69019308BD2C
:1075B0004002030008B5024B1B685B69019308BDDC
:1075C0004002030008B5024B1B689B69019308BD8C
:1075D0004002030008B5024B1B68DB69019308BD3C
:1075E0004002030008B5024B1B681B6A019308BDEB
:1075F0004002030008B5024B1B681B6B019308BDDA
:107600004002030008B5024B1B685B6B019308BD89
:107610004002030008B5024B1B681B68019308BDBC
:107620004402030008B5024B1B689B68019308BD28
:107630004402030008B5024B1B685B69019308BD57
:107640004402030008B5024B1B681B6A019308BD86
:107650004402030008B5024B1B685B6A019308BD36
:107660004402030008B5024B1B681B6B019308BD65
:107670004402030008B5024B1B68DB6B019308BD95
:107680004402030008B5024B1B681B68019308BD48
:107690001C02030008B5024B1B685B68019308BD20
:1076A0001C02030008B5024B1B689B69019308BDCF
:1076B0001C02030008B5024B1B68DB6A019308BD7E
:1076C0001C02030008B5024B1B681B6B019308BD2D
:1076D0001C020300002211464068FFF783BF00220E
:1076E00011464068FFF78EBF00224068FFF782BF57
:1076F000002281F001014068FFF76CBF00231A46A9
:1077000019464068FFF75EBF00231A4619464068D5
:10771000FFF750BF002211464068FFF743BF002229
:1077200011464068FFF72EBF002202214068FFF794
:1077300031BF00231A464068FFF71CBF024B0322EB
:107740005A60024A1A60704748E30320B0BD0D003A
:1077500010B5044601700846FFF760FD0023636022
:10776000204610BD0078FFF761BD000010B5094C40
:1077700000204FF6FF732060A080A07120816381FC
:10778000FFF7B4FE2046044A0449BDE8104001F06A
:1077900041B900BF50E30320C8DA03204D420D0079
:1077A00010B50446006808B1FFF7B8FD204610BDCB
:1077B00010B5036804469B689847A368013BA36023
:1077C0002BB923682046DB68BDE81040184710BD80
:1077D0000B68036013B15A6801325A60704710B5E4
:1077E0000446006828B14368013B43600BB9FFF7CA
:1077F000DFFF204610BD000010B5064C00232046D8
:107800002360FFF783FD2046034A0449BDE810408A
:1078100001F000B95CE30320C8DA0320A1770D0072
:10782000F8B506460D468F180024BD420CD03368CB
:1078300015F8011B9B6830469847002801DB04447B
:10784000F3E7002C08BF04462046F8BD70B5054696
:107850000C46084649B102F002F92B68024621465F
:107860002846DB68BDE87040184770BD03689B6818
:10787000184730B58BB00B4600218DF82410012A33
:1078800098BF0A220DF12304B3FBF2F505FB123376
:1078900003F0FF03092B94BF30333733DBB22146AB
:1078A00004F801392B46002DEED1FFF7CFFF0BB0C6
:1078B00030BD0000014B024A1A60704760E30320AC
:1078C0004FBE0D00F0B5144B144F1E68144B064408
:1078D00018683B6806449E428BB01BD00AA801ADD5
:1078E00040F8286D01F056FF436903F26C73436161
:1078F00004460FCC0FC50FCC0FC5D4F800E0C5F877
:1079000000E001AD0FCD074C0FC40FCD0FC43E609A
:10791000C4F800E00BB0F0BD94E3032090E3032033
:107920008CE3032064E3032008B50020FFF79AFEF0
:1079300028B1FFF77FFE80F00100C0B208BD012032
:1079400008BD000008B5FFF7BDFF044B986818B1EB
:107950000C2802DD0C3808BD0C2008BD64E30320B0
:10796000FAEE087AB4EEE70AF1EE10FA0FD4F2EE6E
:107970000C7AB4EEE70AF1EE10FA08DCDFED047AD7
:10798000044B20EE270ABDEEC00A83ED000A7047C3
:107990000000614594E3032010B50020FFF78EFC42
:1079A000044668B9FFF79AFD01280BD12046FFF77E
:1079B000C5FD38B9FFF7B8FF30B9FFF733FEF9E777
:1079C000012010BD002010BDFFF7AEFF0020FFF723
:1079D00075FC003018BF012010BD08B5FFF7DCFFB3
:1079E000BDE80840FFF74ABC08B5FFF7F6FFBDE861
:1079F0000840FFF7A7BF000008B5FFF7EEFFFFF74D
:107A000061FF014B586808BD64E30320024B1A680C
:107A1000024B1A60704700BFD8D9032088E30320C7
:107A20000021FFF76BBD10B58368044613B1032234
:107A300001469847204610BD10B50446FFF7F3FFF6
:107A4000204610BD10B50446FFF738FD844208D02B
:107A50001CB1BDE81040FFF721BDBDE81040FFF7A5
:107A600025BD10BD70B505460E461446FFF726FD30
:107A700050B144EA062040EA0540FFF707FDE72041
:107A8000BDE87040FFF722BD70BD13B50B4604463C
:107A900003C88DE8030093E8030084E803009DE831
:107AA000030083E8030002B010BD00000348044A4D
:107AB00004490023836000F0ADBF00BF98E30320BA
:107AC000C8DA0320397A0D0008B50C4B33B100F049
:107AD00017FC03681B699847002809DC084B63B151
:107AE00000F0DCFC03681B699847002803DC08BD34
:107AF000AFF30080F2E7AFF3008008BD00000000A4
:107B00000000000008B5FFF7DFFFFFF7AFFB014BF8
:107B1000186008BD00E703200248034A0349121A0F
:107B200001F034BF00F4032004F40320E0C30D008F
:107B300007B5002300931A466FF07701FFF710FD99
:107B400003B05DF804FB000007B543880A2B08D09A
:107B5000502B09D1094B1B683BB103B05DF804EB16
:107B60001847FFF7E5FF06E0002300931A466FF081
:107B70007701FFF7F5FC03B05DF804FBA8E30320F1
:107B800038B5104C104D2368AB42104B0CBF01228E
:107B900000221A7002D0FFF7BFFF2560FFF74EFBEF
:107BA000044601F007FF0A4B13B12046AFF30080F3
:107BB00000210748FFF75EFD00210648BDE8384078
:107BC000FFF7C4BC00F403201E1C279AACE303207B
:107BD00000000000497B0D0070470020704710B581
:107BE0001021044600F024FF204610BD08B508B15E
:107BF000FFF7F5FF08BD0022026010B54FF69C723A
:107C00008280B1F9044084808A8002680C68046034
:107C10000A6010BD10B504460068FFF73BFD204622
:107C200010BD38B5C468F4B12378022B03D104F138
:107C30000C00FFF7EFFF656835B12846FFF7F3FE4C
:107C40001021284600F0F4FEA56835B12846FFF75C
:107C5000EAFE1021284600F0EBFE20461421BDE884
:107C6000384000F0E5BE38BD13B5044691E8050084
:107C700000234B600B602060626001A801930093B9
:107C8000FFF7ADFD204602B010BDF7B50C4602ADC2
:107C900054F8043B45F8083D06460F4601A8214626
:107CA000FFF796FD29463046FFF7DEFF01A8FFF7F4
:107CB00096FD2046FFF793FD3846082100F0B8FEF8
:107CC000304603B0F0BD000038B500230446036021
:107CD00010200D46FCF7E1F928B1012343608360D1
:107CE000024B0360C5602060204638BDECBE0D002D
:107CF000826810B50AB900F0AEFEC368BDE8104056
:107D0000184708B5006800F11001FFF7F1FF08BD42
:107D1000826810B50AB900F09EFEC368BDE8104045
:107D2000184708B5006800F11001FFF7F1FF08BD22
:107D300038B5002383608B6804460D462BB10222C0
:107D40009847EB68E360AB68A360204638BD00004D
:107D5000F0B589B004686846FFF74DFF00238DF841
:107D600008304FF00202D4E84F3F002B03D1C4E8A3
:107D7000412F0029F7D102D08DF8083063E014F1CB
:107D80000C0503D069462846FFF735FFBFF35F8F28
:107D900001236370002004F10803BFF35F8F53E8F1
:107DA000006F43E80002002AF9D1BFF35F8F002E75
:107DB00049D0FFF7B3FB20B129463046FFF798FFC3
:107DC0003AE0314602A8FFF7B3FFE068B4F910507B
:107DD00008B101F029FE06901020ADF81C50FCF708
:107DE0005CF90546E8B1002787601820FCF755F9D3
:107DF000044688B10146876002A8FFF746FE049B4F
:107E0000A268A360059B049206A9E268E36004F1FE
:107E100010000592FFF7EFFE0D4BEB600D4B2C6051
:107E2000AB6006A8FFF7F6FE02A8FFF7FCFD0022F4
:107E300029460948FFF77AFB3046FFF7F4FD102189
:107E4000304600F0F5FD6846FFF7E4FE09B0F0BDEE
:107E5000037D0D00797F0D00E9840D002DE9F04FC1
:107E60008BB006460F46904699469DF850A0FFF706
:107E7000E1FB07AD834630BB4FF62E73059005A995
:107E80002846ADF81830FFF7B6FE1420FCF705F9C8
:107E9000044658B10223037001234370C0F804B0B4
:107EA000C0F808B029460C30FFF7A5FE3046214641
:107EB00040F8044BFFF708FF2846FFF7ABFE05A884
:107EC000FFF7A8FE52E000240C2314206C60AC6085
:107ED0000793FCF7E2F8014618B10470447044605F
:107EE000846004A80391FFF7EFFE224B089308205B
:107EF000FCF7D3F8044628B1039B40F8043B04A9DF
:107F0000FFF766FC00955FFA8AF34A464146384619
:107F10000994FFF797FB20B9039B5B7803F0FF02FE
:107F200083B1039B059304A906A8FFF751FC05A99B
:107F30003046FFF799FE06A8FFF751FC04A8FFF7AB
:107F40004EFC13E04FF69C7305A903A80592ADF80B
:107F50001830FFF7FDFE05A8FFF75CFE05A809999C
:107F6000FFF793FE06A8FFF73AFCDAE730460BB0BE
:107F7000BDE8F08FE9800D00022AF8B5044606D06E
:107F8000032A17D0012A22D10B6803601FE01820B2
:107F90000E68FCF782F8054650B13146FFF7C8FE7F
:107FA0003069B6F9147008B101F03EFD2861AF8266
:107FB00025600CE0046854B104F11000FFF72AFEBC
:107FC0002046FFF730FD1821204600F031FD00204B
:107FD000F8BD38B5002383608B6804460D462BB18D
:107FE00002229847EB68E360AB68A360204638BD87
:107FF000022A70B5044606D0032A11D0012A18D1EE
:108000000B68036015E014200E68FCF746F805467F
:1080100020B13146FFF7DDFF337C2B74256008E08B
:10802000046834B12046FFF7FEFC1421204600F01E
:10803000FFFC002070BD0000F0B5002387B00C46A7
:10804000BFF35F8F50E8006F40E80032002AF9D19B
:10805000BFF35F8F002E3FD01846FFF75FFA074649
:1080600020B121463046FFF753FE2EE0314601A8ED
:10807000FFF7AFFF23788DF814301020FCF70DF8D0
:108080000546D0B187601420FCF707F8044678B1A4
:108090008760014601A8FFF7F8FC039BA268A36074
:1080A000049B0392E268E3609DF814300492237409
:1080B0000A4BEB600A4B2C60AB6001A8FFF7B3FCE6
:1080C000002229460748FFF731FA3046FFF7ABFC9C
:1080D0001021304600F0ACFC07B0F0BD237D0D0050
:1080E000F17F0D00E9840D0030B585B004460D46E2
:1080F00068461146FFF7C9FD7CB124B228460DB190
:1081000001F092FC029002A96846ADF80C40FFF71E
:108110001FFE02A8FFF77EFD1DE000988DF80840C5
:108120004FF00102D0E84F3FA34203D1C0E8412FF6
:108130000029F7D102D08DF808300CE010F10C01C5
:108140004FF0010318BF0373BFF35F8F043000F8D3
:10815000033CFFF771FF01A8FFF741FB05B030BDFD
:10816000704710B51821044600F062FC204610BD8F
:10817000F0B5037D062B8DB00E4600F104074FF0DD
:10818000000402D000F1080518E00CAD394605F8EE
:10819000304D2F232A460A20FFF7C8F8284601F061
:1081A0005EFC33680246DB682946304698470FE09C
:1081B00024B12E213046FFF759FB044415F8011D68
:1081C0000A223046FFF755FBBD420444F0D1204659
:1081D0000DB0F0BD10B5054B0446112240F8043B2C
:1081E000002101F0DEFB204610BD00BF08BF0D00DE
:1081F0000346074A10B543F8042B01F1100251F869
:10820000044B43F8044B9142F9D10A781A7010BD1F
:1082100008BF0D0010B59DF8084044EA032343EA67
:10822000024242EA016104234160037510BD37B583
:108230000D788B784A78C97800912946FFF7EAFFD4
:1082400003B030BD41747047704708B50021007C11
:10825000FFF704F930EA200028BF4FF0FF3008BDD7
:1082600008B50121007CFFF7F9F830EA200028BFAB
:108270004FF0FF3008BD08B5007CFFF7E7F820EAB3
:10828000E07008BD08B5007CFFF7D8F820EAE07080
:1082900008BD007CFFF7F2B810B51421044600F0C9
:1082A000C7FB204610BD38B50446007C0D46FFF7DD
:1082B000CDF8002801DC607C28B12946207CFFF73E
:1082C000D5F820EAE07038BD10B50446002363609D
:1082D0004FF47A73A360054B236001230846217491
:1082E00063741146FFF7A2F8204610BD1CBF0D00B5
:1082F00010B514220446002101F053FB204610BDA6
:1083000030B50E4D87B001A8FFF7F2FF296811F0D4
:10831000010410D12846FBF7C6FE60B101AA214630
:108320000748FFF7D1FF2846FBF7C2FE054A06497A
:10833000034800F06FFB024807B030BDB0E30320F4
:10834000B4E30320C8DA032049820D00002211465D
:108350004068FFF727B9002211464068FFF742B98D
:10836000002211464068FFF74DB900224068FFF730
:1083700041B9002281F001014068FFF72BB90023C9
:108380001A4619464068FFF71DB900231A461946D8
:108390004068FFF70FB9002211464068FFF7F2B8B6
:1083A000002202214068FFF7F5B800231A46406812
:1083B000FFF7E0B838B5084C28252A4600212046AA
:1083C00001F0EFFA4FF0FF336360044B2580042285
:1083D0005A60034A1A6038BDD0E30320C8E3032083
:1083E0004CBF0D0070474174704708B5007CFEF724
:1083F000DDFF20EAE07008BD08B5007CFEF7AEFFA7
:1084000020EAE07008BD08B5007CFEF7B7FF30EA4F
:10841000200028BF4FF0FF3008BD08B5007CFEF7F4
:10842000A5FF30EA200028BF4FF0FF3008BD007CD8
:10843000FEF7ACBF10B51421044600F0F9FA20464F
:1084400010BD70B5457C04460E4625B9007CFEF78C
:10845000ADFF002805DD3146207CBDE87040FEF709
:1084600075BF284670BD000010B504460846114689
:10847000002262604FF47A72A260054A22600122F3
:10848000207462741A46FEF759FF204610BD00BFE3
:1084900080BF0D00007CFEF781BF000038B50C4D99
:1084A000296811F0010411D12846FBF7FCFD68B1E1
:1084B000084A094B09482146FFF7D6FF2846FBF733
:1084C000F7FD074A0749054800F0A4FA034838BDFC
:1084D00090E4032094E403200CE40320F8E3032059
:1084E000C8DA0320E5830D0010B5836804460BB994
:1084F00000F0B1FAC3689847A3681BB10322214674
:108500002046984720461021BDE8104000F090BA60
:108510007047F8B5064615460C468F18BC4206D083
:10852000336814F8011B9B6830469847F6E72846E5
:10853000F8BD0022007CFEF741BF0021007CFEF761
:1085400045BF0021007CFEF749BF0021007CFEF7FB
:108550004DBF0021007CFEF751BF10B51421044629
:1085600000F066FA204610BD10B504460023636093
:108570004FF47A73A360044B2174084623601146BC
:10858000FEF74CFF204610BDB0BF0D000021007C5F
:10859000FEF73CBF002211464068FFF723B80022D7
:1085A00011464068FFF72EB800224068FFF722B856
:1085B000002281F001014068FFF70CB800231A4641
:1085C00001214068FEF7FEBF00231A4619464068A5
:1085D000FEF7F0BF002211464068FEF7E3BF00221D
:1085E00011464068FEF7CEBF002202214068FEF728
:1085F000D1BF00231A464068FEF7BCBF38B5054618
:1086000088B104684CB1A3681BB1032221462046FF
:1086100098471021204600F00BFA28461421BDE8A7
:10862000384000F005BA38BD10B103685B681847E0
:10863000704710B503680446BBB15868FEF74EFE9C
:1086400078B923685A7C12B95868FEF74FFE236840
:108650005868FEF753FE20680023236028B1FFF717
:10866000CDFF206808B1FFF7C9FF204610BD38B51F
:108670000446D0F8C40108B1FBF713FDD4F8C001DB
:1086800008B1FEF74BFED4F8BC5135B12846FFF7D0
:10869000D0FF0421284600F0CBF9206808B1FFF78D
:1086A000C3FF204638BD000010B5044B044640F817
:1086B000083BFFF7DCFF204610BD00BFD8BF0D0010
:1086C00038B50E4C0E4B23600025022304F5E470F0
:1086D0006360A560C4F8C451C4F8C851FEF716FE23
:1086E000084BC4F8CC5184F8D05123602046064A88
:1086F0000649BDE8384000F08DB900BF18E50320F9
:108700000CC00D00D8BF0D00C8DA0320A9860D00EB
:1087100000231A464068FEF72DBF00220221406860
:10872000FEF738BF002211464068FEF72BBF00223B
:1087300011464068FEF736BF00231A4619464068C6
:10874000FEF738BF00231A4619464068FEF73ABFC5
:10875000002281F001014068FEF73CBF0022406822
:10876000FEF748BF002211464068FEF74BBF0022CB
:1087700011464068FEF736BF2DE9F043002495B05E
:1087800016460D460746FFF725FD214620220CA878
:10879000009401F006F940230C9321466B460CAA85
:1087A0003046FEF7FBFC0446002844D10246012176
:1087B0006868FEF7F7FE0221804622466868FEF7E9
:1087C000F1FE009E81462146002E34D0002932D190
:1087D0007368022B02D00A2B09D02AE0B8F1000FEF
:1087E00027D0716938460431FFF721FD20E0B9F147
:1087F000000F1ED07469112201A801F0D2F80623DF
:108800008DF8143001AD04F1080318341868596864
:108810002A4603C20833A3421546F7D101A906A888
:1088200007ADFFF7E5FC0FCD3C1D0FC42B6823708F
:108830000121F669C8E70098FEF7A8FC384615B094
:10884000BDE8F083024B034A1A6000225A60704769
:10885000ECE603200CC00D0070B5184E316811F025
:10886000010504460AD13046FBF71DFC30B129460C
:108870001348FEF76DFF3046FBF71AFC1048FEF771
:1088800071FF28B1A4F10B03022B01D8002070BDA9
:1088900000F09AF8FFF77AFE08B1012CF6D9FFF73D
:1088A000FDFDFFF7F7FD18B1A4F10903012BEDD988
:1088B000232C8CBF0020012070BD00BFF4E60320F4
:1088C000F8E60320232838B504460D460AD8FF29C8
:1088D00008D0FFF7C1FF28B129462046BDE838403F
:1088E000FEF774BC38BD38B504460D46FEF776FC7D
:1088F000FF2810D0062804D84D2323FA00F0C30720
:1089000009D42046FFF7A8FF28B129462046BDE834
:108910003840FEF76BBC38BD10B50446FEF75EFC70
:108920000438C0B2012808D92046FFF795FF20B1CE
:108930002046BDE81040FEF761BC002010BD0D28A8
:1089400010B504469CBF0E34A4B22046FFF784FF46
:1089500050B103212046FEF731FC032804D1204604
:10896000BDE81040FEF752BC002010BD10B5074C0A
:108970002368DB0708D42046FBF795FB20B1FEF700
:1089800085FC2046FBF794FB014810BD04E703205B
:1089900008E7032070B5044614252A46094E002135
:1089A00000F0FFFF258020253146A560256128467F
:1089B00000F040F831466060284600F03BF8E06087
:1089C000204670BD38C00D0030B50E4D296811F03D
:1089D000010487B013D12846FBF765FB78B101A8E5
:1089E000FFF7D8FF01AA21460748FFF7BDFD28463B
:1089F000FBF75EFB054A0649034800F00BF8024806
:108A000007B030BD0CE7032010E70320C8DA0320CD
:108A100011850D000B460146184600F0ADBE000062
:108A2000024B1868BFF35F8F704700BF24E7032035
:108A3000FBF735BB00F000B810B5002814BF0446A2
:108A400001242046FEF71EFE20B9FFF7E9FF08B11A
:108A50008047F6E710BD08B5FEF72CFE184B1A68E4
:108A6000D1075CBF01221A60164B1A68D2075CBF9F
:108A700001221A60144B1A68D0075CBF01221A60E9
:108A8000124B1A68D1075CBF01221A60104B1A689A
:108A9000D2075CBF01221A600E4B1A68D0075CBF78
:108AA00001221A600C4B1A68D1075CBF01221A60C0
:108AB0000A4B1A68D2075CBF01221A60704700BFD8
:108AC00044E7032040E703203CE7032038E7032086
:108AD00034E7032030E703202CE7032028E70320B6
:108AE000244B1A68D0075CBF01221A60224B1A6817
:108AF000D1075CBF01221A60204B1A68D2075CBF05
:108B000001221A601E4B1A68D0075CBF01221A604E
:108B10001C4B1A68D1075CBF01221A601A4B1A68F5
:108B2000D2075CBF01221A60184B1A68D0075CBFDD
:108B300001221A60164B1A68D1075CBF01221A6025
:108B4000144B1A68D2075CBF01221A60124B1A68D4
:108B5000D0075CBF01221A60104B1A68D1075CBFB6
:108B600001221A600E4B1A68D2075CBF01221A60FC
:108B7000704700BF74E7032070E703206CE7032011
:108B800068E7032064E7032060E703205CE7032035
:108B900058E7032054E7032050E703204CE7032065
:108BA00048E70320244B1A68D0075CBF01221A60F3
:108BB000224B1A68D1075CBF01221A60204B1A6849
:108BC000D2075CBF01221A601E4B1A68D0075CBF37
:108BD00001221A601C4B1A68D1075CBF01221A607F
:108BE0001A4B1A68D2075CBF01221A60184B1A6828
:108BF000D0075CBF01221A60164B1A68D1075CBF10
:108C000001221A60144B1A68D2075CBF01221A6055
:108C1000124B1A68D0075CBF01221A60104B1A6809
:108C2000D1075CBF01221A600E4B1A68D2075CBFE5
:108C300001221A60704700BFA4E70320A0E70320C9
:108C40009CE7032098E7032094E7032090E70320A4
:108C50008CE7032088E7032084E7032080E70320D4
:108C60007CE7032078E70320184B1A68D1075CBF24
:108C700001221A60164B1A68D2075CBF01221A60E3
:108C8000144B1A68D0075CBF01221A60124B1A6895
:108C9000D1075CBF01221A60104B1A68D2075CBF73
:108CA00001221A600E4B1A68D0075CBF01221A60BD
:108CB0000C4B1A68D1075CBF01221A600A4B1A6874
:108CC000D2075CBF01221A60704700BFC4E70320CF
:108CD000C0E70320BCE70320B8E70320B4E7032084
:108CE000B0E70320ACE70320A8E70320F8B553EC76
:108CF000102BC3F30A54A4F2FF301328194610EEC8
:108D0000107A12DC002832DB234E064133421D4626
:108D10002AD04FF400210141294421EA0601002410
:108D20000B46224643EC102BF8BD332805DDB0F589
:108D3000806F22D043EC102BF8BDA4F213444FF007
:108D4000FF3525FA04F42242F4D00123C0F13300A8
:108D500003FA00F0C01928BFC91820EA04040B4622
:108D6000224643EC102BF8BD002AD2D1E2E70130B5
:108D700003F0004109D00024D2E710EE100A194692
:108D800000F012F841EC100BF8BD41F07F5141F4B6
:108D900040110024C4E700BFFFFF0F0081F0004135
:108DA00002E000BF83F0004330B54FEA41044FEAD0
:108DB000430594EA050F08BF90EA020F1FBF54EA6B
:108DC000000C55EA020C7FEA645C7FEA655C00F007
:108DD000E2804FEA5454D4EB5555B8BF6D420CDDD8
:108DE0002C4480EA020281EA030382EA000083EA5B
:108DF000010180EA020281EA0303362D88BF30BDFB
:108E000011F0004F4FEA01314FF4801C4CEA113150
:108E100002D0404261EB410113F0004F4FEA0333AF
:108E20004CEA133302D0524263EB430394EA050F3A
:108E300000F0A780A4F10104D5F1200E0DDB02FAA9
:108E40000EFC22FA05F2801841F1000103FA0EF23D
:108E5000801843FA05F359410EE0A5F120050EF103
:108E6000200E012A03FA0EFC28BF4CF0020C43FA34
:108E700005F3C01851EBE37101F0004507D54FF041
:108E8000000EDCF1000C7EEB00006EEB0101B1F591
:108E9000801F1BD3B1F5001F0CD349085FEA3000D7
:108EA0004FEA3C0C04F101044FEA445212F5800FE2
:108EB00080F09A80BCF1004F08BF5FEA500C50F17F
:108EC000000041EB045141EA050130BD5FEA4C0C62
:108ED000404141EB010111F4801FA4F10104E9D1EB
:108EE00091F0000F04BF01460020B1FA81F308BFE2
:108EF0002033A3F10B03B3F120020CDA0C3208DDAE
:108F000002F1140CC2F10C0201FA0CF021FA02F188
:108F10000CE002F11402D8BFC2F1200C01FA02F1F8
:108F200020FA0CFCDCBF41EA0C019040E41AA2BF1D
:108F300001EB0451294330BD6FEA04041F3C1CDAE5
:108F40000C340EDC04F11404C4F1200220FA04F005
:108F500001FA02F340EA030021FA04F345EA0301AF
:108F600030BDC4F10C04C4F1200220FA02F001FA71
:108F700004F340EA0300294630BD21FA04F02946F3
:108F800030BD94F0000F83F4801306BF81F480118C
:108F90000134013D4EE77FEA645C18BF7FEA655CFF
:108FA00029D094EA050F08BF90EA020F05D054EAD1
:108FB000000C04BF1946104630BD91EA030F1EBFD6
:108FC0000021002030BD5FEA545C05D140004941DA
:108FD00028BF41F0004130BD14F580043CBF01F5CD
:108FE000801130BD01F0004545F0FE4141F47001B3
:108FF0004FF0000030BD7FEA645C1ABF194610468E
:109000007FEA655C1CBF0B46024650EA013406BF8E
:1090100052EA033591EA030F41F4002130BD00BF4D
:1090200090F0000F04BF0021704730B54FF480640A
:1090300004F132044FF000054FF0000150E700BF8B
:1090400090F0000F04BF0021704730B54FF48064EA
:1090500004F1320410F0004548BF40424FF00001D7
:109060003EE700BF42004FEAE2014FEA31014FEA1A
:1090700002701FBF12F07F4393F07F4F81F0605169
:10908000704792F0000F14BF93F07F4F704730B5D8
:109090004FF4607401F0004521F0004120E700BF6B
:1090A00050EA010208BF704730B54FF000050AE0F2
:1090B00050EA010208BF704730B511F0004502D5F3
:1090C000404261EB41014FF4806404F132045FEAF5
:1090D000915C3FF4DCAE4FF003025FEADC0C18BF9A
:1090E00003325FEADC0C18BF033202EBDC02C2F190
:1090F000200300FA03FC20FA02F001FA03FE40EA22
:109100000E0021FA02F11444C1E600BF70B54FF021
:10911000FF0C4CF4E06C1CEA11541DBF1CEA135503
:1091200094EA0C0F95EA0C0F00F0DEF82C4481EA6B
:10913000030621EA4C5123EA4C5350EA013518BF8B
:1091400052EA033541F4801143F4801338D0A0FB78
:1091500002CE4FF00005E1FB02E506F00042E0FB25
:1091600003E54FF00006E1FB03569CF0000F18BF2B
:109170004EF0010EA4F1FF04B6F5007F64F54074D3
:1091800004D25FEA4E0E6D4146EB060642EAC62166
:1091900041EA55514FEAC52040EA5E504FEACE2ED3
:1091A000B4F1FD0C88BFBCF5E06F1ED8BEF1004FD6
:1091B00008BF5FEA500E50F1000041EB045170BD52
:1091C00006F0004646EA010140EA020081EA030196
:1091D000B4EB5C04C2BFD4EB0C0541EA045170BD92
:1091E00041F480114FF0000E013C00F3AB8014F10C
:1091F000360FDEBF002001F0004170BDC4F1000455
:10920000203C35DA0C341BDC04F11404C4F12005D5
:1092100000FA05F320FA04F001FA05F240EA020030
:1092200001F0004221F0004110EBD37021FA04F666
:1092300042EB06015EEA430E08BF20EAD37070BD20
:10924000C4F10C04C4F1200500FA04F320FA05F07F
:1092500001FA04F240EA020001F0004110EBD37081
:1092600041F100015EEA430E08BF20EAD37070BDF1
:10927000C4F1200500FA05F24EEA020E20FA04F3CA
:1092800001FA05F243EA020321FA04F001F0004179
:1092900021FA04F220EA020000EBD3705EEA430EEA
:1092A00008BF20EAD37070BD94F0000F0FD101F019
:1092B0000046400041EB010111F4801F08BF013C52
:1092C000F7D041EA060195F0000F18BF704703F090
:1092D0000046520043EB030313F4801F08BF013D17
:1092E000F7D043EA0603704794EA0C0F0CEA1355D3
:1092F00018BF95EA0C0F0CD050EA410618BF52EA8D
:109300004306D1D181EA030101F000414FF0000092
:1093100070BD50EA410606BF1046194652EA4306A0
:1093200019D094EA0C0F02D150EA013613D195EA14
:109330000C0F05D152EA03361CBF104619460AD15C
:1093400081EA030101F0004141F0FE4141F4700166
:109350004FF0000070BD41F0FE4141F4780170BD56
:1093600070B54FF0FF0C4CF4E06C1CEA11541DBFBB
:109370001CEA135594EA0C0F95EA0C0F00F0A7F8BD
:10938000A4EB050481EA030E52EA03354FEA0131EA
:1093900000F088804FEA03334FF0805545EA1313FD
:1093A00043EA12634FEA022245EA111545EA1065C5
:1093B0004FEA00260EF000419D4208BF964244F15C
:1093C000FD0404F5407402D25B084FEA3202B61A7B
:1093D00065EB03055B084FEA32024FF480104FF44F
:1093E000002CB6EB020E75EB030E22BFB61A7546C3
:1093F00040EA0C005B084FEA3202B6EB020E75EB56
:10940000030E22BFB61A754640EA5C005B084FEABD
:109410003202B6EB020E75EB030E22BFB61A75468A
:1094200040EA9C005B084FEA3202B6EB020E75EB95
:10943000030E22BFB61A754640EADC0055EA060E56
:1094400018D04FEA051545EA16754FEA06164FEA99
:10945000C30343EA52734FEAC2025FEA1C1CC0D145
:1094600011F4801F0BD141EA00014FF000004FF0D2
:10947000004CB6E711F4801F04BF01430020B4F193
:10948000FD0C88BFBCF5E06F3FF6AFAEB5EB030C4B
:1094900004BFB6EB020C5FEA500C50F1000041EB48
:1094A000045170BD0EF0004E4EEA113114EB5C0415
:1094B000C2BFD4EB0C0541EA045170BD41F48011E8
:1094C0004FF0000E013C90E645EA060E8DE60CEAF0
:1094D000135594EA0C0F08BF95EA0C0F3FF43BAF0D
:1094E00094EA0C0F0AD150EA01347FF434AF95EAC4
:1094F0000C0F7FF425AF104619462CE795EA0C0FA8
:1095000006D152EA03353FF4FDAE1046194622E774
:1095100050EA410618BF52EA43067FF4C5AE50EA4E
:1095200041047FF40DAF52EA43057FF4EBAE12E73E
:109530004FF0FF3C06E000BF4FF0010C02E000BF1F
:109540004FF0010C4DF804CD4FEA410C7FEA6C5C02
:109550004FEA430C18BF7FEA6C5C1BD001B050EAA5
:10956000410C0CBF52EA430C91EA030F02BF90EA90
:10957000020F0020704710F1000F91EA030F58BF4F
:10958000994208BF90422CBFD8176FEAE37040F0B1
:10959000010070474FEA410C7FEA6C5C02D150EA4F
:1095A000013C07D14FEA430C7FEA6C5CD6D152EA0A
:1095B000033CD3D05DF8040B704700BF84461046CF
:1095C00062468C461946634600E000BF01B5FFF7CE
:1095D000B7FF002848BF10F1000F01BD4DF808ED9E
:1095E000FFF7F4FF0CBF012000205DF808FB00BF6F
:1095F0004DF808EDFFF7EAFF34BF012000205DF8C9
:1096000008FB00BF4DF808EDFFF7E0FF94BF012015
:1096100000205DF808FB00BF4DF808EDFFF7CEFF16
:1096200094BF012000205DF808FB00BF4DF808ED55
:10963000FFF7C4FF34BF012000205DF808FB00BF26
:109640004FEA410212F5001215D211D56FF478736A
:10965000B3EB625212D94FEAC12343F0004343EA0D
:10966000505311F0004F23FA02F018BF40427047E8
:109670004FF00000704750EA013005D111F0004072
:1096800008BF6FF0004070474FF00000704700BF08
:109690004A0011D212F5001211D20DD56FF4787371
:1096A000B3EB62520ED44FEAC12343F0004343EAC6
:1096B000505323FA02F070474FF00000704750EA11
:1096C000013002D14FF0FF3070474FF0000070477B
:1096D0004FEA4102B2F1E04324BFB3F5001CDCF1D4
:1096E000FE5C0DD901F0004C4FEAC0024CEA50700C
:1096F000B2F1004F40EB830008BF20F0010070473B
:1097000011F0804F21D113F13872BCBF01F000403D
:10971000704741F480114FEA5252C2F11802C2F16F
:10972000200C10FA0CF320FA02F018BF40F00100F0
:109730004FEAC1234FEAD32303FA0CFC40EA0C00A2
:1097400023FA02F34FEA4303CCE77FEA625307D1DF
:1097500050EA01331EBF4FF0FE4040F44000704716
:1097600001F0004040F0FE4040F40000704700BFB0
:10977000002100F0ADBF000010B5054C13462CB120
:109780000A4601460220AFF3008010BD204610BDFE
:109790000000000038B5074B1C68E36B05461BB999
:1097A0002420FDF76FFFE063E16B2846BDE83840F9
:1097B00000F002B840DA03202DE9F0410C46804663
:1097C00001F0A8FD21460746404601F0A7FD466985
:1097D00006F26C76B307044605D1642296FBF2F3D9
:1097E00002FB13634BB94FF4C87596FBF5F305FB09
:1097F0001365B5FA85F35B0900E001235F4A302564
:1098000005FB032501F09CF801F09CF85C4B1B68FC
:10981000F3B17B689E4205D13968D8F80030FA6907
:1098200041B90AE0304600F0E3FF0028F4D14FF0E0
:10983000FF330DE0934208DB01E0934207DABA6B95
:109840009342ACBF0023012302E0002300E0012388
:109850002362236A012B0CBFF96B396A4FF46163F1
:109860003C2091FBF3F603FB1613616893FBF0F2C7
:1098700000FB12302368891AA26861601B1A921BD0
:109880003B2B2360A26003DD013161603C3B04E0BF
:10989000002B03DA013961603C33236063683B2BA2
:1098A00003DD0132A2603C3B04E0002B03DA013A05
:1098B000A2603C336360A368172B22DDE2690132AA
:1098C000E261A2690132062AC8BF0022A261E268F1
:1098D000183B0132A3602369E26055F823108A42E5
:1098E00046DD01330C2B0CBF63692361A2EB01023F
:1098F000E26001BF013300222261636108BFE261BF
:1099000036E0002B34DAE269013AE261A269013AF9
:1099100048BF0622A261E2681833013AE260A36000
:1099200032BB2369013B01D423611DE00B2323617A
:1099300063695A1E12F0030F626103F26B7305D163
:10994000642193FBF1F201FB12324AB94FF4C87162
:1099500093FBF1F201FB1233B3FA83F35B0900E0EE
:10996000012303F5B673E361236955F82330E360FF
:1099700000F0E7FF2046BDE8F08100BFA8C10D0060
:10998000E4E703200048704744DA032010B5431E83
:109990000A44914204D011F8014B03F8014FF8E753
:1099A00010BD02440346934202D003F8011BFAE7BC
:1099B0007047000038B5124B1C68A36B0546D3B93D
:1099C0001820FDF75FFE43F20E33A06303804AF6D2
:1099D000CD33438041F2342383804EF26D63C380E4
:1099E0004DF6EC630381052343810B238381012220
:1099F0000023C0E90423A36B00221D615A6138BD16
:109A000040DA032010F8012B11F8013B012A28BF8E
:109A10009A42F7D0D01A7047034611F8012B03F889
:109A2000012B002AF9D17047024B0146186800F05B
:109A300003B800BF40DA032070B5064608460C465E
:109A400000F00DF8451C29463046FDF73BFE064662
:109A500018B12A462146FFF799FF304670BD0346EC
:109A600013F8012B002AFBD1181A0138704730B5C2
:109A700082B1451E013915F8013F11F8014FA3428B
:109A800006D1EC431444E04201D0002BF3D11C4634
:109A9000181B30BD104630BD70B504460D4645EC70
:109AA000104B164601F098FF51EC100B7EB1C5F338
:109AB0000A53C3F16B03002B09DD1B0503F17F552E
:109AC000002405F5401522462B46FFF71FFB70BD0D
:109AD0002DE9F04F9DB0002302900C46139218938D
