:02000004080AE8
:1000000000000A0850970A080000060006000501D3
:080010000402DB070000000000
:04001800148F0A082F
:1000200009480A4908B5884205D0094A824202D0E7
:10003000121A06F0D9FC0748074A0021121A06F0E6
:10004000E1FC064808BD00BF00000020EC940A084F
:100050003C0200204002002011100020111000205E
:1000600070B504F05DFA0025054E064CA41BA408EB
:10007000A54200D170BD56F8043B98470135F7E71B
:10008000B4940A08D8940A0801F092BA08B502F0AC
:1000900089FBBDE8084004F005BA03F0EDBF03F0AA
:1000A000EBBF03F0F1BF0078B0FA80F04009704771
:1000B00001230370704700007FB50D460C46584E73
:1000C000284606F0F8FC631B984260D92378742B0D
:1000D00038D16378652B1AD1A3786D2B17D1E378CB
:1000E000702B14D12379222B11D1A3798DF80830EC
:1000F000E3798DF80930237A8DF80A30637A8DF828
:100100000B30A37A8DF80C30E37A8DF80D3014F8AB
:10011000013C5B2B14D123787B2B11D16378222BEC
:100120000ED1A378692B0BD1E378642B08D1A37986
:100130008DF80430E3798DF80530237A8DF8063098
:100140000134BDE7682B0DD0692BE0D16378632BB8
:10015000DDD1A3786F2BDAD1E3786E2B04BF637AFD
:100160003370D4E76378752BD1D1A3786D2BCED1C2
:10017000E378692BCBD1A37A8DF80030E37A8DF840
:100180000130237B302BC2D18DF80230BFE79DF8C0
:100190000030303B092B06D8684606F01DFB05F001
:1001A000B3FD204B18609DF80430303B092B06D876
:1001B00001A806F011FB05F0A7FD1B4B18609DF888
:1001C0000830303B092B1ED802A806F005FB05F0CD
:1001D000E3FD05F0A7FA0EA3D3E9002305F042F9E9
:1001E00005F0DAFD05F09EFA0BA3D3E9002305F034
:1001F000F1FA0E4B002205F037F905F0CDFD06F0BF
:10020000EFF80B4B186004B070BD00BFAFF3008077
:100210006666666666127140CDCCCCCCCCCCFC3F19
:1002200064020020780200206002002000004040AC
:100230005002002010B50446006808B103F024FF06
:10024000204610BD03F012BD2DE9F04F054687B0E2
:1002500005928CB2059B9C4200F36081230A28D151
:1002600055F82460B44B4FF47A7096FBF3F396FB89
:10027000F0F193FBF0F200FB123291FBF0F300FB84
:10028000131300FB1161C8B2210743BFE11D04F045
:100290000706A1EB460100904CBF00902146A748FD
:1002A000D2B2DBB248BF89B203F054FC0134A4B22D
:1002B000D0E7B4F5BF7F00F2B3809F4A55F82430F1
:1002C0004FF47A7B93FBF2F393FBFBF004F0070708
:1002D0000BFB103005F014FA93A3D3E90023C7F108
:1002E000170705F077FA3F0114F0010FA4F58076A7
:1002F000BFB24FEA84084BD14FF47A79002EB8BFD1
:10030000A4F1F90605F062F855F80830CDE90201CC
:1003100093FBF9F393FBF9F009FB103005F0F0F9CA
:1003200083A3D3E9002305F055FA05F04FF855F8FB
:1003300008304FEAE60A064693FBF9F0CAF10F0AC5
:1003400009FB1030BA440F4605F0DAF976A3D3E979
:10035000002305F03FFA05F039F88046894630461B
:10036000394605F0F9FCC7B2DDE9020105F0F4FCFD
:100370004946C6B2404605F0EFFC1FFA8AFAC0B201
:1003800000903B46324651466C4803F0E3FB8DE754
:1003900005F01CF855F8243007EBE60A93FBFBF355
:1003A000064693FBFBF00BFB10300F4605F0A8F957
:1003B0005FA3D3E9002305F00DFA05F007F855F81F
:1003C0002430804693FBFBF00BFB1030894605F090
:1003D00097F955A3D3E9002305F0FCF904F0F6FFE3
:1003E00002460B4640464946CDE9022305F0B4FCDF
:1003F00039465FFA80F8304605F0AEFCDDE90223AD
:10040000C6B21946104605F0A7FC1FFA8AFAC0B218
:100410000090434632465146484803F09BFB45E76F
:10042000A4F5C076B3B27F2B3FF640AF734203F022
:100430000703414A06F0070758BF5F4255F82430CA
:10044000C7F11F0793FBF2F34FF47A7293FBF2F0BC
:1004500002FB103005F054F933A3D3E9002305F073
:10046000B9F93F01E307BFB24FEA84084CD4002E2C
:10047000BCBF6FF4BC72A6184FEAE609C9F10F09B8
:10048000B9441FFA89F94FF47A7A04F09FFF55F8BE
:100490000830CDE9020193FBFAF393FBFAF00AFB73
:1004A000103005F02DF922A3D3E9002305F092F9CD
:1004B00004F08CFF55F80830064693FBFAF00AFB6F
:1004C00010300F4605F01CF917A3D3E9002305F0FF
:1004D00081F904F07BFF82468B463046394605F0B1
:1004E0003BFCC7B2DDE9020105F036FC5946C6B255
:1004F000504605F031FCC0B200903B4632464946BA
:100500000E4803F027FBD1E6002EBCBF6FF4BC738E
:10051000E61807EBE6061FFA86F9B4E7074807B0C6
:10052000BDE8F04F02F066BACDCCCCCCCCCCE43FE9
:100530009A9999999999E93F40420F00A00A0020A1
:1005400070B58AB06C460646074D0FCD0FC40FCD6F
:100550000FC495E8030084E803000AAB03EB8606AA
:1005600056F8280C0AB070BDD88F0A0870B58AB04A
:100570006C460646074D0FCD0FC40FCD0FC495E84E
:10058000030084E803000AAB03EB860656F8280C48
:100590000AB070BD00900A08F0B59DF82040194DD2
:1005A00092004CB10024A64605EB020CA34203DDE9
:1005B0004CF824E00134F9E74FF47A7E9DF818C036
:1005C0009DF81C4015440EFB0C449DF814C0DFF848
:1005D0003CE00EFB0C4C00242246A3420EDD1746E5
:1005E00000F0010656EA070E4FEA500018BF45F822
:1005F00024C040EAC17001344908EEE7024A1360A2
:10060000F0BD00BFA00200207C02002040420F008D
:10061000F0B59DF81C40124D890044B100242746D6
:100620006E18A24203DD46F824700134F9E74FF456
:100630007A779DF818609DF81440294407FB0464FC
:10064000084E06FB03430024A24206DDC50748BF4F
:1006500041F8243040080134F6E7034B1A60F0BD3E
:10066000A002002040420F007C020020F0B59DF85F
:100670001C40124D890044B1002427466E18A24246
:1006800003DD46F824700134F9E74FF47A779DF8DA
:1006900018609DF81440294407FB0464084E06FBCB
:1006A00003430024A24206DDC50748BF41F82430B9
:1006B00040080134F6E7034B1A60F0BDA0020020A9
:1006C00040420F007C0200202DE9F0471646744A94
:1006D00086B012781F46642AA0F5487304460D467A
:1006E0009DF838A09DF83C809BB2A0F222395BD1E6
:1006F000012B03D940F2D12398422AD1304604F08D
:10070000FFFF59A3D3E9002305F08EF904F05EFE44
:10071000CDE90401384604F0F3FF55A3D3E90023E3
:1007200005F058F804F052FE0023CDF80C80029337
:1007300005F012FBC0B20190DDE9040105F00CFBED
:10074000C0B2009040234CA1D1E900012A46FFF736
:1007500023FF1FFA89F9B9F1010F6FD8002338463A
:100760000293CDF80C8004F0CBFF45A3D3E900231E
:1007700005F030F805F0F0FAC0B240232A46CDE982
:10078000006041A1D1E90001FFF706FF40A1D1E9D6
:10079000000140232A46CDE902A8CDE90067FFF712
:1007A000FBFE06B0BDE8F087012B03D940F2D12350
:1007B000984219D10323BAFBF3F338460293CDF8DC
:1007C0000C8004F09DFF4FF03332364B05F002F8F9
:1007D00005F0C2FAC0B2CDE9006040232A4643F6D4
:1007E0007F613148FFF7D8FE1FFA89F9B9F1010F8F
:1007F00024D80323BAFBF3F338460293CDF80C80D8
:1008000004F07EFF4FF03332264B04F0E3FF05F097
:10081000A3FAC0B22A46CDE9006040230021234854
:10082000FFF7BAFE40232A4641F23801CDE902A87B
:10083000CDE900671E48FFF7AFFEB2E7A4F1C80399
:10084000B3F5027F0BD814A1D1E9000140232A4659
:10085000CDE902A8CDE90067FFF79EFEA1E7A4F26B
:10086000DB24282CEFD99CE7CDCCCCCCCCCCFC3FE6
:10087000CDCCCCCCCCCCF43F08001C5D1C000800D7
:10088000666666666666FE3F08000C0504000000AA
:100890000000103838383810020707070707020031
:1008A000640200203333F33F00004163220604005A
:1008B00010383838F8B51D469DF81C300F461446E0
:1008C00073B1FFF73DFE3B460026134907F12002B6
:1008D0009A4208D0002BA8BF41F823600133F7E704
:1008E000FFF744FEEFE74FF47A729DF818300A499B
:1008F00002FB05350023094A01EB870102FB045482
:10090000C20748BF41F823400133202B4FEA500073
:10091000F6D1034A1360F8BDA002002040420F0048
:100920007C0200202DE9FF4104463038C0B209287E
:100930000D4616461F469DF828809DF82CC014D8F9
:10094000BCF1000F0BD001240231CDE9008489B243
:10095000FFF7B0FF0324204604B0BDE8F081CDE9E5
:10096000008CFFF7A7FF0424F5E7203C5C2C00F285
:10097000EF83DFE814F05D0067007100ED03ED0325
:10098000ED03ED037D0087009300ED039F00AA00B7
:10099000B400C000CA00ED03ED03ED03ED03ED0369
:1009A000ED03ED03ED03ED03ED03D500DF00E900FA
:1009B000F400FF000A01ED03150120012B013601AF
:1009C00041014C01570162016D01780183018E01E3
:1009D0009901AF01C501D001DB01E601F101FC0184
:1009E00012021D026102770282029802A302ED0345
:1009F000AF02ED03ED037D00BB02C602D102DC02B3
:100A0000E702F202FD02080313031D032803E303B8
:100A10003303490354035F036A03750380038B03A5
:100A20009603A103AC03C203CD03D803ED03E30394
:100A30000023012408227F20CDE901340093FFF731
:100A400015FE88E7012413462F200822CDE90184F2
:100A50000097FFF70BFE7EE701234FF00310CDE96F
:100A60000183009713461822FFF7D2FD032472E793
:100A70000124134603200822CDE901840097FFF7E3
:100A8000F5FD68E7012344F23E10CDE901830097AC
:100A900013461022FFF7BCFD02245CE7012343F656
:100AA0004160CDE90183009713461022FFF7B0FDA6
:100AB000022450E70123C448CDE90183009713467F
:100AC0001822FFF7A5FD032445E701241346602003
:100AD0000822CDE901840097FFF7C8FD3BE7012319
:100AE00040F60800CDE90183009713461022FFF776
:100AF0008FFD02242FE70124134640200822CDE970
:100B000001840097FFF7B2FD25E70123AF48CDE947
:100B10000183009713461822FFF77AFD03241AE792
:100B20000124134622200822CDE901840097FFF713
:100B30009DFD10E70124134662200822CDE90184BF
:100B40000097FFF793FD06E70123A148CDE9018354
:100B5000009713461822FFF75BFD0324FBE60123F1
:100B60009C48CDE90183009713461822FFF750FDFA
:100B70000324F0E601239848CDE90183009713464A
:100B80001822FFF745FD0324E5E601239348CDE94C
:100B90000183009713461822FFF73AFD0324DAE693
:100BA00001238F48CDE90183009713462022FFF7E8
:100BB0002FFD0424CFE601238A48CDE90183009765
:100BC00013462022FFF724FD0424C4E601238648AF
:100BD000CDE90183009713462022FFF719FD042475
:100BE000B9E601238148CDE901830097134620220D
:100BF000FFF70EFD0424AEE601237D48CDE9018315
:100C0000009713462022FFF703FD0424A3E60123E7
:100C10007848CDE90183009713462022FFF7F8FCBE
:100C2000042498E601237448CDE901830097134614
:100C30002022FFF7EDFC04248DE601236F48CDE967
:100C40000183009713462022FFF7E2FC042482E68A
:100C500001236B48CDE90183009713461822FFF763
:100C6000D7FC032477E601236648CDE9018300978A
:100C700013462022FFF7CCFC04246CE601236248D3
:100C8000CDE90183009713462022FFF7C1FC04241D
:100C900061E601235D48CDE90183009713462022D8
:100CA000FFF7B6FC042456E60124203113467F20CA
:100CB0000822CDE9018489B20097FFF7D7FCCDE97E
:100CC000018433462022294651480097FFF7A0FCB3
:100CD000052440E60124203113467F200822CDE977
:100CE000018489B20097FFF7C1FCCDE90184334646
:100CF0002022294647480097FFF78AFC05242AE668
:100D000001234548CDE90183009713462022FFF7D0
:100D10007FFC04241FE601234048CDE901830097AE
:100D200013462022FFF774FC042414E601233C48F8
:100D3000CDE90183009713462022FFF769FC0424C4
:100D400009E601233748CDE90183009713462022A5
:100D5000FFF75EFC0424FEE501233348CDE901835F
:100D6000009713462022FFF753FC0424F3E50124E7
:100D70002031134620460822CDE9018489B200972C
:100D8000FFF774FCCDE90184334620222946274829
:100D90000097FFF73DFC0524DDE501232448CDE95C
:100DA0000183009713462022FFF732FC0424D2E58A
:100DB00001232048CDE90183009713462022FFF745
:100DC00027FC0424C7E500BF081C080060180600C3
:100DD00008142200141414002214080003590F00F0
:100DE0007E09097E7F4949363E4141227F41413E8D
:100DF0007F4949417F0909017F4149787F08087F80
:100E0000417F410021413F017F0808777F404040FA
:100E10007F017E017F013E403E41413E7F09090640
:100E20003E41211F7F4949314649493101017F0136
:100E30003F40403F1F60601F0124203113463F2088
:100E40000822CDE9018489B20097FFF70FFCCDE9B4
:100E50000184334620222946BE480097FFF7D8FB7D
:100E6000052478E50123BC48CDE9018300971346AA
:100E70001822FFF7CDFB03246DE501242031134632
:100E800020460822CDE9018489B20097FFF7EEFBE6
:100E9000CDE90184334620222946B0480097FFF768
:100EA000B7FB052457E50123AD48CDE90183009741
:100EB00013462022FFF7ACFB04244CE5012344F247
:100EC0007F10CDE90183009713461022FFF7A0FBA6
:100ED000022440E5012347F64170CDE901830097E4
:100EE00013461022FFF794FB022434E501239D48AA
:100EF000CDE90183009713461822FFF789FB0324ED
:100F000029E501239848CDE901830097134618226B
:100F1000FFF77EFB03241EE501239448CDE90183FE
:100F2000009713461822FFF773FB032413E50123F0
:100F30008F48CDE90183009713461822FFF768FB1D
:100F4000032408E501238B48CDE90183009713466C
:100F50001822FFF75DFB0324FDE401238648CDE959
:100F60000183009713461822FFF752FB0324F2E493
:100F700001238248CDE90183009713461822FFF729
:100F800047FB0324E7E401237D48CDE90183009773
:100F900013461822FFF73CFB0324DCE4012413462C
:100FA00074200822CDE901840097FFF75FFBD2E4AB
:100FB00001237448CDE90183009713461822FFF7F7
:100FC00027FB0324C7E401236F48CDE90183009781
:100FD00013461822FFF71CFB0324BCE40124203134
:100FE000134670200822CDE9018489B20097FFF7EB
:100FF0003DFBCDE901843346202229466348009712
:10100000FFF706FB0524A6E401236148CDE901832F
:10101000009713462022FFF7FBFA03249BE40123E9
:101020005C48CDE90183009713461822FFF7F0FAD8
:10103000032490E401235848CDE901830097134627
:101040001822FFF7E5FA032485E401235348CDE98C
:101050000183009713461822FFF7DAFA03247AE493
:1010600001234F48CDE90183009713461822FFF76B
:10107000CFFA03246FE401234A48CDE901830097A6
:1010800013461822FFF7C4FA032464E401234648F8
:10109000CDE90183009713461822FFF7B9FA03241C
:1010A00059E401234148CDE90183009713461822F2
:1010B000FFF7AEFA03244EE401233D48CDE9018356
:1010C000009713461822FFF7A3FA032443E40124F0
:1010D0002031134638200822CDE9018489B20097D7
:1010E000FFF7C4FACDE9018433462022294631486E
:1010F0000097FFF78DFA05242DE401232E48CDE952
:101100000183009713461822FFF782FA032422E492
:1011100001232A48CDE90183009713461822FFF7DF
:1011200077FA032417E401232548CDE901830097CA
:1011300013461822FFF76CFA03240CE4012413462B
:101140007F200822CDE901840097FFF78FFA02E49F
:10115000002400E43F403F40007F730001027C0216
:10116000C1310D03304870007F48300030484800DE
:1011700030487F00385458007E090A0048547C00EB
:101180007F08700020403A007F10680070087008E7
:1011900078087000304830007C14080008147C0087
:1011A000780810005C547400087E0800384078000D
:1011B0003840380038407040483048004C503C00BF
:1011C00064544C002DE9F74F0646174698460C46E6
:1011D00000259DF830909DF834A0304605F06BFC5A
:1011E000A8420DD9705DA1B243463A46CDE9009AB6
:1011F000FFF798FB04F1080B0BEBC0040135ECE79B
:1012000003B0BDE8F08F00002DE9F04F85B0164621
:101210001F460D46044603F09CF8029003F0A2F826
:10122000424B81461A689A46824202D10E9B002B9D
:1012300060D004F051F80620FFF704F8804600283B
:1012400058D103F08FF84FF47A7271087B0802FBD3
:10125000013237496B0801FB0323364A04F1390197
:1012600042F8213004F13D0142F8213004F17003CD
:10127000CAF800001FFA83FA09F1090304F14801D2
:10128000122B89B239D833462A464046CDE9007838
:10129000FFF710FB33462A465146CDE900785FFA46
:1012A00089F0FFF707FB4FF00A0A029B4FF0000995
:1012B00093FBFAF85FFA88F006FB00F305FB00F2F7
:1012C0007843A4F11801C0B20090DBB20120D2B281
:1012D00089B2CDF80490FFF7EDFA029B04F11001FA
:1012E0000AFB18302A463346CDE9007989B2C0B2EC
:1012F000FFF7E0FA05B0BDE8F08F4FF00A0B99FB5D
:10130000FBF303932A4633469DF80C00CDE90078A1
:10131000FFF7D0FA039B2A460BFB13905146334646
:10132000CDE90078C0B2FFF7C5FABCE78C02002017
:1013300040420F00A00200202DE9F74F4FF00A0EA7
:101340008446B0FBFEF54FF47A799DF83080E8B220
:101350000EFB15C509FB038C9DF834B0DFF86890CF
:101360000C4616461F4609FB02C9DFF860A0EDB225
:10137000BBF1000F15D04FF0010BCDE9008BFFF74B
:1013800099FA04F120013B4632462846CDE9008B0C
:1013900089B24034FFF78EFA4AF8249003B0BDE8D2
:1013A000F08FCDE9008BFFF785FA04F128013B4669
:1013B00032462846CDE9008B89B25034FFF77AFADD
:1013C0004AF82490EAE700BF40420F00A002002044
:1013D0002DE9F74F642880460C4615461E469DF8B9
:1013E000307028D14FF47A7101FB03731E4901FB61
:1013F000023100221D4B03EB84030132072A43F81C
:10140000041BFAD14FF0000804F1100133462A46BC
:10141000404689B2CDE90078FFF74CFA04F1380173
:1014200033462A464046CDE9007889B2FFF742FAB2
:1014300003B0BDE8F08F4FF00A0A4FF00009B0FB8F
:10144000FAFBCDE900795846FFF734FA0AFB1B8016
:1014500004F1280133462A46CDE9007989B2C0B2A9
:10146000FFF728FAE4E700BF40420F00A002002087
:1014700030B5A0F59675152D9DF80C4013D84FF496
:101480007A7000FB0343284800FB0233274A01F12E
:101490000E0042F8203001F11C002E3142F82030BD
:1014A00042F8213030BDA0F1C805222D17D84FF4E5
:1014B0007A7000FB03431C4800FB02331B4A01F116
:1014C0001B0042F8203001F1140042F8203001F1F5
:1014D0001D00163142F8203042F82130E2E7A0F535
:1014E000FA75202D1BD84FF47A7000FB03430E4889
:1014F00000FB02330D4A01F10B0042F8203001F1EC
:10150000160042F8203001F11C0042F8203001F1B1
:1015100025002B3142F8203042F82130C2E7A0F5F7
:1015200016701D28BED8DEE740420F00A002002042
:101530007FB51B4D06462C6802F088FB04F592240B
:1015400004F5787484420FD2164B174A1B7817495A
:101550008DF8003002A83C2303F03AF9039C64B9EB
:1015600002F074FB286006E002F070FB2B688342F7
:10157000EAD8002EE8D104B070BD6368013B636017
:10158000002BEDD1236820469B689847A368013B58
:10159000A360002BE4D123682046DB689847DFE78F
:1015A0008802002054020020288F0A08448F0A086D
:1015B0002DE9F74F0024624B032120461C6003F005
:1015C00037FE0321012003F033FE0321022003F044
:1015D0002FFE0121072003F02BFE012002F0EAFE7E
:1015E00022462146204602F0F5FE01230221554AFB
:1015F00055481360554A564D1460564A1360564A72
:101600001360564A1160564A137001F0BDF94E48F6
:1016100001F0F0F92A4640F20123013B02D042F8E2
:10162000044BFAE74FF40073DFF85CA10E20CAF810
:10163000003003F03AFE122390FBF3F3494A3821BD
:1016400013600122DBB2CDE9003247481A46FFF7AA
:10165000B9FD3823454CDFF8F88023602168C7299D
:101660000ADC4046CA1DFEF7EFFD4B2002F090FE5B
:10167000236808332360F1E7002002F00FFB4FF0EE
:10168000000B04464FF00009DFF80081002002F053
:1016900005FB061B61EB0B07B94508BFB04505D339
:1016A00002F0C2FC10B902F0B7FCEFE702F0BCFC9C
:1016B00040F201140023013C02D045F8043BFAE754
:1016C0004FF48073CAF8003003F006FE10210120A9
:1016D00002F0D4FA234602222249254802F094FC63
:1016E000224624492346CDE90044234802F0ACFCBD
:1016F00003F0F2FD0120FEF7A5FDC0F10C0004F09F
:1017000055FC02F0DBFD02F02DFE1C4B0138186089
:1017100002F01FFE3C221A4B01381860194B1A6068
:1017200003F0DAFD0121022002F0A8FA322002F0D3
:101730002FFE012003B0BDE8F04FFFF7F9BE00BF58
:10174000880200209C020020A00A002094020020B1
:10175000A0020020B80A0020680200206C020020CD
:10176000B40A0020900200202A8F0A087C02002080
:10177000308F0A08B9000A08368F0A088C02002048
:10178000740200205C020020840200209F86010079
:1017900038B56425002490FBF5F5A5424FF0000014
:1017A00003DD03F06FFD08B1012038BD012003F017
:1017B00069FD0028F8D1022003F064FD0028F3D170
:1017C000642002F0E5FD0134E7E7000000000000BE
:1017D0002DE9F74F3830C0B2222816469B469DF8B7
:1017E000307000F281800023454C01F11D0801F1A9
:1017F0001409204601F11B0A01F11605424649462B
:1018000044F82A3044F8293044F8283044F8253088
:10181000FEF71AFD3046002EB8BFF01C8010FFF70F
:10182000B7FF00285DD1584603F06AFF4FF033320E
:10183000344B04F0F9F804F08FFA334BC0B2434351
:101840003846019303F05CFF2BA3D3E9002303F098
:10185000C1FF04F081FA4FF47A73019AC0B203FB1E
:10186000002006EBD67B44F82A0052462448514615
:101870004FEA6B0BFEF7E8FC5846FFF789FF80BB89
:10188000019B7F001A464FF47A73FFB203FB0727D0
:101890001B484A46494644F82970FEF7D5FC58468D
:1018A000FFF776FFE8B916484246414644F82870EB
:1018B000FEF7CAFC5846FFF76BFF90B910482A465E
:1018C000294644F82570FEF7BFFC3046FFF760FF5D
:1018D00038B944F82A0044F8290044F8280044F8AC
:1018E000250003B0BDE8F08F02EB420003B0BDE875
:1018F000F04FFFF74DBF00BF333333333333034073
:10190000A00200203333F33F40420F000E202DE9A8
:10191000F04103F0CAFC164B1A68904226DAFA220C
:10192000012500241A60134E134BDFF85880134F23
:101930001D603560C8F800403C6003F0CDFC052018
:10194000FEF780FC022807D1C8F80050346001205F
:101950000B4B1860BDE8F08103F0BEFC0520FEF7DC
:1019600071FC032804BF3D603460F0E70020F1E71C
:101970005C020020980200209C02002058020020F7
:1019800068020020700200202DE9F04F8BB0CDE9F5
:1019900003329DF850308F4A029313680446012B9E
:1019A0008B46059240F013810026DFF83C828A4F77
:1019B0001925D8F800300022734393FBF5F3CDE9E5
:1019C0000022DBB22146387804F15809FFF7B4FC55
:1019D0004A4621468148FEF737FC01360A2002F0CC
:1019E000D7FC1A2EE4D140F6C410FFF7D1FEFFF762
:1019F0008DFF039B05FB03F700283ED0B246049BF6
:101A000005FB03F8029B5D431921B5FBF1F2B7FB1F
:101A1000F1F6B8FBF1F17248724B00681B680144A3
:101A200001201344704AF6B21268DBB232440090CF
:101A3000D2B25846C9B2FFF7E7FB0022CDE9002237
:101A40006548334621460078FFF776FC4A465946FA
:101A50006248FEF7F9FB0A2002F09AFC049BBAF1F7
:101A6000010AA8EB0308039BA7EB0307029BA5EB66
:101A70000305C9D10BB0BDE8F08F8046DFF85CA14B
:101A8000B7FBF5F3CDE900885348DBB200222146CD
:101A90000078FFF751FC4A4621465046FEF7D4FB3A
:101AA0000A2002F075FC039B013EA7EB0307E7D178
:101AB00003F012FC0420FEF7C5FB01287CD10223B1
:101AC000059A13601A2600254FF0320ADFF81C91A0
:101AD000DFF8088119270299049B694305FB03F28B
:101AE000B1FBF7F10023B2FBFAF2C9B20193009106
:101AF00099F800002146D2B2FFF71EFC04F158030A
:101B00001A46214640460693FEF79EFB0A2002F045
:101B10003FFC013E05F10105DCD140F6C410FFF7A2
:101B200037FEFFF7F3FE049B07FB03F5029B07FB61
:101B300003F600285CD04FF01A09039BDFF8A8A039
:101B40005F431921B7FBF1F0B6FBF1F8B5FBF1F1FA
:101B5000DAF80020234B024421481B6800685FFA32
:101B600088F80144012043440090DBB25846D2B2C9
:101B7000C9B2FFF749FB32220023B5FBF2F2CDE9EF
:101B800000831A4821460078D2B2FFF7D5FB5946A8
:101B9000069A1248FEF758FB0A2002F0F9FB049B54
:101BA000B9F10109A5EB0305039BA7EB0307029B12
:101BB000A6EB0306C5D15DE70323059A1360059BD9
:101BC0001B68032B3DD0042B7FF454AFCEE0022BD7
:101BD000F5D177E7B80A002050020020A0020020CB
:101BE000980200205802002070020020800200208D
:101BF0001A274FF0320ADFF8D093DFF8C08319219B
:101C0000B6FBF1F10023B5FBFAF2C9B201930091E2
:101C100099F800002146D2B2FFF78EFB21464046DC
:101C2000069AFEF711FB0A2002F0B2FB049B013F6B
:101C3000A5EB0305029BA6EB0306E0D10323059A5F
:101C400013601A2600251927DFF86CA3DFF86C93C0
:101C5000029A039B6A436B43B2FBF7F2B3FBF7F3C1
:101C6000D2B20092DBB2002221469AF8000004F1C1
:101C70005808FFF7ADFB424621464846FEF7E4FA16
:101C80000A2002F085FB013E05F10105E0D140F696
:101C9000C410FFF77DFDFFF739FE039B07FB03F63A
:101CA000029B07FB03F500283BD0049B5F431A23EC
:101CB00005931921B6FBF1F9B5FBF1FAB7FBF1F188
:101CC000BA48BB4B0068BB4A014401201B6812683C
:101CD0005FFA89F95FFA8AFA53444A440090DBB20A
:101CE0005846D2B2C9B2FFF78FFAB348CDF800A078
:101CF0004B46002221460078FFF76AFB42465946D0
:101D0000AE48FEF7A1FA0A2002F042FB049BFF1A3C
:101D1000039BF61A029BED1A059B013B0593C8D164
:101D2000A8E61A274FF01909DFF890A2B5FBF9F2DF
:101D3000B6FBF9F3D2B2A0480092DBB200222146F2
:101D40000078FFF745FB424621465046FEF77CFAF5
:101D50000A2002F01DFB039B013FA6EB0306029B3A
:101D6000A5EB0305E2D10423059A1360152600278D
:101D70001425DFF84C82DFF844920021019102998A
:101D8000039B7943049A7B437A43B1FBF5F1B3FBA0
:101D9000F5F3B2FBF5F2C9B20091B8F800002146A4
:101DA000DBB2D2B2FEF790FC04F158031A4621468A
:101DB00048460593FEF748FA0A2002F0E9FA013E88
:101DC00007F10107D9D1029BFA220193039B214617
:101DD000009398F80000049BFFF7FAFCDDE902325B
:101DE0000BF19807584604990096FFF70DFA3A460A
:101DF00059467248FEF728FA029BFA220193039B88
:101E00002146009398F80000049BFFF7E1FCDDE910
:101E10000232584604990096FFF7F6F93A465946B9
:101E20006648FEF711FA029BFA220193039B2146B2
:101E3000009398F80000049BFFF7CAFCDDE902322A
:101E4000584604990096FFF7DFF93A4659465B4831
:101E5000FEF7FAF9FFF75AFD049B05FB03F7039B16
:101E600005FB03F6029B5D43002864D01523A946B9
:101E7000CDE90767DFF83C814D4E4C4F09934FF099
:101E8000190A089B3968B3FBFAF3DBB20693079B88
:101E90000698B3FBFAF5B9FBFAFA0144012033685E
:101EA000D8F80020EDB25FFA8AFA53442A44009031
:101EB000DBB25846D2B2C9B2FFF7A6F93A68069922
:101EC000D8F800300A440021019131683C4851445F
:101ED000C9B200912B4421460088DBB2D2B2FEF792
:101EE000F3FB3A680699D8F800300A443168344860
:101EF0008A445FFA8AF100912B44DBB2A02100886A
:101F0000D2B2FFF7B5FA059A59462C48FEF79CF96C
:101F10000A2002F03DFA089B049A9B1A0893039A40
:101F2000079B9B1A0793029BA9EB0309099B013BA3
:101F30000993A4D19EE54FF015094FF0140ADFF87C
:101F400080B0B5FBFAF80021B7FBFAF2B6FBFAF362
:101F50005FFA88F8CDE90081D2B2DBB22146BBF846
:101F60000000CDE90623FEF7AFFBDDE90623CDF83F
:101F70000080A021BBF80000FFF77AFA2146059AFD
:101F80000E48FEF761F90A2002F002FA049BB9F14B
:101F90000109A7EB0307039BA6EB0306029BA5EB36
:101FA0000305CED10122074B1A6063E59802002099
:101FB000580200207002002078020020A0020020B9
:101FC00060020020B80A00208002002038B50446D4
:101FD00000200D4603F056F998B9012003F052F99C
:101FE00078B9022003F04EF901280AD12368AB42E8
:101FF00027DB2060022003F045F9012823D00120CF
:1020000038BD002003F03EF9012825D103F03AF94C
:1020100010BB022003F036F9F0B92368012BC8BFCA
:1020200003F1FF352560002003F02CF90128E6D1EB
:10203000022003F027F90028E1D1052002F0A8F9D9
:10204000F1E7581CD5E7002003F01CF90028D6D191
:10205000052002F09DF9CDE70020D1E70000000047
:102060002DE9F84F784B1A68012A35D102220E204B
:102070001A6003F01AF9754A136890469842744B37
:1020800036DAFA2111601A68022A0ED140F20122D2
:1020900000207049013A02D041F8040BFAE74FF4EE
:1020A00000716D4A116001221A60002401266B4DF7
:1020B000DFF8BC816A4F2E60C8F800403C6003F036
:1020C0000BF90520FEF7BEF8022807D1C8F800601A
:1020D0002C600122634B1A60BDE8F88F03F0FCF816
:1020E0000520FEF7AFF8032804BF3E602C60F0E740
:1020F0001A68012A0ED140F2012200205549013A06
:1021000002D041F8040BFAE74FF40071524A116013
:1021100002221A600E2003F0C8F8122490FBF4F09B
:10212000514B4E4E1860514B0E201B78504DDFF82E
:102130003091002B51D003F0B8F882460E2003F006
:10214000B4F807460E2003F0B0F890FBF4F03060CE
:102150000E2003F0AAF88346384603F027FF4549CE
:1021600004F02CF803F0DEFA2FA3D3E9002303F0E8
:102170007BF906469BFBF4F00F4603F0C1FA0246DA
:102180000B463046394603F025FB03F0BDFD2860C1
:102190000E2003F08AF80546504603F007FF364943
:1021A00004F00CF803F0BEFA21A3D3E9002303F0F6
:1021B0005BF9064695FBF4F00F4603F0A1FA0246E0
:1021C0000B463046394603F005FB03F09DFDC9F888
:1021D00000003C23C8F800307EE703F066F890FB6F
:1021E000F4F030600E2003F060F890FBF4F003F0A0
:1021F00087FA11A3D3E9002303F0ECFA03F084FD7E
:1022000028600E2003F051F890FBF4F003F078FA08
:102210000BA3D3E9002303F0DDFA03F075FDC9F841
:102220000000D6E7AFF30080CDCCCCCCCCCCE43FE3
:10223000333333333333D33FCDCCCCCCCCCCEC3F66
:102240009A9999999999E93F9C0200205C02002093
:102250006C020020A00200207C02002098020020D6
:10226000580200206802002090020020B40A0020DA
:102270007002002000401C4600A0A94570B44FF435
:102280007A769DF80C409DF8105006FB03430D4CE8
:1022900004FB023204460C4BA14203DB43F824202A
:1022A0000134F9E7094A4B1C9842ACBF1060136037
:1022B0002DB170BC0A4601460348FDF7C5BF70BC8E
:1022C000704700BF40420F00A00200207C020020A7
:1022D0002DE9F04F4FF000091F46012304460D463B
:1022E000164600F1FF0B93B01FFA8BF84A464146A1
:1022F00007930193CDF800904B46FFF7BFFF2A46A6
:102300002146C1483346CDE90079FEF75BFF5A46C6
:102310002146BE48FDF798FF012002F0B3FF0128D7
:1023200003D1052002F034F8F6E700234FF001094D
:102330001A4641462046CDE90039DFF8F4A2FFF7FE
:102340009DFFCDF80890079B013B042B69D8DFE87F
:1023500003F0031E2A36420000232A46CDE900730B
:1023600021463346AA48FEF72DFF0123039301209F
:1023700002F088FF012840F014810890012002F04B
:1023800081FF012850D1052002F002F8F6E7002372
:102390002A46CDE90073214633469E48FEF712FFD8
:1023A00001230393E3E700232A46CDE90073214686
:1023B00033469948FEF706FF01230393D7E700232E
:1023C0002A46CDE90073214633469448FEF7FAFECB
:1023D00001230393CBE700232A4621465046CDE94B
:1023E00000733346FEF7EEFE012002F04BFF01289A
:1023F00017D1012002F046FF012803D1052001F08A
:10240000C7FFF6E74FF00009029B4A460193414699
:102410004B462046CDF80090FFF730FFCDF80C90EA
:10242000A5E701230393A2E7029B41460193002302
:1024300020461A460093FFF721FF079B013B042B20
:1024400000F29B81DFE813F00500D6001A01460177
:102450008701089B013B032B00F27A81DFE813F030
:1024600004007F00BE00660100232A462146CDE914
:1024700000736B483346FEF7A5FE012002F002FF11
:102480000128814640F06481664909A802F0E0FD18
:1024900009A802F069FD03F0C9FFC3B20493002349
:1024A00041461A4620460093CDF80490FFF7E6FE19
:1024B0004FF0640C04983346B0FBFCF02A462146EA
:1024C000CDE90079FEF7F6F90A22049B04F1300108
:1024D000B3FBF2F3B3FBF2F002FB103005932A4694
:1024E000334689B2C0B2CDE90079FEF7E3F90A209C
:1024F000059B049A04F1600100FB132089B22A466F
:10250000C0B23346CDE90079FEF7D4F95A462146E8
:102510003E48FDF799FE012002F0B4FE012803D1E8
:10252000052001F035FFF6E7012002F0ABFE18B9F7
:10253000052001F02DFFF7E7029B414601930023A0
:1025400020461A460093FFF799FE012002F09AFEFA
:10255000012840F0FD80052001F01AFFF5E7002377
:102560002A46CDE90073214633462F48FEF72AFE5E
:102570004FF00109042108A8FFF728FD40B1029B94
:1025800041460193002320461A460093FFF776FE4A
:102590005A4621461D48FDF757FEB9F1000F7FF45A
:1025A0004CAF052107A8FFF711FD40B1029B414642
:1025B0000193002320461A460093FFF75FFE5A4618
:1025C00021461248FDF740FE322001F0E1FE039B58
:1025D000002B7FF4B8AE13B0BDE8F08F00232A467D
:1025E000CDE90073214633461048FEF7EBFD4FF06E
:1025F0000109BFE7089B013B032B00F2A980DFE83C
:1026000003F01925319500BF4C8F0A08A002002065
:10261000558F0A085A8F0A08628F0A086A8F0A08BB
:10262000758F0A08840F00207D8F0A08808F0A08A2
:10263000708F0A0800232A46CDE9007321463346ED
:102640004F48FEF7BFFD4FF0010993E700232A46EC
:10265000CDE90073214633464A48FEF7B3FD4FF0FB
:10266000010987E700232A46CDE900732146334656
:102670004548FEF7A7FD4FF001097BE7089B013BAA
:10268000032B65D8DFE803F0020E1A5200232A4616
:10269000CDE90073214633463C48FEF793FD4FF0E9
:1026A000010967E700232A46CDE900732146334636
:1026B0003748FEF787FD4FF001095BE700232A4604
:1026C000CDE90073214633463248FEF77BFD4FF0DB
:1026D00001094FE7089B013B032B39D8DFE803F0E2
:1026E000020E1A2600232A46CDE9007321463346FE
:1026F0002948FEF767FD4FF001093BE700232A4612
:10270000CDE90073214633462448FEF75BFD4FF0C8
:1027100001092FE700232A46CDE9007321463346FD
:102720001F48FEF74FFD4FF0010923E700232A461B
:1027300021465046CDE900733346FEF743FD0120A4
:1027400002F0A0FDB0F1010918BF4FF0010911E737
:102750004FF001090EE700232A4621465046CDE9F5
:1027600000733346FEF72EFD012002F08BFDB0F121
:10277000010918BF4FF001090AE74FF0010907E707
:10278000898F0A08928F0A089B8F0A08A48F0A086B
:10279000AD8F0A08B68F0A08C08F0A08C88F0A08CA
:1027A000D18F0A082DE9F347FFF75AFC3C4B1F680D
:1027B000012F44D13B4E3C4D3C4C337800202A78CD
:1027C00021780097FEF720FD40F27F120021384863
:1027D000FDF73AFD0020FEF7ABFE364B0E201F60E2
:1027E00002F063FD344BB2461B68A9469842A046EE
:1027F0002BDB02F071FD0220FDF724FD012807D13B
:10280000337800210093A0202B782278FFF7BCF8C2
:10281000002002F037FD90B9012002F033FD0128BD
:102820000DD1022002F02EFD48B94FF480709AF8C5
:10283000003099F8002098F80010FFF749FD642057
:1028400002B0BDE8F04701F0A3BD3378DFF8708037
:10285000009301972B782278B8F80000A021FDF7AB
:1028600033FF337822780093B8F800002B78A0214A
:10287000FEF7FEFD33781148009301972B782278FC
:102880004FF480710078FEF757FDFF22A021084821
:10289000FDF7DAFC4FF47A7001F07AFDCFE700BF64
:1028A00068020020580200207002002098020020D8
:1028B000A00200209C0200205C02002050020020A8
:1028C00060020020F8B50126134C144B0D221E7037
:1028D0004FF4C0710223204600F07BF8204600240C
:1028E0000F4F10493A4602F065FD0F4D0F4B304631
:1028F000AB602C60AC80AC7101F0F2FA3A4628462D
:102900000B4902F057FD3046214601F0F9FA204606
:10291000BDE8F84001F0A4BAA00A0020540200204B
:102920004002002035290A08440200200000FFFF71
:1029300035020A0810B50446C06808B101F0A4FBCE
:1029400023781BB10021E07902F072FC204610BD13
:1029500038B50446C0680D4608B101F095FBA3796F
:10296000062B0CBF04200320684380B2A08001F036
:1029700083FBE06028B10021A28804F043F8658061
:1029800038BDA0806080FBE710B504460121C07906
:1029900002F04EFC0021E07902F05BFC0123237081
:1029A00010BD38B5037805460C461BB10021C0792F
:1029B00002F03EFC2B78EC7153B1A4B22046012109
:1029C00002F036FC2046BDE83840002102F041BC50
:1029D00038BD70B50025044616468371C0E903551D
:1029E00005700572FFF7B4FF20463146FFF7D9FFA7
:1029F000204670BDC368002B00F04184F0B5837998
:102A00000446023BDBB2042B8CBF3225284A87B038
:102A100098BF52F8235001F011F92369C01AA84257
:102A2000F9D372B6A388A579ADF80A30BDF80A309B
:102A3000022DE1689BB200F06E82072D00F06B82E0
:102A4000062D00F01D84052D00F0A183082D00F057
:102A50009E83002D40F04F85002B00F092834FF4B1
:102A60000006144A0496BDF80A300331033B9BB2BA
:102A7000ADF80A3011F8033CDBB28DF8073011F8DD
:102A8000023CDBB28DF8063011F8013CDBB28DF868
:102A900008309DF807709DF806309DF808001B026D
:102AA00043EA0743034303938DF805501BE100BF3E
:102AB00028900A08BC0A0020004600BF00BF00BFE3
:102AC00000BF00BF00BF00BF00BF00BF00BF00BF0E
:102AD00000BF00BF00BF00BF00BF00BF00BF00BFFE
:102AE00000BF00BF00BF00BF00BF00BF00BF00BFEE
:102AF00000BF00BF00BF00BF00BF00BF00BF00BFDE
:102B000000BF00BF00BF00BF00BF00BF00BF00BFCD
:102B100000BF00BF00BF00BF00BF00BF00BF00BFBD
:102B200000BF00BF00BF00BF00BF00BF00BF00BFAD
:102B300000BF00BF00BF00BF00BF00BF00BF00BF9D
:102B400000BF00BF00BF00BF00BF00BF00BF00BF8D
:102B500000BF00BF00BF00BF00BF00BF00BF00BF7D
:102B600000BF00BF00BF00BF00BF00BF00BF00BF6D
:102B700000BF00BF00BF00BF00BF00BF00BF00BF5D
:102B800000BF00BF00BF00BF00BF00BF00BF00BF4D
:102B900000BF00BF00BF00BF00BF00BF00BF00BF3D
:102BA00000BF00BF00BF00BF00BF00BF00BF00BF2D
:102BB00000BF00BF00BF00BF00BF00BF00BF00BF1D
:102BC000E3791068C3EBC30300EB8307BF8850F8B9
:102BD00023305F83004600BF00BF00BF00BF00BFBF
:102BE00000BF00BF00BF00BF00BF00BF00BF00BFED
:102BF00000BF00BF00BF00BF00BF00BF00BF00BFDD
:102C000000BF00BF00BF00BF00BF00BF00BF00BFCC
:102C100000BF00BF00BF00BF00BF00BF00BF00BFBC
:102C200000BF00BF00BF00BF00BF00BF00BF00BFAC
:102C300000BF00BF00BF00BF00BF00BF00BF00BF9C
:102C400000BF00BF00BF00BF00BF00BF00BF00BF8C
:102C500000BF00BF00BF00BF00BF00BF00BF00BF7C
:102C600000BF00BF00BF00BF00BF00BF00BF00BF6C
:102C700000BF00BF00BF00BF00BF00BF00BF00BF5C
:102C800000BF00BF00BF00BF00BF00BF00BF00BF4C
:102C900000BF00BF00BF00BF00BF00BF00BF00BF3C
:102CA00000BF00BF00BF00BF00BF00BF00BF00BF2C
:102CB00000BF00BF00BF00BF00BF00BF00BF00BF1C
:102CC00000BF00BF00BF00BF00BF00BF00BF049B2C
:102CD0005B0804939DF805300133DBB2172B8DF8A8
:102CE000053000F22787E3791068C3EBC30300EBDC
:102CF0008307BF8850F823301F830398049B184232
:102D00007FF4DAAE004600BF00BF00BF00BF00BFC7
:102D100000BF00BF00BF00BF00BF00BF00BF00BFBB
:102D200000BF00BF00BF00BF00BF00BF00BF00BFAB
:102D300000BF00BF00BF00BF00BF00BF00BF00BF9B
:102D400000BF00BF00BF00BF00BF00BF00BF00BF8B
:102D500000BF00BF00BFE3791068C3EBC30300EB03
:102D60008307BF8850F823305F83004600BF00BF51
:102D700000BF00BF00BF00BF00BF00BF00BF00BF5B
:102D800000BF00BF00BF00BF00BF00BF00BF00BF4B
:102D900000BF00BF00BF00BF00BF00BF00BF00BF3B
:102DA00000BF00BF00BF00BF00BF00BF00BF00BF2B
:102DB00000BF00BF00BF00BF00BF00BF00BF00BF1B
:102DC00000BF00BF00BF00BF00BF00BF00BF00BF0B
:102DD00000BF00BF00BF00BF00BF00BF00BF00BFFB
:102DE00000BF00BF00BF00BF00BF00BF00BF00BFEB
:102DF00000BF00BF00BF00BF00BF00BF00BF00BFDB
:102E000000BF00BF00BF00BF00BF00BF00BF00BFCA
:102E100000BF00BF00BF00BF00BF00BF00BF00BFBA
:102E200000BF00BF00BF00BF00BF00BF00BF00BFAA
:102E300000BF00BF00BF00BF00BF00BF00BF00BF9A
:102E400000BF00BF00BF00BF00BF00BF00BF00BF8A
:102E500000BF00BF00BF00BF00BF00BF00BF00BF7A
:102E600000BF00BF00BF00BF00BF00BF00BF00BF6A
:102E700000BF00BF00BF00BF00BF00BF00BF00BF5A
:102E800000BF00BF00BF00BF00BF00BF00BF00BF4A
:102E900000BF00BF00BF00BF00BF00BF00BF00BF3A
:102EA00000BF00BF00BF00BF00BF00BF00BF00BF2A
:102EB00000BF00BF00BF00BF00BF00BF00BF00BF1A
:102EC00000BF00BF00BF00BF00BF00BF00BF00BF0A
:102ED00000BF00BF00BF00BF00BF00BF00BF00BFFA
:102EE00000BF00BF00BF00BF00BF00BF00BF00BFEA
:102EF00000BF00BF00BF00BF00BF00BF00BF00BFDA
:102F000000BF00BF00BF00BF00BF00BF00BF00BFC9
:102F100000BF00BFDBE6002B00F033814FF400055B
:102F20000026134A0495BDF80A300331033B9BB2D7
:102F3000ADF80A3011F8033CDBB28DF8063011F819
:102F4000023CDBB28DF8073011F8013CDBB28DF8A2
:102F500008309DF806709DF807309DF808001B02A8
:102F600043EA0743034303938DF8056080E000BF05
:102F7000BC0A0020004600BF00BF00BF00BF00BF6A
:102F800000BF00BF00BF00BF00BF00BF00BF00BF49
:102F900000BF00BF00BF00BF00BF00BF00BF00BF39
:102FA00000BF00BF00BF00BF00BF00BF00BF00BF29
:102FB00000BF00BF00BF00BF00BF00BF00BF00BF19
:102FC00000BF00BF00BF00BF00BF00BF00BF00BF09
:102FD00000BF00BF00BF00BF00BF00BF00BF00BFF9
:102FE00000BF00BF00BF00BF00BF00BF00BF00BFE9
:102FF00000BF00BF00BF00BF00BF00BF00BF00BFD9
:1030000000BF00BF00BF00BF00BF00BF00BFE3792B
:103010001068C3EBC30300EB8307BF8850F823306D
:103020005F83004600BF00BF00BF00BF00BF00BFFE
:1030300000BF00BF00BF00BF00BF00BF00BF00BF98
:1030400000BF00BF00BF00BF00BF00BF00BF00BF88
:1030500000BF00BF00BF00BF049B5B0804939DF846
:1030600005300133DBB2172B8DF8053000F2838079
:10307000E3791068C3EBC30300EB8307BF8850F804
:1030800023301F830398049B18427FF473AF0046DC
:1030900000BF00BF00BF00BF00BF00BF00BF00BF38
:1030A00000BF00BF00BF00BF00BF00BF00BF00BF28
:1030B00000BF00BF00BFE3791068C3EBC30300EBA0
:1030C0008307BF8850F823305F83004600BF00BFEE
:1030D00000BF00BF00BF00BF00BF00BF00BF00BFF8
:1030E00000BF00BF00BF00BF00BF00BF00BF00BFE8
:1030F00000BF00BF00BF00BF00BF00BF00BF00BFD8
:1031000000BF00BF00BF00BF00BF00BF00BF00BFC7
:1031100000BF00BF00BF00BF00BF00BF00BF00BFB7
:1031200000BF00BF00BF00BF00BF00BF00BF00BFA7
:1031300000BF00BF00BF00BF00BF00BF00BF00BF97
:1031400000BF00BF00BF00BF00BF00BF00BF00BF87
:1031500000BF00BF00BF00BF00BF00BF00BF00BF77
:1031600000BF00BF00BF00BF00BF00BF00BF00BF67
:1031700000BF00BF70E7BDF80A309BB2002B7FF4A0
:10318000D1AE62B600F05AFD206107B0F0BD002B51
:10319000F7D04FF4000E0026544B1868544BCDF86E
:1031A00010E0BDF80A200331033A92B2ADF80A20CC
:1031B00011F8032CD2B28DF8062011F8022CD2B2ED
:1031C0008DF8072011F8012CD2B28DF808209DF857
:1031D00006C09DF807209DF80870120242EA0C42D2
:1031E0003A4303928DF80560E2795D68C2EBC20252
:1031F00000EB8207BF8850F8222005951783039FB4
:10320000049A174225D05A68059FD21B4F2AFAD933
:10321000E279C2EBC20200EB8207BF8850F822209D
:1032200057835A6805925A68059FD21B072AFAD914
:10323000049A520804929DF805200132D2B2172A4E
:103240008DF80520D0D9BDF80A2092B2002AA6D167
:1032500097E75A68059FD21B182AFAD9E279C2EB80
:10326000C20200EB8207BF8850F8222057835A68B9
:1032700005925A68059FD21B452AFAD9D8E77047AC
:10328000002B3FF47EAF4FF000450026174A04950F
:10329000BDF80A300431043B9BB2ADF80A3011F896
:1032A000043CDBB28DF8073011F8033CDBB28DF83B
:1032B000063011F8023CDBB28DF8083011F8013C01
:1032C000DBB28DF809309DF807C09DF806309DF8F7
:1032D00008001B049DF8097043EA0C633B4343EA72
:1032E000002303938DF805607FE000BFBC0A002037
:1032F000001000E0004600BF00BF00BF00BF00BFDD
:1033000000BF00BF00BF00BF00BF00BF00BF00BFC5
:1033100000BF00BF00BF00BF00BF00BF00BF00BFB5
:1033200000BF00BF00BF00BF00BF00BF00BF00BFA5
:1033300000BF00BF00BF00BF00BF00BF00BF00BF95
:1033400000BF00BF00BF00BF00BF00BF00BF00BF85
:1033500000BF00BF00BF00BF00BF00BF00BF00BF75
:1033600000BFE3791068C3EBC30300EB8307BF889A
:1033700050F823305F83004600BF00BF00BF00BF8E
:1033800000BF00BF00BF00BF00BF00BF00BF00BF45
:1033900000BF00BF00BF00BF00BF00BF00BF00BF35
:1033A00000BF00BF00BF00BF00BF00BF00BF00BF25
:1033B00000BF00BF00BF00BF00BF00BF00BF00BF15
:1033C00000BF00BF00BF00BF00BF00BF00BF00BF05
:1033D00000BF00BF049B5B0804939DF805300133D8
:1033E000DBB21F2B8DF805307ED8E3791068C3EB74
:1033F000C30300EB8307BF8850F823301F83039873
:10340000049B18427FF476AF004600BF00BF00BFA8
:1034100000BF00BF00BF00BF00BF00BF00BF00BFB4
:1034200000BF00BF00BF00BF00BF00BF00BF00BFA4
:10343000E3791068C3EBC30300EB8307BF8850F840
:1034400023305F83004600BF00BF00BF00BF00BF46
:1034500000BF00BF00BF00BF00BF00BF00BF00BF74
:1034600000BF00BF00BF00BF00BF00BF00BF00BF64
:1034700000BF00BF00BF00BF00BF00BF00BF00BF54
:1034800000BF00BF00BF00BF00BF00BF00BF00BF44
:1034900000BF00BF00BF00BF00BF00BF00BF00BF34
:1034A00000BF00BF00BF00BF00BF00BF00BF00BF24
:1034B00000BF00BF00BF00BF00BF00BF00BF00BF14
:1034C00000BF00BF00BF00BF00BF00BF00BF00BF04
:1034D00000BF00BF00BF00BF00BF00BF00BF00BFF4
:1034E00000BF00BF00BF75E7BDF80A309BB2002BDC
:1034F0007FF4CDAE45E6032D00F02B81002B3FF489
:1035000040AE4FF400050026174A0495BDF80A3076
:10351000E079033B9BB2ADF80A300B781768DBB259
:103520008DF807304B78C0EBC000DBB28DF8083067
:103530008B7807EB800CDBB28DF806309DF807E046
:103540009DF80830BCF804C01B0243EA0E439DF806
:1035500006E057F8200043EA0E03039303318DF889
:103560000560A0F81AC07CE0BC0A0020049B5B0840
:103570000493004600BF00BF00BF00BF00BF00BFF4
:1035800000BF00BF00BF00BF00BF00BF00BF00BF43
:1035900000BF00BF00BF00BF00BF00BF00BF00BF33
:1035A00000BF00BF00BF00BF00BF00BF00BF00BF23
:1035B00000BF00BF00BF00BF00BF00BF00BF00BF13
:1035C00000BF00BF00BF00BF00BF00BF00BF00BF03
:1035D00000BF00BF00BF00BF00BF00BF00BF00BFF3
:1035E00000BF00BF00BF00BF00BF00BF00BF00BFE3
:1035F00000BF00BF00BF00BFE07917689DF805302D
:10360000C0EBC00007EB800CBCF804C057F82000EA
:103610000133DBB28DF80530A0F818C0004600BFBA
:1036200000BF00BF00BF00BF00BF00BF00BF00BFA2
:1036300000BF00BF00BF00BF00BF00BF00BF00BF92
:1036400000BF00BF00BF9DF80530182B7AD0E3798A
:103650001068C3EBC30300EB8307BF8850F8233027
:103660005F830398049B184280D1004600BF00BFCF
:1036700000BF00BF00BF00BF00BF00BF00BF00BF52
:1036800000BF00BF00BF00BF00BF00BFE3791068EC
:10369000C3EBC30300EB8307BF8850F823301F83BD
:1036A0009DF805300133DBB28DF80530049B5B08D3
:1036B0000493004600BF00BF00BF00BF00BF00BFB3
:1036C00000BF00BF00BF00BF00BF00BF00BF00BF02
:1036D00000BF00BF00BF00BF00BF00BF00BF00BFF2
:1036E00000BF00BF00BF00BF00BF00BF00BF00BFE2
:1036F00000BF00BF00BF00BF00BF00BF00BF00BFD2
:1037000000BF00BF00BF00BF00BF00BF00BF00BFC1
:1037100000BF00BF00BF00BF00BF00BF00BF00BFB1
:1037200000BF00BF00BF00BF00BF00BF00BF00BFA1
:1037300000BF00BF00BF00BF00BF00BF9DF8053045
:10374000182B84D1BDF80A309BB2002B7FF4DDAE7C
:1037500017E5002B3FF415AD4FF400050026134A82
:103760000495BDF80A300331033B9BB2ADF80A3033
:1037700011F8033CDBB28DF8073011F8023CDBB2E4
:103780008DF8063011F8013CDBB28DF808309DF859
:1037900007709DF806309DF808001B0243EA0743B6
:1037A000034303938DF80560E1E000BFBC0A0020ED
:1037B000004600BF00BF00BF00BF00BF00BF00BF8A
:1037C00000BF00BF00BF00BF00BF00BF00BF00BF01
:1037D00000BF00BF00BF00BF00BF00BF00BF00BFF1
:1037E00000BF00BF00BF00BF00BF00BF00BF00BFE1
:1037F00000BF00BF00BF00BF00BF00BF00BF00BFD1
:1038000000BF00BF00BF00BF00BF00BF00BF00BFC0
:1038100000BF00BF00BF00BF00BF00BF00BF00BFB0
:1038200000BF00BF00BF00BF00BF00BF00BF00BFA0
:1038300000BF00BF00BF00BF00BF00BF00BF00BF90
:1038400000BF00BF00BF00BF00BF00BF00BF00BF80
:1038500000BF00BF00BF00BF00BF00BF00BF00BF70
:1038600000BF00BF00BF00BF00BF00BF00BF00BF60
:1038700000BF00BF00BF00BF00BF00BF00BF00BF50
:1038800000BF00BF00BF00BF00BF00BF00BF00BF40
:1038900000BF00BF00BF00BF00BF00BF00BF00BF30
:1038A00000BF00BF00BF00BF00BF00BF00BF00BF20
:1038B00000BF00BF00BF00BF00BF00BF00BF00BF10
:1038C00000BF00BF00BF00BF00BF00BF00BF00BF00
:1038D00000BFE3791068C3EBC30300EB8307BF8825
:1038E00050F823305F83004600BF00BF00BF00BF19
:1038F00000BF00BF00BF00BF00BF00BF00BF00BFD0
:1039000000BF00BF00BF00BF00BF00BF00BF00BFBF
:1039100000BF00BF00BF00BF00BF00BF00BF00BFAF
:1039200000BF00BF00BF00BF00BF00BF00BF00BF9F
:1039300000BF00BF00BF00BF00BF00BF00BF00BF8F
:1039400000BF00BF00BF00BF00BF00BF00BF00BF7F
:1039500000BF00BF00BF049B5B0804939DF80530C7
:103960000133DBB2172B8DF8053000F2EB80E379E1
:103970001068C3EBC30300EB8307BF8850F8233004
:103980001F830398049B18427FF412AF004600BFC8
:1039900000BF00BF00BF00BF00BF00BF00BF00BF2F
:1039A00000BF00BF00BF00BF00BF00BF00BF00BF1F
:1039B00000BF00BF00BF00BF00BF00BF00BF00BF0F
:1039C00000BF00BF00BF00BF00BF00BF00BF00BFFF
:1039D00000BF00BF00BF00BF00BF00BF00BF00BFEF
:1039E00000BF00BF00BF00BF00BF00BF00BF00BFDF
:1039F00000BF00BF00BF00BF00BF00BF00BF00BFCF
:103A000000BF00BF00BF00BF00BF00BF00BFE37921
:103A10001068C3EBC30300EB8307BF8850F8233063
:103A20005F83004600BF00BF00BF00BF00BF00BFF4
:103A300000BF00BF00BF00BF00BF00BF00BF00BF8E
:103A400000BF00BF00BF00BF00BF00BF00BF00BF7E
:103A500000BF00BF00BF00BF00BF00BF00BF00BF6E
:103A600000BF00BF00BF00BF00BF00BF00BF00BF5E
:103A700000BF00BF00BF00BF00BF00BF00BF00BF4E
:103A800000BF00BF00BF00BF00BF00BF00BF00BF3E
:103A900000BF00BF00BF00BF00BF00BF00BF00BF2E
:103AA00000BF00BF00BF00BF00BF00BF00BF00BF1E
:103AB00000BF00BF00BF00BF00BF00BF00BF00BF0E
:103AC00000BF00BF00BF00BF00BF00BF00BF00BFFE
:103AD00000BF00BF00BF00BF00BF00BF00BF00BFEE
:103AE00000BF00BF00BF00BF00BF00BF00BF00BFDE
:103AF00000BF00BF00BF00BF00BF00BF00BF00BFCE
:103B000000BF00BF00BF00BF00BF00BF00BF00BFBD
:103B100000BF00BF00BF00BF00BF00BF00BF00BFAD
:103B200000BF00BF00BF00BF00BF00BF00BF00BF9D
:103B300000BF10E7BDF80A309BB2002B7EF492AFB5
:103B4000FFF71FBBBDF80A309BB2002B7FF408AE15
:103B5000FFF717BB70B544889DF810508C4218D9F8
:103B6000047A2CB1624363436C43120A1B0A250A90
:103B7000C668807901EB410102387418062810D814
:103B8000DFE800F0040F08040F04040073546270AF
:103B9000A57070BDFE2A28BFFE2272546570A37006
:103BA000F7E772546370A570F3E7000008B500F002
:103BB00005F8014B186008BDBC0A002008B5024B8F
:103BC0001B681B68019308BDB001060808B5024BCD
:103BD0001B685B68019308BDB001060808B5024B7D
:103BE0001B689B68019308BDB001060808B5024B2D
:103BF0001B68DB68019308BDB001060808B5024BDD
:103C00001B681B69019308BDB001060808B5024B8B
:103C10001B685B69019308BDB001060808B5024B3B
:103C20001B681B6B019308BDB001060808B5024B69
:103C30001B685B68019308BD9C01060808B5024B30
:103C40001B681B69019308BD9C01060808B5024B5F
:103C50001B685B69019308BD9C01060808B5024B0F
:103C60001B689B6A019308BD9C01060808B5024BBE
:103C70001B68DB6A019308BD9C01060808B5024B6E
:103C80001B681B6B019308BD9C01060808B5024B1D
:103C90001B689B6D019308BD9C01060808B5024B8B
:103CA0001B68DB6D019308BD9C01060808B5024B3B
:103CB0001B685B6E019308BD9C01060808B5024BAA
:103CC0001B685B6C019308BDD001060808B5024B68
:103CD0001B689B6C019308BDD001060808B5024B18
:103CE0001B689B69019308BDC401060808B5024B17
:103CF0001B685B6A019308BDC401060808B5024B46
:103D00001B689B6A019308BDC401060808B5024BF5
:103D10001B68DB6A019308BDC401060808B5024BA5
:103D20001B681B6B019308BDC401060808B5024B54
:103D30001B685B6B019308BDC401060808B5024B04
:103D40001B689B6B019308BDC401060808B5024BB4
:103D50001B681B6C019308BDC401060808B5024B23
:103D60001B681B6E019308BDAC01060808B5024B29
:103D70001B685B6E019308BDAC01060808B5024BD9
:103D80001B689B6E019308BDAC01060808B5024B89
:103D90001B68DB6E019308BDAC01060808B5024B39
:103DA0001B681B6F019308BDAC01060808B5024BE8
:103DB0001B685B6F019308BDAC01060808B5034B97
:103DC0001B68D3F88030019308BD0000AC010608E1
:103DD00008B5024B1B68DB69019308BDB4010608F6
:103DE00008B5024B1B681B6A019308BDB4010608A5
:103DF00008B5024B1B681B68019308BDD801060873
:103E000008B5024B1B681B69019308BDD801060861
:103E100008B5024B1B685B69019308BDD801060811
:103E200008B5024B1B689B69019308BDD8010608C1
:103E300008B5024B1B68DB69019308BDD801060871
:103E400008B5024B1B681B6A019308BDD801060820
:103E500008B5024B1B689B6C019308BDC0010608A6
:103E600008B5024B1B681B6D019308BDC001060815
:103E700008B5024B1B685B6F019308BDC0010608C3
:103E800008B5024B1B685B68019308BDA8010208D6
:103E900008B5024B1B689B68019308BDA801020886
:103EA00008B5024B1B68DB68019308BDA801020836
:103EB00008B5024B1B689B69019308BDA801020865
:103EC00008B5024B1B68DB69019308BDA801020815
:103ED00008B5024B1B681B68019308BDA4010608C6
:103EE00008B5024B1B685B68019308BDA401060876
:103EF00008B5024B1B685B69019308BDA401060865
:103F000008B5024B1B68DB6A019308BDA4010608D3
:103F100008B5024B1B68DB6C019308BDA4010608C1
:103F200008B5024B1B685B6D019308BDA401060830
:103F300008B5024B1B689B6D019308BDA4010608E0
:103F400008B5034B1B68D3F89030019308BD0000FF
:103F5000A401060808B5034B1B68D3F89C300193F5
:103F600008BD0000A401060808B5024B1B685B6889
:103F7000019308BDC801060808B5024B1B689B6881
:103F8000019308BDC801060808B5024B1B68DB6831
:103F9000019308BDC801060808B5024B1B681B69E0
:103FA000019308BDC801060808B5024B1B685B6990
:103FB000019308BDC801060808B5024B1B689B6940
:103FC000019308BDC801060808B5024B1B68DB69F0
:103FD000019308BDC801060808B5024B1B681B6A9F
:103FE000019308BDC801060808B5024B1B681B6B8E
:103FF000019308BDC801060808B5024B1B685B6B3E
:10400000019308BDC801060808B5024B1B681B6870
:10401000019308BDCC01060808B5024B1B689B68DC
:10402000019308BDCC01060808B5024B1B685B690B
:10403000019308BDCC01060808B5024B1B681B6A3A
:10404000019308BDCC01060808B5024B1B685B6AEA
:10405000019308BDCC01060808B5024B1B681B6B19
:10406000019308BDCC01060808B5024B1B68DB6B49
:10407000019308BDCC01060808B5024B1B681B68FC
:10408000019308BDA001060808B5024B1B685B68D8
:10409000019308BDA001060808B5024B1B689B6987
:1040A000019308BDA001060808B5024B1B68DB6A36
:1040B000019308BDA001060808B5024B1B681B6BE5
:1040C000019308BDA001060808B5024B1B685B6C94
:1040D000019308BDA001060870B5002604460D46F0
:1040E00040F8086FFFF7EAFD28462570FFF770FEDD
:1040F0002046666070BD00000222002010B5084B0B
:10410000084C1A60084B2060A080A071A360FFF7E4
:10411000E7FE2046BDE81040044A054901F04AB9CF
:10412000CC0A0020C00A00200000FFFF400200204F
:1041300035020A08F8B506460D4600248F18BD4220
:104140000CD0336830469B6815F8011B9847031E56
:1041500001DB1C44F3E7002C08BF1C462046F8BDD9
:1041600070B505460C46084649B102F0A4FC2B6820
:10417000024621462846BDE87040DB68184770BDFE
:1041800003689B6818470023012A98BF0A2230B5AC
:104190008BB00C468DF8243009A92546B4FBF2F407
:1041A00004FB1253DBB2092B94BF30333733DBB23D
:1041B000AA4201F8013DF0D9FFF7D2FF0BB030BDA4
:1041C000002340681A461946FFF7EEBE38B504686A
:1041D00005467CB16368013B63605BB92368204698
:1041E0009B689847A368013BA3601BB923682046DE
:1041F000DB689847284638BD0B68036013B15A68DE
:1042000001325A6070470000014B024A1A60704741
:10421000D00A00203C900A082DE9F041154ADFF849
:104220006080D2E90032C01842EB0101124A8CB022
:10423000D2E90032C61841EB0207D8E90023BB429D
:1042400008BFB24213D003A96846CDE9006702F067
:10425000D5FA089B094D03F26C7303AC08930FCC9D
:104260000FC50FCC0FC5C8E9006723682B600CB0E1
:10427000BDE8F081080B0020000B0020D80A0020C8
:10428000100B002008B50020FFF7E6FE28B1FFF76D
:10429000CBFE80F00100C0B208BD0120FCE70000A9
:1042A00008B5FFF7B9FF044B986818B10C2800DD7A
:1042B0000C3808BD0C20FCE7D80A002010B50A49CC
:1042C000044602F065F868B92046084902F07EF815
:1042D00040B90749204601F0BDFE02F0C7F8054B82
:1042E000C3E9000110BD00BF000040C100006041F3
:1042F00000006145080B002010B50020FFF7C6FC48
:104300000446A0B9FFF7E4FD012810D12046FFF7CD
:104310000FFE60B9FFF7B6FF10B9FFF77DFEF9E7B2
:10432000FFF7B0FFBDE810400020FFF7AFBC20460C
:1043300010BD1FB5FFF7E0FF10220021684602F014
:1043400061FB00216846FFF7B1FC009805B05DF8FD
:1043500004FB08B5FFF7EDFFBDE80840C117FFF704
:104360009FBF000008B5FFF7E4FFC117FFF754FF38
:10437000014B586808BD00BFD80A0020024B1A68DC
:10438000024B1A60704700BF00000020D40A0020D2
:104390000021FFF7ADBD10B58368044613B10322B9
:1043A00001469847204610BD10B50446FFF7F3FFBD
:1043B000204610BD10B50446FFF77AFD844208D0B0
:1043C0001CB1BDE81040FFF763BDBDE81040FFF72A
:1043D00067BD10BD70B505460E461446FFF768FD73
:1043E00050B144EA062444EA0540FFF749FDBDE820
:1043F0007040E720FFF764BD70BD13B56C460B46F7
:10440000024603C884E8030093E8030082E803003F
:1044100094E8030083E8030002B010BD00230348C2
:10442000034A0449836000F0C5BF00BF180B002099
:1044300040020020A9430A08014B1860704700BFE2
:104440000400002008B5134B43B100F001FC0368E1
:104450001B699847002801DDAFF300800E4B43B184
:1044600000F0AEFC03681B699847002801DDAFF33C
:1044700000800A4B0BB1AFF30080094B43B100F051
:1044800025FC03681B699847002801DDAFF3008015
:1044900008BD00BF00000000000000000000000098
:1044A0000000000008B5FFF7CDFFFFF7CFFB014B81
:1044B000186008BDA40F00200248034A0349121ADD
:1044C00002F092BA0040024004400240E8940A0818
:1044D000002307B51A466FF077010093FFF73AFD06
:1044E00003B05DF804FB000007B543880A2B08D031
:1044F000502B0BD1094B1B684BB103B05DF804EB9B
:104500001847FFF7E5FF03B05DF804FB00231A46E8
:104510006FF077010093FFF71DFDF4E72C0B0020EF
:1045200038B5124C00211248FFF7CEFD114D23681B
:10453000AB420CBF012200220F4B1A7002D0FFF7D2
:10454000BBFF2560FFF772FB044602F063FA0B4BDA
:1045500013B12046AFF3008000210848FFF784FD27
:10456000BDE8384000210648FFF7EABC00400240A1
:1045700039440A081E1C279A280B0020000000005E
:10458000E9440A0870470020704710B5044610211E
:1045900000F015FF204610BD08B5FFF7F6FF08BD77
:1045A000002230B54FF69C74026084808D888C8028
:1045B0000C68858004600A6030BD10B50446006850
:1045C000FFF762FD204610BD38B5C468F4B123780A
:1045D000022B03D104F10C00FFF7EFFF656835B142
:1045E0002846FFF7D8FE1021284600F0E8FEA5680F
:1045F00035B12846FFF7CFFE1021284600F0DFFE38
:104600002046BDE83840142100F0D9BE38BD73B54E
:104610000E46044656F8043B0D4601A83146009369
:10462000FFF7EAFD009B019A23600023626001A866
:1046300001930093FFF7CAFD3046FFF7C7FD2846F8
:10464000082100F0BCFE204602B070BD826810B5A3
:104650000AB900F0B8FEC368BDE81040184708B5B5
:10466000006800F11001FFF7F1FF08BD826810B586
:104670000AB900F0A8FEC368BDE81040184708B5A5
:10468000006800F11001FFF7F1FF08BD38B5002305
:104690000446036010200D46FBF7FFFC28B1012300
:1046A000C0E90133024BC56003602060204638BD7D
:1046B00064900A0838B5002383608B6804460D4671
:1046C0002BB102229847EB68E360AB68A3602046F9
:1046D00038BD0000F0B589B004686846FFF760FF98
:1046E0004FF00203D4E84F2F002A03D1C4E8413F22
:1046F0000029F7D125D104F10C0569462846FFF7BA
:104700004FFF0123BFF35B8F63700020BFF35B8F0C
:1047100004F1080353E8006F43E80002002AF9D1CE
:10472000BFF35B8F6EB1FFF7F3FB78B129463046DC
:10473000FFF78CFF3046FFF72EFE1021304600F0C9
:104740003EFE6846FFF739FF09B0F0BD314602A8CA
:10475000FFF7B0FFE068B4F9105008B102F090F92B
:1047600006901020ADF81C50FBF797FC0546E8B109
:10477000002787601820FBF790FC044688B10146AB
:10478000876002A8FFF739FE049BA268A360059B1F
:104790000492E26806A9E36004F110000592FFF7B5
:1047A000FFFE084B2C60EB60074BAB6006A8FFF7E1
:1047B00004FF02A8FFF7EFFD002229460348FFF798
:1047C000AFFBB7E75F460A08F5480A08114E0A082A
:1047D0002DE9F0478AB005460C46174698469DF8E5
:1047E0004890FFF721FC07AE824638BB4FF62E7388
:1047F000059005A93046ADF81830FFF7D1FE14201A
:10480000FBF74BFC044648B1022303700123C0E9C7
:1048100001AA437031460C30FFF7C2FE28462146FC
:1048200040F8044BFFF732FF3046FFF7C6FE05A8FD
:10483000FFF7C3FE28460AB0BDE8F0870C234FF00F
:10484000000A1420CDE908AA0793FBF726FC0146CD
:1048500028B1C0E901AA80F800A080F801A004A84E
:104860000391FFF713FF224B08200893FBF715FC79
:10487000824628B1039B04A940F8043BFFF7BCFC27
:1048800042463946204600965FFA89F3CDF824A0C7
:10489000FFF7D2FBB8B9039B5B7803F0FF0293B933
:1048A0004FF69C7305A903A80592ADF81830FFF7E1
:1048B00011FF05A8FFF781FE05A80999FFF7A7FEDC
:1048C00006A8FFF783FC039B04A906A80593FFF73E
:1048D00093FC059B069A2B6000236A6006A806934A
:1048E0000593FFF773FC04A8FFF770FCA2E700BF75
:1048F000B9490A08022AF8B5054607D0032A18D094
:10490000012A01D10B6803600020F8BD18200E6851
:10491000FBF7C3FB044650B13146FFF7CBFE3069CD
:10492000B6F9147008B102F0ABF82061A7822C60D0
:10493000EAE70468002CE7D004F11000FFF73DFE21
:104940002046FFF728FD1821204600F038FDDBE760
:1049500038B5002383608B6804460D462BB10222D4
:104960009847EB68E360AB68A360204638BD022A35
:1049700070B5044607D0032A12D0012A01D10B6872
:104980000360002070BD14200E68FBF786FB05460F
:1049900020B13146FFF7DCFF337C2B742560F0E754
:1049A0000468002CEDD02046FFF7F5FC14212046CA
:1049B00000F005FDE5E70000F0B5044689B00D46BE
:1049C00001A81146FFF723FEA4B124B21DB1284669
:1049D00002F056F8054601A803A90395ADF810406A
:1049E000FFF778FE03A8FFF7E8FD02A8FFF7EEFB4C
:1049F00009B0F0BD0123019DD5E84F2F002A03D156
:104A0000C5E8413F0029F7D1EFD12B73BFF35B8F8E
:104A10006B70BFF35B8F2B1D53E8006F43E80042C0
:104A2000002AF9D1BFF35B8F002EDED02046FFF7BE
:104A30006FFA074660B1304605F10C01FFF716FE2C
:104A40003046FFF7A8FC1021304600F0B8FCCCE758
:104A5000314603A8FFF77CFF2B7B10208DF81C301C
:104A6000FBF71BFB0546D0B187601420FBF715FB55
:104A7000044678B10146876003A8FFF7BEFC059B9A
:104A8000A268A360069B0592E268E3609DF81C3073
:104A900006922374064B2C60EB60064BAB6003A8B8
:104AA000FFF779FC002229460348FFF739FAC7E7E8
:104AB0007F460A086F490A08114E0A08704710B568
:104AC0000446182100F07BFC204610BDF8B50E46C8
:104AD000002400F10807051D17F8011D0A223046C1
:104AE000FFF751FBAF42044401D12046F8BD002C32
:104AF000F2D02E213046FFF743FB0444ECE70000E0
:104B000010B50446044B1122002140F8043B01F08B
:104B100079FF204610BD00BF80900A080346074A6F
:104B200010B543F8042B01F1100251F8044B9142E7
:104B300043F8044BF9D10A781A7010BD80900A0826
:104B4000024AC0E9002104220275704780900A08D9
:104B500010B59DF8084044EA0324042344EA0244C3
:104B600044EA01644460037510BD000037B5044D8C
:104B700005609DF818500095FFF7EAFF03B030BDBF
:104B800080900A0841747047704708B50021007C86
:104B9000FFF746F940EAE07008BD08B50121007C46
:104BA000FFF73EF940EAE07008BD08B5007CFFF76A
:104BB0002FF920EAE07008BD08B5007CFFF720F966
:104BC00020EAE07008BD38B50446007C0D46FFF7CA
:104BD0001FF9002801DC607C28B12946207CFFF702
:104BE00027F920EAE07038BD007CFFF729B910B53D
:104BF0000446142100F0E3FB204610BD10B54FF42D
:104C00007A73044608460021C4E90113044B20745A
:104C10002360012311466374FFF7EAF8204610BDB4
:104C200094900A0810B504461422002101F0EAFE0F
:104C3000054B20466360054BE36040F2011323817E
:104C40008123238210BD00BF600B0020610C002077
:104C500030B50F4D87B001A8FFF7E4FF2978BFF307
:104C60005B8F11F0010410D12846FBF71CFA60B1EC
:104C7000214601AA0748FFF7C1FF2846FBF718FAAB
:104C8000054A0649034800F095FB024807B030BDCD
:104C9000300B0020380B002040020020894B0A080E
:104CA00010B504461422002101F0ACFE054B20464D
:104CB0006360054BE36040F201132381812323826B
:104CC00010BD00BFE20C0020E30D002010B50F4C1A
:104CD00086B001A8FFF7E4FF2378BFF35B8FDB0703
:104CE00010D42046FBF7DFF960B1012101AA084882
:104CF000FFF784FF2046FBF7DBF9064A0649044824
:104D000000F058FB024806B010BD00BF340B002075
:104D10004C0B002040020020894B0A087047417468
:104D2000704708B5007CFFF711F820EAE07008BD75
:104D300008B5007CFEF7E2FF20EAE07008BD08B588
:104D4000007CFEF7EBFF40EAE07008BD08B5007C90
:104D5000FEF7DCFF40EAE07008BD007CFEF7E6BF2E
:104D600070B5467C04460D462EB12946207CBDE830
:104D70007040FEF7BBBF007CFEF7E8FF0028F4DCC4
:104D8000304670BD10B50446142100F018FB2046D3
:104D900010BD00004FF0000C10B504460846114647
:104DA0004FF47A72C4E901C2044A207422600122DD
:104DB00062741A46FEF792FF204610BDC4900A089E
:104DC00038B50D4D2978BFF35B8F11F0010411D177
:104DD0002846FBF768F968B12146084A084B09489C
:104DE000FFF7D8FF2846FBF763F9074A074905484C
:104DF00000F0E0FA034838BD640E0020680E002081
:104E0000EC0E0020700F0020400200201D4D0A080B
:104E100010B5836804460BB900F0D5FAC36898470B
:104E2000A3681BB103222146204698472046BDE8CF
:104E30001040102100F0C3BA7047F8B50646154679
:104E40000C468F18BC4206D0336830469B6814F875
:104E5000011B9847F6E72846F8BD0022007CFEF7C4
:104E60007DBF0021007CFEF781BF0021007CFEF7A2
:104E700085BF0021007CFEF789BF0021007CFEF782
:104E80008DBF10B50446142100F099FA204610BDDC
:104E900010B54FF47A73044608460021C4E90113A3
:104EA000034B114623602074FEF788FF204610BD97
:104EB000F4900A08704701207047002240681146AC
:104EC000FFF76AB810B50446242100F078FA2046AE
:104ED00010BDF0B5154689B011220E4604460021DA
:104EE00003A801F08FFD284601F0E5FD002781B2FF
:104EF00073682846009703AAFEF7AAFF30B1394627
:104F00002046FFF71DFE204609B0F0BD204603A94C
:104F1000FFF704FEF7E7002240681146FFF75CB890
:104F2000002240681146FFF767B800224068FFF78B
:104F30005BB80022406881F00101FFF745B800230B
:104F400040681A461946FFF737B8002240681146F4
:104F5000FFF712B8002202214068FFF715B80023BE
:104F600040681A46FFF700B808B583895BB140690D
:104F7000002808DB01F01AF8044901F01FF9044980
:104F800001F068F808BD0348FCE700BF00FF7F4759
:104F90000000C842000080BF08B583894BB100699A
:104FA000B0F1004F05D001F001F8034901F006F916
:104FB00008BD0020FCE700BF0000C84208B5838997
:104FC0005BB1006A002808DB00F0F0FF044901F043
:104FD000F5F8044901F03EF808BD0348FCE700BFBE
:104FE00000FF7F470000C842000080BF08B58389EA
:104FF0004BB18069B0F1004F05D000F0D7FF0349F5
:1050000001F0DCF808BD0020FCE700BF0000C8424A
:1050100070B50C46064600F10C050FCC0FC594E8A0
:10502000030085E8030033690120B3F1004F16BF88
:105030006422022393FBF2F37360B369B3F1004F70
:1050400016BF6422002393FBF2F3B36070BD00002F
:105050002DE9F04100254FF0020818260F46144BA9
:1050600032462946C0E9018586B0036004460C300B
:1050700001F0C8FC2A4629467868FEF78DFF80B10A
:1050800032462946684601F0BDFC2A466946284654
:10509000ADF80060FEF7ECFE38B969462046FFF730
:1050A000B7FF204606B0BDE8F081C4F80480F8E7F9
:1050B00050910A080422024B5A60024A1A60704753
:1050C000840F00201C910A08002340681A46FEF74E
:1050D0004BBF002202214068FEF756BF0022406805
:1050E0001146FEF749BF002240681146FEF754BF43
:1050F000002340681A461946FEF756BF0023406851
:105100001A461946FEF758BF0022406881F0010197
:10511000FEF75ABF00224068FEF766BF00224068D3
:105120001146FEF769BF002240681146FEF754BFE2
:1051300070B515468EB0044608A8FFF7E1FC1122B1
:10514000002103A801F05EFC0026284601F0B3FC14
:105150000A4B009681B25B68284603AAFEF778FEE8
:1051600030B131462046FFF7EBFC20460EB070BD53
:10517000204603A9FFF7D2FCF7E700BF840F002009
:10518000024B034A1A6000225A6070478C0F0020BD
:1051900074910A0810B50446806808B1FEF796FDC0
:1051A000204610BD172870B5044601D9002070BDF7
:1051B000A0F10D03022B0BD9012826D800F0D2F85C
:1051C0000021007CFEF7F2FD80F00100C0B2EEE7A6
:1051D000134E3178BFF35B8F11F001050FD13046CC
:1051E000FAF761FF58B129460E48FEF775FF3046C1
:1051F000FAF75EFF0C4A0D490A4800F0DBF8094B4C
:105200001878FEF7EDFD0028D0D1123C012C05D80E
:10521000FFF7D6FD007CFEF791FDD5E70120C6E73C
:10522000940F0020980F00204002002095510A089A
:10523000172838B504460D460AD8FF2908D0FFF7CD
:10524000B1FF28B129462046BDE83840FEF7C6BC6C
:1052500038BD38B504460D46FEF7C8FCFF2810D00F
:10526000062804D84D2323FA00F0C30709D42046AA
:10527000FFF798FF28B129462046BDE83840FEF7E1
:10528000BDBC38BD10B50446FEF7B0FC031FDBB251
:10529000012B08D92046FFF785FF20B12046BDE845
:1052A0001040FEF7B3BC002010BD10B5044609281D
:1052B0009CBF0A34A4B22046FFF774FF50B103210B
:1052C0002046FEF783FC032804D12046BDE81040A9
:1052D000FEF7A4BC002010BD10B5084C2378BFF326
:1052E0005B8FDB0708D42046FAF7DDFE20B1FEF71E
:1052F000B5FC2046FAF7DCFE014810BDA80F0020DF
:10530000AC0F0020002313B5074C1A46194620465F
:105310000093FFF72BFC2046044A054902B0BDE884
:10532000104000F047B800BFB00F0020400200203E
:10533000BD4A0A08002370B5202543801423084E77
:1053400004460380314685600561284600F039F83F
:1053500031466060284600F034F8E060204670BDB9
:10536000A0910A0830B50F4D87B02978BFF35B8F45
:1053700011F0010413D12846FAF795FE78B101A87F
:10538000FFF7D8FF214601AA0748FFF781FD28460D
:10539000FAF78EFE054A0649034800F00BF802486A
:1053A00007B030BDC80F0020CC0F00204002002005
:1053B000394E0A080B460146184601F011BAFAF7B1
:1053C00070BEFAF76CBE08B5FEF76EFEF8B5C1F315
:1053D0000A57A7F2FF34132C06460B460D46024629
:1053E0000FDC002C2ADB1C49214103EA0100304379
:1053F0002FD04FF4002323411D4425EA010500234B
:1054000025E0332C07DDB4F5806F22D100F02CF8B5
:1054100002460B461DE04FF0FF31A7F2134721FA79
:1054200007F7384215D00122C4F1330302FA03F31F
:10543000C31828BFAD1823EA070308E0002301F0D2
:105440000045013404BF45F07F5545F440151A4628
:105450002B4610461946F8BDFFFF0F0081F00041B2
:1054600002E000BF83F0004330B54FEA41044FEA49
:10547000430594EA050F08BF90EA020F1FBF54EAE4
:10548000000C55EA020C7FEA645C7FEA655C00F080
:10549000E2804FEA5454D4EB5555B8BF6D420CDD51
:1054A0002C4480EA020281EA030382EA000083EAD4
:1054B000010180EA020281EA0303362D88BF30BD74
:1054C00011F0004F4FEA01314FF4801C4CEA1131CA
:1054D00002D0404261EB410113F0004F4FEA033329
:1054E0004CEA133302D0524263EB430394EA050FB4
:1054F00000F0A780A4F10104D5F1200E0DDB02FA23
:105500000EFC22FA05F2801841F1000103FA0EF2B6
:10551000801843FA05F359410EE0A5F120050EF17C
:10552000200E012A03FA0EFC28BF4CF0020C43FAAD
:1055300005F3C01851EBE37101F0004507D54FF0BA
:10554000000EDCF1000C7EEB00006EEB0101B1F50A
:10555000801F1BD3B1F5001F0CD349085FEA300050
:105560004FEA3C0C04F101044FEA445212F5800F5B
:1055700080F09A80BCF1004F08BF5FEA500C50F1F8
:10558000000041EB045141EA050130BD5FEA4C0CDB
:10559000404141EB0101013C28BFB1F5801FE9D238
:1055A00091F0000F04BF01460020B1FA81F308BF5B
:1055B0002033A3F10B03B3F120020CDA0C3208DD27
:1055C00002F1140CC2F10C0201FA0CF021FA02F102
:1055D0000CE002F11402D8BFC2F1200C01FA02F172
:1055E00020FA0CFCDCBF41EA0C019040E41AA2BF97
:1055F00001EB0451294330BD6FEA04041F3C1CDA5F
:105600000C340EDC04F11404C4F1200220FA04F07E
:1056100001FA02F340EA030021FA04F345EA030128
:1056200030BDC4F10C04C4F1200220FA02F001FAEA
:1056300004F340EA0300294630BD21FA04F029466C
:1056400030BD94F0000F83F4801306BF81F4801105
:105650000134013D4EE77FEA645C18BF7FEA655C78
:1056600029D094EA050F08BF90EA020F05D054EA4A
:10567000000C04BF1946104630BD91EA030F1EBF4F
:105680000021002030BD5FEA545C05D14000494153
:1056900028BF41F0004130BD14F580043CBF01F546
:1056A000801130BD01F0004545F0FE4141F470012C
:1056B0004FF0000030BD7FEA645C1ABF1946104607
:1056C0007FEA655C1CBF0B46024650EA013406BF08
:1056D00052EA033591EA030F41F4002130BD00BFC7
:1056E00090F0000F04BF0021704730B54FF4806484
:1056F00004F132044FF000054FF0000150E700BF05
:1057000090F0000F04BF0021704730B54FF4806463
:1057100004F1320410F0004548BF40424FF0000150
:105720003EE700BF42004FEAE2014FEA31014FEA93
:1057300002701FBF12F07F4393F07F4F81F06051E2
:10574000704732F07F4208BF704793F07F4F04BF2D
:1057500041F40021704730B54FF4607401F000450A
:1057600021F000411CE700BF50EA010208BF70476A
:1057700030B54FF000050AE050EA010208BF70475B
:1057800030B511F0004502D5404261EB41014FF4C4
:10579000806404F132045FEA915C3FF4D8AE4FF0CC
:1057A00003025FEADC0C18BF03325FEADC0C18BFAF
:1057B000033202EBDC02C2F1200300FA03FC20FA00
:1057C00002F001FA03FE40EA0E0021FA02F114444D
:1057D000BDE600BF70B54FF0FF0C4CF4E06C1CEA66
:1057E00011541DBF1CEA135594EA0C0F95EA0C0FD7
:1057F00000F0DEF82C4481EA030621EA4C5123EA4A
:105800004C5350EA013518BF52EA033541F4801178
:1058100043F4801338D0A0FB02CE4FF00005E1FB2B
:1058200002E506F00042E0FB03E54FF00006E1FB75
:1058300003569CF0000F18BF4EF0010EA4F1FF04B8
:10584000B6F5007F64F5407404D25FEA4E0E6D41F8
:1058500046EB060642EAC62141EA55514FEAC52009
:1058600040EA5E504FEACE2EB4F1FD0C88BFBCF585
:10587000E06F1ED8BEF1004F08BF5FEA500E50F136
:10588000000041EB045170BD06F0004646EA0101FC
:1058900040EA020081EA0301B4EB5C04C2BFD4EB2E
:1058A0000C0541EA045170BD41F480114FF0000E27
:1058B000013C00F3AB8014F1360FDEBF002001F095
:1058C000004170BDC4F10004203C35DA0C341BDC0F
:1058D00004F11404C4F1200500FA05F320FA04F0E1
:1058E00001FA05F240EA020001F0004221F0004115
:1058F00010EBD37021FA04F642EB06015EEA430E88
:1059000008BF20EAD37070BDC4F10C04C4F12005B7
:1059100000FA04F320FA05F001FA04F240EA02006A
:1059200001F0004110EBD37041F100015EEA430E3B
:1059300008BF20EAD37070BDC4F1200500FA05F25B
:105940004EEA020E20FA04F301FA05F243EA0203DA
:1059500021FA04F001F0004121FA04F220EA0200E9
:1059600000EBD3705EEA430E08BF20EAD37070BD2F
:1059700094F0000F0FD101F00046400041EB01010F
:1059800011F4801F08BF013CF7D041EA060195F0F1
:10599000000F18BF704703F00046520043EB0303AB
:1059A00013F4801F08BF013DF7D043EA0603704798
:1059B00094EA0C0F0CEA135518BF95EA0C0F0CD0A3
:1059C00050EA410618BF52EA4306D1D181EA0301E9
:1059D00001F000414FF0000070BD50EA410606BFE3
:1059E0001046194652EA430619D094EA0C0F02D128
:1059F00050EA013613D195EA0C0F05D152EA03366D
:105A00001CBF104619460AD181EA030101F000418A
:105A100041F0FE4141F470014FF0000070BD41F0D3
:105A2000FE4141F4780170BD70B54FF0FF0C4CF4AD
:105A3000E06C1CEA11541DBF1CEA135594EA0C0FCC
:105A400095EA0C0F00F0A7F8A4EB050481EA030E19
:105A500052EA03354FEA013100F088804FEA033300
:105A60004FF0805545EA131343EA12634FEA0222CE
:105A700045EA111545EA10654FEA00260EF000418F
:105A80009D4208BF964244F1FD0404F5407402D2E1
:105A90005B084FEA3202B61A65EB03055B084FEA72
:105AA00032024FF480104FF4002CB6EB020E75EB6F
:105AB000030E22BFB61A754640EA0C005B084FEA97
:105AC0003202B6EB020E75EB030E22BFB61A754614
:105AD00040EA5C005B084FEA3202B6EB020E75EB5F
